{
	"contracts/BAY.sol": {
		"BAY": {
			"abi": [
				{
					"inputs": [],
					"stateMutability": "nonpayable",
					"type": "constructor"
				},
				{
					"anonymous": false,
					"inputs": [
						{
							"indexed": true,
							"internalType": "address",
							"name": "member",
							"type": "address"
						}
					],
					"name": "MemberJoinedSession",
					"type": "event"
				},
				{
					"anonymous": false,
					"inputs": [
						{
							"indexed": true,
							"internalType": "address",
							"name": "member",
							"type": "address"
						}
					],
					"name": "MemberRegistered",
					"type": "event"
				},
				{
					"anonymous": false,
					"inputs": [
						{
							"indexed": true,
							"internalType": "address",
							"name": "previousOwner",
							"type": "address"
						},
						{
							"indexed": true,
							"internalType": "address",
							"name": "newOwner",
							"type": "address"
						}
					],
					"name": "OwnershipTransferred",
					"type": "event"
				},
				{
					"inputs": [
						{
							"internalType": "address",
							"name": "_newPresident",
							"type": "address"
						}
					],
					"name": "changePresident",
					"outputs": [],
					"stateMutability": "nonpayable",
					"type": "function"
				},
				{
					"inputs": [
						{
							"internalType": "address",
							"name": "_address",
							"type": "address"
						}
					],
					"name": "checkMember",
					"outputs": [],
					"stateMutability": "view",
					"type": "function"
				},
				{
					"inputs": [],
					"name": "closeSession",
					"outputs": [],
					"stateMutability": "nonpayable",
					"type": "function"
				},
				{
					"inputs": [],
					"name": "createSession",
					"outputs": [],
					"stateMutability": "nonpayable",
					"type": "function"
				},
				{
					"inputs": [],
					"name": "getAbsentMembers",
					"outputs": [
						{
							"internalType": "address[]",
							"name": "",
							"type": "address[]"
						}
					],
					"stateMutability": "view",
					"type": "function"
				},
				{
					"inputs": [],
					"name": "getLateMembers",
					"outputs": [
						{
							"internalType": "address[]",
							"name": "",
							"type": "address[]"
						}
					],
					"stateMutability": "view",
					"type": "function"
				},
				{
					"inputs": [
						{
							"internalType": "address",
							"name": "_member",
							"type": "address"
						}
					],
					"name": "getMember",
					"outputs": [
						{
							"components": [
								{
									"internalType": "bool",
									"name": "isRegistered",
									"type": "bool"
								},
								{
									"internalType": "enum BAY.AttendanceStatus",
									"name": "attendance",
									"type": "uint8"
								},
								{
									"internalType": "uint16",
									"name": "presentCount",
									"type": "uint16"
								},
								{
									"internalType": "uint16",
									"name": "lateCount",
									"type": "uint16"
								},
								{
									"internalType": "uint16",
									"name": "absentCount",
									"type": "uint16"
								}
							],
							"internalType": "struct BAY.Member",
							"name": "",
							"type": "tuple"
						}
					],
					"stateMutability": "view",
					"type": "function"
				},
				{
					"inputs": [],
					"name": "getPresentMembers",
					"outputs": [
						{
							"internalType": "address[]",
							"name": "",
							"type": "address[]"
						}
					],
					"stateMutability": "view",
					"type": "function"
				},
				{
					"inputs": [],
					"name": "getPresident",
					"outputs": [
						{
							"internalType": "address",
							"name": "",
							"type": "address"
						}
					],
					"stateMutability": "view",
					"type": "function"
				},
				{
					"inputs": [],
					"name": "getSessionList",
					"outputs": [
						{
							"components": [
								{
									"internalType": "uint256",
									"name": "startTime",
									"type": "uint256"
								},
								{
									"internalType": "uint256",
									"name": "closedTime",
									"type": "uint256"
								}
							],
							"internalType": "struct BAY.Session[]",
							"name": "",
							"type": "tuple[]"
						}
					],
					"stateMutability": "view",
					"type": "function"
				},
				{
					"inputs": [],
					"name": "getmemberAddressList",
					"outputs": [
						{
							"internalType": "address[]",
							"name": "",
							"type": "address[]"
						}
					],
					"stateMutability": "view",
					"type": "function"
				},
				{
					"inputs": [],
					"name": "initAttendance",
					"outputs": [],
					"stateMutability": "nonpayable",
					"type": "function"
				},
				{
					"inputs": [],
					"name": "joinSession",
					"outputs": [],
					"stateMutability": "nonpayable",
					"type": "function"
				},
				{
					"inputs": [],
					"name": "owner",
					"outputs": [
						{
							"internalType": "address",
							"name": "",
							"type": "address"
						}
					],
					"stateMutability": "view",
					"type": "function"
				},
				{
					"inputs": [
						{
							"internalType": "address",
							"name": "_member",
							"type": "address"
						}
					],
					"name": "registerMember",
					"outputs": [],
					"stateMutability": "nonpayable",
					"type": "function"
				},
				{
					"inputs": [],
					"name": "renounceOwnership",
					"outputs": [],
					"stateMutability": "nonpayable",
					"type": "function"
				},
				{
					"inputs": [],
					"name": "sessionIsRunning",
					"outputs": [
						{
							"internalType": "bool",
							"name": "",
							"type": "bool"
						}
					],
					"stateMutability": "view",
					"type": "function"
				},
				{
					"inputs": [
						{
							"internalType": "uint256",
							"name": "",
							"type": "uint256"
						}
					],
					"name": "sessionList",
					"outputs": [
						{
							"internalType": "uint256",
							"name": "startTime",
							"type": "uint256"
						},
						{
							"internalType": "uint256",
							"name": "closedTime",
							"type": "uint256"
						}
					],
					"stateMutability": "view",
					"type": "function"
				},
				{
					"inputs": [
						{
							"internalType": "address",
							"name": "newOwner",
							"type": "address"
						}
					],
					"name": "transferOwnership",
					"outputs": [],
					"stateMutability": "nonpayable",
					"type": "function"
				},
				{
					"inputs": [
						{
							"internalType": "address",
							"name": "_member",
							"type": "address"
						}
					],
					"name": "updateAttendanceCount",
					"outputs": [],
					"stateMutability": "nonpayable",
					"type": "function"
				}
			],
			"devdoc": {
				"kind": "dev",
				"methods": {
					"owner()": {
						"details": "Returns the address of the current owner."
					},
					"renounceOwnership()": {
						"details": "Leaves the contract without owner. It will not be possible to call `onlyOwner` functions anymore. Can only be called by the current owner. NOTE: Renouncing ownership will leave the contract without an owner, thereby removing any functionality that is only available to the owner."
					},
					"transferOwnership(address)": {
						"details": "Transfers ownership of the contract to a new account (`newOwner`). Can only be called by the current owner."
					}
				},
				"version": 1
			},
			"evm": {
				"assembly": "    /* \"contracts/BAY.sol\":130:6850  contract BAY is Ownable {... */\n  mstore(0x40, 0x80)\n    /* \"contracts/BAY.sol\":643:647  true */\n  0x01\n    /* \"contracts/BAY.sol\":614:647  bool attendanceInitialized = true */\n  0x04\n  exp(0x0100, 0x00)\n  dup2\n  sload\n  dup2\n  0xff\n  mul\n  not\n  and\n  swap1\n  dup4\n  iszero\n  iszero\n  mul\n  or\n  swap1\n  sstore\n  pop\n    /* \"contracts/BAY.sol\":767:826  constructor() {... */\n  callvalue\n  dup1\n  iszero\n  tag_1\n  jumpi\n  0x00\n  dup1\n  revert\ntag_1:\n  pop\n    /* \"@openzeppelin/contracts/access/Ownable.sol\":936:968  _transferOwnership(_msgSender()) */\n  tag_5\n    /* \"@openzeppelin/contracts/access/Ownable.sol\":955:967  _msgSender() */\n  tag_6\n    /* \"@openzeppelin/contracts/access/Ownable.sol\":955:965  _msgSender */\n  shl(0x20, tag_7)\n    /* \"@openzeppelin/contracts/access/Ownable.sol\":955:967  _msgSender() */\n  0x20\n  shr\n  jump\t// in\ntag_6:\n    /* \"@openzeppelin/contracts/access/Ownable.sol\":936:954  _transferOwnership */\n  shl(0x20, tag_8)\n    /* \"@openzeppelin/contracts/access/Ownable.sol\":936:968  _transferOwnership(_msgSender()) */\n  0x20\n  shr\n  jump\t// in\ntag_5:\n    /* \"contracts/BAY.sol\":792:818  registerMember(msg.sender) */\n  tag_10\n    /* \"contracts/BAY.sol\":807:817  msg.sender */\n  caller\n    /* \"contracts/BAY.sol\":792:806  registerMember */\n  shl(0x20, tag_11)\n    /* \"contracts/BAY.sol\":792:818  registerMember(msg.sender) */\n  0x20\n  shr\n  jump\t// in\ntag_10:\n    /* \"contracts/BAY.sol\":130:6850  contract BAY is Ownable {... */\n  jump(tag_12)\n    /* \"@openzeppelin/contracts/utils/Context.sol\":640:736  function _msgSender() internal view virtual returns (address) {... */\ntag_7:\n    /* \"@openzeppelin/contracts/utils/Context.sol\":693:700  address */\n  0x00\n    /* \"@openzeppelin/contracts/utils/Context.sol\":719:729  msg.sender */\n  caller\n    /* \"@openzeppelin/contracts/utils/Context.sol\":712:729  return msg.sender */\n  swap1\n  pop\n    /* \"@openzeppelin/contracts/utils/Context.sol\":640:736  function _msgSender() internal view virtual returns (address) {... */\n  swap1\n  jump\t// out\n    /* \"@openzeppelin/contracts/access/Ownable.sol\":2433:2620  function _transferOwnership(address newOwner) internal virtual {... */\ntag_8:\n    /* \"@openzeppelin/contracts/access/Ownable.sol\":2506:2522  address oldOwner */\n  0x00\n    /* \"@openzeppelin/contracts/access/Ownable.sol\":2525:2531  _owner */\n  dup1\n  0x00\n  swap1\n  sload\n  swap1\n  0x0100\n  exp\n  swap1\n  div\n  0xffffffffffffffffffffffffffffffffffffffff\n  and\n    /* \"@openzeppelin/contracts/access/Ownable.sol\":2506:2531  address oldOwner = _owner */\n  swap1\n  pop\n    /* \"@openzeppelin/contracts/access/Ownable.sol\":2550:2558  newOwner */\n  dup2\n    /* \"@openzeppelin/contracts/access/Ownable.sol\":2541:2547  _owner */\n  0x00\n  dup1\n    /* \"@openzeppelin/contracts/access/Ownable.sol\":2541:2558  _owner = newOwner */\n  0x0100\n  exp\n  dup2\n  sload\n  dup2\n  0xffffffffffffffffffffffffffffffffffffffff\n  mul\n  not\n  and\n  swap1\n  dup4\n  0xffffffffffffffffffffffffffffffffffffffff\n  and\n  mul\n  or\n  swap1\n  sstore\n  pop\n    /* \"@openzeppelin/contracts/access/Ownable.sol\":2604:2612  newOwner */\n  dup2\n    /* \"@openzeppelin/contracts/access/Ownable.sol\":2573:2613  OwnershipTransferred(oldOwner, newOwner) */\n  0xffffffffffffffffffffffffffffffffffffffff\n  and\n    /* \"@openzeppelin/contracts/access/Ownable.sol\":2594:2602  oldOwner */\n  dup2\n    /* \"@openzeppelin/contracts/access/Ownable.sol\":2573:2613  OwnershipTransferred(oldOwner, newOwner) */\n  0xffffffffffffffffffffffffffffffffffffffff\n  and\n  0x8be0079c531659141344cd1fd0a4f28419497f9722a3daafe3b4186f6b6457e0\n  mload(0x40)\n  mload(0x40)\n  dup1\n  swap2\n  sub\n  swap1\n  log3\n    /* \"@openzeppelin/contracts/access/Ownable.sol\":2496:2620  {... */\n  pop\n    /* \"@openzeppelin/contracts/access/Ownable.sol\":2433:2620  function _transferOwnership(address newOwner) internal virtual {... */\n  pop\n  jump\t// out\n    /* \"contracts/BAY.sol\":1026:1368  function registerMember(address _member) public onlyOwner {... */\ntag_11:\n    /* \"@openzeppelin/contracts/access/Ownable.sol\":1094:1107  _checkOwner() */\n  tag_16\n    /* \"@openzeppelin/contracts/access/Ownable.sol\":1094:1105  _checkOwner */\n  shl(0x20, tag_17)\n    /* \"@openzeppelin/contracts/access/Ownable.sol\":1094:1107  _checkOwner() */\n  0x20\n  shr\n  jump\t// in\ntag_16:\n    /* \"contracts/BAY.sol\":1104:1111  members */\n  0x02\n    /* \"contracts/BAY.sol\":1104:1120  members[_member] */\n  0x00\n    /* \"contracts/BAY.sol\":1112:1119  _member */\n  dup3\n    /* \"contracts/BAY.sol\":1104:1120  members[_member] */\n  0xffffffffffffffffffffffffffffffffffffffff\n  and\n  0xffffffffffffffffffffffffffffffffffffffff\n  and\n  dup2\n  mstore\n  0x20\n  add\n  swap1\n  dup2\n  mstore\n  0x20\n  add\n  0x00\n  keccak256\n    /* \"contracts/BAY.sol\":1104:1133  members[_member].isRegistered */\n  0x00\n  add\n  0x00\n  swap1\n  sload\n  swap1\n  0x0100\n  exp\n  swap1\n  div\n  0xff\n  and\n    /* \"contracts/BAY.sol\":1103:1133  !members[_member].isRegistered */\n  iszero\n    /* \"contracts/BAY.sol\":1095:1166  require(!members[_member].isRegistered, \"Member is already registered\") */\n  tag_19\n  jumpi\n  mload(0x40)\n  0x08c379a000000000000000000000000000000000000000000000000000000000\n  dup2\n  mstore\n  0x04\n  add\n  tag_20\n  swap1\n  tag_21\n  jump\t// in\ntag_20:\n  mload(0x40)\n  dup1\n  swap2\n  sub\n  swap1\n  revert\ntag_19:\n    /* \"contracts/BAY.sol\":1209:1213  true */\n  0x01\n    /* \"contracts/BAY.sol\":1177:1184  members */\n  0x02\n    /* \"contracts/BAY.sol\":1177:1193  members[_member] */\n  0x00\n    /* \"contracts/BAY.sol\":1185:1192  _member */\n  dup4\n    /* \"contracts/BAY.sol\":1177:1193  members[_member] */\n  0xffffffffffffffffffffffffffffffffffffffff\n  and\n  0xffffffffffffffffffffffffffffffffffffffff\n  and\n  dup2\n  mstore\n  0x20\n  add\n  swap1\n  dup2\n  mstore\n  0x20\n  add\n  0x00\n  keccak256\n    /* \"contracts/BAY.sol\":1177:1206  members[_member].isRegistered */\n  0x00\n  add\n  0x00\n    /* \"contracts/BAY.sol\":1177:1213  members[_member].isRegistered = true */\n  0x0100\n  exp\n  dup2\n  sload\n  dup2\n  0xff\n  mul\n  not\n  and\n  swap1\n  dup4\n  iszero\n  iszero\n  mul\n  or\n  swap1\n  sstore\n  pop\n    /* \"contracts/BAY.sol\":1254:1277  AttendanceStatus.before */\n  0x00\n    /* \"contracts/BAY.sol\":1224:1231  members */\n  0x02\n    /* \"contracts/BAY.sol\":1224:1240  members[_member] */\n  0x00\n    /* \"contracts/BAY.sol\":1232:1239  _member */\n  dup4\n    /* \"contracts/BAY.sol\":1224:1240  members[_member] */\n  0xffffffffffffffffffffffffffffffffffffffff\n  and\n  0xffffffffffffffffffffffffffffffffffffffff\n  and\n  dup2\n  mstore\n  0x20\n  add\n  swap1\n  dup2\n  mstore\n  0x20\n  add\n  0x00\n  keccak256\n    /* \"contracts/BAY.sol\":1224:1251  members[_member].attendance */\n  0x00\n  add\n  0x01\n    /* \"contracts/BAY.sol\":1224:1277  members[_member].attendance = AttendanceStatus.before */\n  0x0100\n  exp\n  dup2\n  sload\n  dup2\n  0xff\n  mul\n  not\n  and\n  swap1\n  dup4\n  0x03\n  dup2\n  gt\n  iszero\n  tag_22\n  jumpi\n  tag_23\n  tag_24\n  jump\t// in\ntag_23:\ntag_22:\n  mul\n  or\n  swap1\n  sstore\n  pop\n    /* \"contracts/BAY.sol\":1288:1305  memberAddressList */\n  0x01\n    /* \"contracts/BAY.sol\":1311:1318  _member */\n  dup2\n    /* \"contracts/BAY.sol\":1288:1319  memberAddressList.push(_member) */\n  swap1\n  dup1\n  0x01\n  dup2\n  sload\n  add\n  dup1\n  dup3\n  sstore\n  dup1\n  swap2\n  pop\n  pop\n  0x01\n  swap1\n  sub\n  swap1\n  0x00\n  mstore\n  keccak256(0x00, 0x20)\n  add\n  0x00\n  swap1\n  swap2\n  swap1\n  swap2\n  swap1\n  swap2\n  0x0100\n  exp\n  dup2\n  sload\n  dup2\n  0xffffffffffffffffffffffffffffffffffffffff\n  mul\n  not\n  and\n  swap1\n  dup4\n  0xffffffffffffffffffffffffffffffffffffffff\n  and\n  mul\n  or\n  swap1\n  sstore\n  pop\n    /* \"contracts/BAY.sol\":1352:1359  _member */\n  dup1\n    /* \"contracts/BAY.sol\":1335:1360  MemberRegistered(_member) */\n  0xffffffffffffffffffffffffffffffffffffffff\n  and\n  0x92fabfa210df88d92c2f5a07ddd43a985b208d8b19b7a78ba1284aa4b287d862\n  mload(0x40)\n  mload(0x40)\n  dup1\n  swap2\n  sub\n  swap1\n  log2\n    /* \"contracts/BAY.sol\":1026:1368  function registerMember(address _member) public onlyOwner {... */\n  pop\n  jump\t// out\n    /* \"@openzeppelin/contracts/access/Ownable.sol\":1359:1489  function _checkOwner() internal view virtual {... */\ntag_17:\n    /* \"@openzeppelin/contracts/access/Ownable.sol\":1433:1445  _msgSender() */\n  tag_27\n    /* \"@openzeppelin/contracts/access/Ownable.sol\":1433:1443  _msgSender */\n  shl(0x20, tag_7)\n    /* \"@openzeppelin/contracts/access/Ownable.sol\":1433:1445  _msgSender() */\n  0x20\n  shr\n  jump\t// in\ntag_27:\n    /* \"@openzeppelin/contracts/access/Ownable.sol\":1422:1445  owner() == _msgSender() */\n  0xffffffffffffffffffffffffffffffffffffffff\n  and\n    /* \"@openzeppelin/contracts/access/Ownable.sol\":1422:1429  owner() */\n  tag_28\n    /* \"@openzeppelin/contracts/access/Ownable.sol\":1422:1427  owner */\n  shl(0x20, tag_29)\n    /* \"@openzeppelin/contracts/access/Ownable.sol\":1422:1429  owner() */\n  0x20\n  shr\n  jump\t// in\ntag_28:\n    /* \"@openzeppelin/contracts/access/Ownable.sol\":1422:1445  owner() == _msgSender() */\n  0xffffffffffffffffffffffffffffffffffffffff\n  and\n  eq\n    /* \"@openzeppelin/contracts/access/Ownable.sol\":1414:1482  require(owner() == _msgSender(), \"Ownable: caller is not the owner\") */\n  tag_30\n  jumpi\n  mload(0x40)\n  0x08c379a000000000000000000000000000000000000000000000000000000000\n  dup2\n  mstore\n  0x04\n  add\n  tag_31\n  swap1\n  tag_32\n  jump\t// in\ntag_31:\n  mload(0x40)\n  dup1\n  swap2\n  sub\n  swap1\n  revert\ntag_30:\n    /* \"@openzeppelin/contracts/access/Ownable.sol\":1359:1489  function _checkOwner() internal view virtual {... */\n  jump\t// out\n    /* \"@openzeppelin/contracts/access/Ownable.sol\":1201:1286  function owner() public view virtual returns (address) {... */\ntag_29:\n    /* \"@openzeppelin/contracts/access/Ownable.sol\":1247:1254  address */\n  0x00\n    /* \"@openzeppelin/contracts/access/Ownable.sol\":1273:1279  _owner */\n  dup1\n  0x00\n  swap1\n  sload\n  swap1\n  0x0100\n  exp\n  swap1\n  div\n  0xffffffffffffffffffffffffffffffffffffffff\n  and\n    /* \"@openzeppelin/contracts/access/Ownable.sol\":1266:1279  return _owner */\n  swap1\n  pop\n    /* \"@openzeppelin/contracts/access/Ownable.sol\":1201:1286  function owner() public view virtual returns (address) {... */\n  swap1\n  jump\t// out\n    /* \"#utility.yul\":7:176   */\ntag_34:\n    /* \"#utility.yul\":91:102   */\n  0x00\n    /* \"#utility.yul\":125:131   */\n  dup3\n    /* \"#utility.yul\":120:123   */\n  dup3\n    /* \"#utility.yul\":113:132   */\n  mstore\n    /* \"#utility.yul\":165:169   */\n  0x20\n    /* \"#utility.yul\":160:163   */\n  dup3\n    /* \"#utility.yul\":156:170   */\n  add\n    /* \"#utility.yul\":141:170   */\n  swap1\n  pop\n    /* \"#utility.yul\":7:176   */\n  swap3\n  swap2\n  pop\n  pop\n  jump\t// out\n    /* \"#utility.yul\":182:360   */\ntag_35:\n    /* \"#utility.yul\":322:352   */\n  0x4d656d62657220697320616c7265616479207265676973746572656400000000\n    /* \"#utility.yul\":318:319   */\n  0x00\n    /* \"#utility.yul\":310:316   */\n  dup3\n    /* \"#utility.yul\":306:320   */\n  add\n    /* \"#utility.yul\":299:353   */\n  mstore\n    /* \"#utility.yul\":182:360   */\n  pop\n  jump\t// out\n    /* \"#utility.yul\":366:732   */\ntag_36:\n    /* \"#utility.yul\":508:511   */\n  0x00\n    /* \"#utility.yul\":529:596   */\n  tag_43\n    /* \"#utility.yul\":593:595   */\n  0x1c\n    /* \"#utility.yul\":588:591   */\n  dup4\n    /* \"#utility.yul\":529:596   */\n  tag_34\n  jump\t// in\ntag_43:\n    /* \"#utility.yul\":522:596   */\n  swap2\n  pop\n    /* \"#utility.yul\":605:698   */\n  tag_44\n    /* \"#utility.yul\":694:697   */\n  dup3\n    /* \"#utility.yul\":605:698   */\n  tag_35\n  jump\t// in\ntag_44:\n    /* \"#utility.yul\":723:725   */\n  0x20\n    /* \"#utility.yul\":718:721   */\n  dup3\n    /* \"#utility.yul\":714:726   */\n  add\n    /* \"#utility.yul\":707:726   */\n  swap1\n  pop\n    /* \"#utility.yul\":366:732   */\n  swap2\n  swap1\n  pop\n  jump\t// out\n    /* \"#utility.yul\":738:1157   */\ntag_21:\n    /* \"#utility.yul\":904:908   */\n  0x00\n    /* \"#utility.yul\":942:944   */\n  0x20\n    /* \"#utility.yul\":931:940   */\n  dup3\n    /* \"#utility.yul\":927:945   */\n  add\n    /* \"#utility.yul\":919:945   */\n  swap1\n  pop\n    /* \"#utility.yul\":991:1000   */\n  dup2\n    /* \"#utility.yul\":985:989   */\n  dup2\n    /* \"#utility.yul\":981:1001   */\n  sub\n    /* \"#utility.yul\":977:978   */\n  0x00\n    /* \"#utility.yul\":966:975   */\n  dup4\n    /* \"#utility.yul\":962:979   */\n  add\n    /* \"#utility.yul\":955:1002   */\n  mstore\n    /* \"#utility.yul\":1019:1150   */\n  tag_46\n    /* \"#utility.yul\":1145:1149   */\n  dup2\n    /* \"#utility.yul\":1019:1150   */\n  tag_36\n  jump\t// in\ntag_46:\n    /* \"#utility.yul\":1011:1150   */\n  swap1\n  pop\n    /* \"#utility.yul\":738:1157   */\n  swap2\n  swap1\n  pop\n  jump\t// out\n    /* \"#utility.yul\":1163:1343   */\ntag_24:\n    /* \"#utility.yul\":1211:1288   */\n  0x4e487b7100000000000000000000000000000000000000000000000000000000\n    /* \"#utility.yul\":1208:1209   */\n  0x00\n    /* \"#utility.yul\":1201:1289   */\n  mstore\n    /* \"#utility.yul\":1308:1312   */\n  0x21\n    /* \"#utility.yul\":1305:1306   */\n  0x04\n    /* \"#utility.yul\":1298:1313   */\n  mstore\n    /* \"#utility.yul\":1332:1336   */\n  0x24\n    /* \"#utility.yul\":1329:1330   */\n  0x00\n    /* \"#utility.yul\":1322:1337   */\n  revert\n    /* \"#utility.yul\":1349:1531   */\ntag_37:\n    /* \"#utility.yul\":1489:1523   */\n  0x4f776e61626c653a2063616c6c6572206973206e6f7420746865206f776e6572\n    /* \"#utility.yul\":1485:1486   */\n  0x00\n    /* \"#utility.yul\":1477:1483   */\n  dup3\n    /* \"#utility.yul\":1473:1487   */\n  add\n    /* \"#utility.yul\":1466:1524   */\n  mstore\n    /* \"#utility.yul\":1349:1531   */\n  pop\n  jump\t// out\n    /* \"#utility.yul\":1537:1903   */\ntag_38:\n    /* \"#utility.yul\":1679:1682   */\n  0x00\n    /* \"#utility.yul\":1700:1767   */\n  tag_50\n    /* \"#utility.yul\":1764:1766   */\n  0x20\n    /* \"#utility.yul\":1759:1762   */\n  dup4\n    /* \"#utility.yul\":1700:1767   */\n  tag_34\n  jump\t// in\ntag_50:\n    /* \"#utility.yul\":1693:1767   */\n  swap2\n  pop\n    /* \"#utility.yul\":1776:1869   */\n  tag_51\n    /* \"#utility.yul\":1865:1868   */\n  dup3\n    /* \"#utility.yul\":1776:1869   */\n  tag_37\n  jump\t// in\ntag_51:\n    /* \"#utility.yul\":1894:1896   */\n  0x20\n    /* \"#utility.yul\":1889:1892   */\n  dup3\n    /* \"#utility.yul\":1885:1897   */\n  add\n    /* \"#utility.yul\":1878:1897   */\n  swap1\n  pop\n    /* \"#utility.yul\":1537:1903   */\n  swap2\n  swap1\n  pop\n  jump\t// out\n    /* \"#utility.yul\":1909:2328   */\ntag_32:\n    /* \"#utility.yul\":2075:2079   */\n  0x00\n    /* \"#utility.yul\":2113:2115   */\n  0x20\n    /* \"#utility.yul\":2102:2111   */\n  dup3\n    /* \"#utility.yul\":2098:2116   */\n  add\n    /* \"#utility.yul\":2090:2116   */\n  swap1\n  pop\n    /* \"#utility.yul\":2162:2171   */\n  dup2\n    /* \"#utility.yul\":2156:2160   */\n  dup2\n    /* \"#utility.yul\":2152:2172   */\n  sub\n    /* \"#utility.yul\":2148:2149   */\n  0x00\n    /* \"#utility.yul\":2137:2146   */\n  dup4\n    /* \"#utility.yul\":2133:2150   */\n  add\n    /* \"#utility.yul\":2126:2173   */\n  mstore\n    /* \"#utility.yul\":2190:2321   */\n  tag_53\n    /* \"#utility.yul\":2316:2320   */\n  dup2\n    /* \"#utility.yul\":2190:2321   */\n  tag_38\n  jump\t// in\ntag_53:\n    /* \"#utility.yul\":2182:2321   */\n  swap1\n  pop\n    /* \"#utility.yul\":1909:2328   */\n  swap2\n  swap1\n  pop\n  jump\t// out\n    /* \"contracts/BAY.sol\":130:6850  contract BAY is Ownable {... */\ntag_12:\n  dataSize(sub_0)\n  dup1\n  dataOffset(sub_0)\n  0x00\n  codecopy\n  0x00\n  return\nstop\n\nsub_0: assembly {\n        /* \"contracts/BAY.sol\":130:6850  contract BAY is Ownable {... */\n      mstore(0x40, 0x80)\n      callvalue\n      dup1\n      iszero\n      tag_1\n      jumpi\n      0x00\n      dup1\n      revert\n    tag_1:\n      pop\n      jumpi(tag_2, lt(calldatasize, 0x04))\n      shr(0xe0, calldataload(0x00))\n      dup1\n      0x97049795\n      gt\n      tag_23\n      jumpi\n      dup1\n      0xda7f6032\n      gt\n      tag_24\n      jumpi\n      dup1\n      0xda7f6032\n      eq\n      tag_18\n      jumpi\n      dup1\n      0xe526e564\n      eq\n      tag_19\n      jumpi\n      dup1\n      0xf1ed0331\n      eq\n      tag_20\n      jumpi\n      dup1\n      0xf2fde38b\n      eq\n      tag_21\n      jumpi\n      dup1\n      0xfcb4888e\n      eq\n      tag_22\n      jumpi\n      jump(tag_2)\n    tag_24:\n      dup1\n      0x97049795\n      eq\n      tag_13\n      jumpi\n      dup1\n      0xaaf2e5d8\n      eq\n      tag_14\n      jumpi\n      dup1\n      0xae521e86\n      eq\n      tag_15\n      jumpi\n      dup1\n      0xb1d7b82d\n      eq\n      tag_16\n      jumpi\n      dup1\n      0xb9936911\n      eq\n      tag_17\n      jumpi\n      jump(tag_2)\n    tag_23:\n      dup1\n      0x2ada2596\n      gt\n      tag_25\n      jumpi\n      dup1\n      0x2ada2596\n      eq\n      tag_8\n      jumpi\n      dup1\n      0x4f796a6f\n      eq\n      tag_9\n      jumpi\n      dup1\n      0x715018a6\n      eq\n      tag_10\n      jumpi\n      dup1\n      0x81d0061e\n      eq\n      tag_11\n      jumpi\n      dup1\n      0x8da5cb5b\n      eq\n      tag_12\n      jumpi\n      jump(tag_2)\n    tag_25:\n      dup1\n      0x738d22\n      eq\n      tag_3\n      jumpi\n      dup1\n      0x06f4bcbf\n      eq\n      tag_4\n      jumpi\n      dup1\n      0x16d84caa\n      eq\n      tag_5\n      jumpi\n      dup1\n      0x1cbf1b02\n      eq\n      tag_6\n      jumpi\n      dup1\n      0x290d22ae\n      eq\n      tag_7\n      jumpi\n    tag_2:\n      0x00\n      dup1\n      revert\n        /* \"contracts/BAY.sol\":4269:4355  function getPresident() public view returns(address) {... */\n    tag_3:\n      tag_26\n      tag_27\n      jump\t// in\n    tag_26:\n      mload(0x40)\n      tag_28\n      swap2\n      swap1\n      tag_29\n      jump\t// in\n    tag_28:\n      mload(0x40)\n      dup1\n      swap2\n      sub\n      swap1\n      return\n        /* \"contracts/BAY.sol\":2489:2946  function closeSession() public onlyOwner sessionRunning {... */\n    tag_4:\n      tag_30\n      tag_31\n      jump\t// in\n    tag_30:\n      stop\n        /* \"contracts/BAY.sol\":6030:6738  function getAbsentMembers() public view returns (address[] memory) {... */\n    tag_5:\n      tag_32\n      tag_33\n      jump\t// in\n    tag_32:\n      mload(0x40)\n      tag_34\n      swap2\n      swap1\n      tag_35\n      jump\t// in\n    tag_34:\n      mload(0x40)\n      dup1\n      swap2\n      sub\n      swap1\n      return\n        /* \"contracts/BAY.sol\":2252:2481  function createSession() public onlyOwner sessionNotRunning {... */\n    tag_6:\n      tag_36\n      tag_37\n      jump\t// in\n    tag_36:\n      stop\n        /* \"contracts/BAY.sol\":5332:6022  function getLateMembers() public view returns (address[] memory) {... */\n    tag_7:\n      tag_38\n      tag_39\n      jump\t// in\n    tag_38:\n      mload(0x40)\n      tag_40\n      swap2\n      swap1\n      tag_35\n      jump\t// in\n    tag_40:\n      mload(0x40)\n      dup1\n      swap2\n      sub\n      swap1\n      return\n        /* \"contracts/BAY.sol\":4363:4477  function getMember(address _member) public view returns (Member memory) {... */\n    tag_8:\n      tag_41\n      0x04\n      dup1\n      calldatasize\n      sub\n      dup2\n      add\n      swap1\n      tag_42\n      swap2\n      swap1\n      tag_43\n      jump\t// in\n    tag_42:\n      tag_44\n      jump\t// in\n    tag_41:\n      mload(0x40)\n      tag_45\n      swap2\n      swap1\n      tag_46\n      jump\t// in\n    tag_45:\n      mload(0x40)\n      dup1\n      swap2\n      sub\n      swap1\n      return\n        /* \"contracts/BAY.sol\":6746:6847  function getSessionList() public view returns (Session[] memory){... */\n    tag_9:\n      tag_47\n      tag_48\n      jump\t// in\n    tag_47:\n      mload(0x40)\n      tag_49\n      swap2\n      swap1\n      tag_50\n      jump\t// in\n    tag_49:\n      mload(0x40)\n      dup1\n      swap2\n      sub\n      swap1\n      return\n        /* \"@openzeppelin/contracts/access/Ownable.sol\":1831:1932  function renounceOwnership() public virtual onlyOwner {... */\n    tag_10:\n      tag_51\n      tag_52\n      jump\t// in\n    tag_51:\n      stop\n        /* \"contracts/BAY.sol\":577:605  Session[] public sessionList */\n    tag_11:\n      tag_53\n      0x04\n      dup1\n      calldatasize\n      sub\n      dup2\n      add\n      swap1\n      tag_54\n      swap2\n      swap1\n      tag_55\n      jump\t// in\n    tag_54:\n      tag_56\n      jump\t// in\n    tag_53:\n      mload(0x40)\n      tag_57\n      swap3\n      swap2\n      swap1\n      tag_58\n      jump\t// in\n    tag_57:\n      mload(0x40)\n      dup1\n      swap2\n      sub\n      swap1\n      return\n        /* \"@openzeppelin/contracts/access/Ownable.sol\":1201:1286  function owner() public view virtual returns (address) {... */\n    tag_12:\n      tag_59\n      tag_60\n      jump\t// in\n    tag_59:\n      mload(0x40)\n      tag_61\n      swap2\n      swap1\n      tag_29\n      jump\t// in\n    tag_61:\n      mload(0x40)\n      dup1\n      swap2\n      sub\n      swap1\n      return\n        /* \"contracts/BAY.sol\":3225:3805  function joinSession() public isMember(msg.sender) sessionRunning {... */\n    tag_13:\n      tag_62\n      tag_63\n      jump\t// in\n    tag_62:\n      stop\n        /* \"contracts/BAY.sol\":1955:2244  function checkMember(address _address) public view {... */\n    tag_14:\n      tag_64\n      0x04\n      dup1\n      calldatasize\n      sub\n      dup2\n      add\n      swap1\n      tag_65\n      swap2\n      swap1\n      tag_43\n      jump\t// in\n    tag_65:\n      tag_66\n      jump\t// in\n    tag_64:\n      stop\n        /* \"contracts/BAY.sol\":834:1018  function changePresident(address _newPresident) public onlyOwner {... */\n    tag_15:\n      tag_67\n      0x04\n      dup1\n      calldatasize\n      sub\n      dup2\n      add\n      swap1\n      tag_68\n      swap2\n      swap1\n      tag_43\n      jump\t// in\n    tag_68:\n      tag_69\n      jump\t// in\n    tag_67:\n      stop\n        /* \"contracts/BAY.sol\":3813:4022  function sessionIsRunning() public view returns(bool) {... */\n    tag_16:\n      tag_70\n      tag_71\n      jump\t// in\n    tag_70:\n      mload(0x40)\n      tag_72\n      swap2\n      swap1\n      tag_73\n      jump\t// in\n    tag_72:\n      mload(0x40)\n      dup1\n      swap2\n      sub\n      swap1\n      return\n        /* \"contracts/BAY.sol\":4485:4599  function getmemberAddressList() public view returns (address[] memory) {... */\n    tag_17:\n      tag_74\n      tag_75\n      jump\t// in\n    tag_74:\n      mload(0x40)\n      tag_76\n      swap2\n      swap1\n      tag_35\n      jump\t// in\n    tag_76:\n      mload(0x40)\n      dup1\n      swap2\n      sub\n      swap1\n      return\n        /* \"contracts/BAY.sol\":1376:1851  function updateAttendanceCount(address _member) public onlyOwner {... */\n    tag_18:\n      tag_77\n      0x04\n      dup1\n      calldatasize\n      sub\n      dup2\n      add\n      swap1\n      tag_78\n      swap2\n      swap1\n      tag_43\n      jump\t// in\n    tag_78:\n      tag_79\n      jump\t// in\n    tag_77:\n      stop\n        /* \"contracts/BAY.sol\":4607:5324  function getPresentMembers() public view returns (address[] memory) {... */\n    tag_19:\n      tag_80\n      tag_81\n      jump\t// in\n    tag_80:\n      mload(0x40)\n      tag_82\n      swap2\n      swap1\n      tag_35\n      jump\t// in\n    tag_82:\n      mload(0x40)\n      dup1\n      swap2\n      sub\n      swap1\n      return\n        /* \"contracts/BAY.sol\":2954:3217  function initAttendance() public onlyOwner sessionNotRunning {... */\n    tag_20:\n      tag_83\n      tag_84\n      jump\t// in\n    tag_83:\n      stop\n        /* \"@openzeppelin/contracts/access/Ownable.sol\":2081:2279  function transferOwnership(address newOwner) public virtual onlyOwner {... */\n    tag_21:\n      tag_85\n      0x04\n      dup1\n      calldatasize\n      sub\n      dup2\n      add\n      swap1\n      tag_86\n      swap2\n      swap1\n      tag_43\n      jump\t// in\n    tag_86:\n      tag_87\n      jump\t// in\n    tag_85:\n      stop\n        /* \"contracts/BAY.sol\":1026:1368  function registerMember(address _member) public onlyOwner {... */\n    tag_22:\n      tag_88\n      0x04\n      dup1\n      calldatasize\n      sub\n      dup2\n      add\n      swap1\n      tag_89\n      swap2\n      swap1\n      tag_43\n      jump\t// in\n    tag_89:\n      tag_90\n      jump\t// in\n    tag_88:\n      stop\n        /* \"contracts/BAY.sol\":4269:4355  function getPresident() public view returns(address) {... */\n    tag_27:\n        /* \"contracts/BAY.sol\":4313:4320  address */\n      0x00\n        /* \"contracts/BAY.sol\":4340:4347  owner() */\n      tag_92\n        /* \"contracts/BAY.sol\":4340:4345  owner */\n      tag_60\n        /* \"contracts/BAY.sol\":4340:4347  owner() */\n      jump\t// in\n    tag_92:\n        /* \"contracts/BAY.sol\":4333:4347  return owner() */\n      swap1\n      pop\n        /* \"contracts/BAY.sol\":4269:4355  function getPresident() public view returns(address) {... */\n      swap1\n      jump\t// out\n        /* \"contracts/BAY.sol\":2489:2946  function closeSession() public onlyOwner sessionRunning {... */\n    tag_31:\n        /* \"@openzeppelin/contracts/access/Ownable.sol\":1094:1107  _checkOwner() */\n      tag_94\n        /* \"@openzeppelin/contracts/access/Ownable.sol\":1094:1105  _checkOwner */\n      tag_95\n        /* \"@openzeppelin/contracts/access/Ownable.sol\":1094:1107  _checkOwner() */\n      jump\t// in\n    tag_94:\n        /* \"contracts/BAY.sol\":4075:4093  sessionIsRunning() */\n      tag_97\n        /* \"contracts/BAY.sol\":4075:4091  sessionIsRunning */\n      tag_71\n        /* \"contracts/BAY.sol\":4075:4093  sessionIsRunning() */\n      jump\t// in\n    tag_97:\n        /* \"contracts/BAY.sol\":4067:4119  require(sessionIsRunning(), \"No session is running\") */\n      tag_98\n      jumpi\n      mload(0x40)\n      0x08c379a000000000000000000000000000000000000000000000000000000000\n      dup2\n      mstore\n      0x04\n      add\n      tag_99\n      swap1\n      tag_100\n      jump\t// in\n    tag_99:\n      mload(0x40)\n      dup1\n      swap2\n      sub\n      swap1\n      revert\n    tag_98:\n        /* \"contracts/BAY.sol\":2603:2618  block.timestamp */\n      timestamp\n        /* \"contracts/BAY.sol\":2556:2567  sessionList */\n      0x03\n        /* \"contracts/BAY.sol\":2587:2588  1 */\n      0x01\n        /* \"contracts/BAY.sol\":2568:2579  sessionList */\n      0x03\n        /* \"contracts/BAY.sol\":2568:2586  sessionList.length */\n      dup1\n      sload\n      swap1\n      pop\n        /* \"contracts/BAY.sol\":2568:2588  sessionList.length-1 */\n      tag_102\n      swap2\n      swap1\n      tag_103\n      jump\t// in\n    tag_102:\n        /* \"contracts/BAY.sol\":2556:2589  sessionList[sessionList.length-1] */\n      dup2\n      sload\n      dup2\n      lt\n      tag_104\n      jumpi\n      tag_105\n      tag_106\n      jump\t// in\n    tag_105:\n    tag_104:\n      swap1\n      0x00\n      mstore\n      keccak256(0x00, 0x20)\n      swap1\n      0x02\n      mul\n      add\n        /* \"contracts/BAY.sol\":2556:2600  sessionList[sessionList.length-1].closedTime */\n      0x01\n      add\n        /* \"contracts/BAY.sol\":2556:2618  sessionList[sessionList.length-1].closedTime = block.timestamp */\n      dup2\n      swap1\n      sstore\n      pop\n        /* \"contracts/BAY.sol\":2634:2640  uint i */\n      0x00\n        /* \"contracts/BAY.sol\":2629:2939  for (uint i = 0; i < memberAddressList.length; i++) {... */\n    tag_108:\n        /* \"contracts/BAY.sol\":2650:2667  memberAddressList */\n      0x01\n        /* \"contracts/BAY.sol\":2650:2674  memberAddressList.length */\n      dup1\n      sload\n      swap1\n      pop\n        /* \"contracts/BAY.sol\":2646:2647  i */\n      dup2\n        /* \"contracts/BAY.sol\":2646:2674  i < memberAddressList.length */\n      lt\n        /* \"contracts/BAY.sol\":2629:2939  for (uint i = 0; i < memberAddressList.length; i++) {... */\n      iszero\n      tag_109\n      jumpi\n        /* \"contracts/BAY.sol\":2744:2767  AttendanceStatus.before */\n      0x00\n        /* \"contracts/BAY.sol\":2700:2767  members[memberAddressList[i]].attendance == AttendanceStatus.before */\n      0x03\n      dup2\n      gt\n      iszero\n      tag_111\n      jumpi\n      tag_112\n      tag_113\n      jump\t// in\n    tag_112:\n    tag_111:\n        /* \"contracts/BAY.sol\":2700:2707  members */\n      0x02\n        /* \"contracts/BAY.sol\":2700:2729  members[memberAddressList[i]] */\n      0x00\n        /* \"contracts/BAY.sol\":2708:2725  memberAddressList */\n      0x01\n        /* \"contracts/BAY.sol\":2726:2727  i */\n      dup5\n        /* \"contracts/BAY.sol\":2708:2728  memberAddressList[i] */\n      dup2\n      sload\n      dup2\n      lt\n      tag_114\n      jumpi\n      tag_115\n      tag_106\n      jump\t// in\n    tag_115:\n    tag_114:\n      swap1\n      0x00\n      mstore\n      keccak256(0x00, 0x20)\n      add\n      0x00\n      swap1\n      sload\n      swap1\n      0x0100\n      exp\n      swap1\n      div\n      0xffffffffffffffffffffffffffffffffffffffff\n      and\n        /* \"contracts/BAY.sol\":2700:2729  members[memberAddressList[i]] */\n      0xffffffffffffffffffffffffffffffffffffffff\n      and\n      0xffffffffffffffffffffffffffffffffffffffff\n      and\n      dup2\n      mstore\n      0x20\n      add\n      swap1\n      dup2\n      mstore\n      0x20\n      add\n      0x00\n      keccak256\n        /* \"contracts/BAY.sol\":2700:2740  members[memberAddressList[i]].attendance */\n      0x00\n      add\n      0x01\n      swap1\n      sload\n      swap1\n      0x0100\n      exp\n      swap1\n      div\n      0xff\n      and\n        /* \"contracts/BAY.sol\":2700:2767  members[memberAddressList[i]].attendance == AttendanceStatus.before */\n      0x03\n      dup2\n      gt\n      iszero\n      tag_117\n      jumpi\n      tag_118\n      tag_113\n      jump\t// in\n    tag_118:\n    tag_117:\n      sub\n        /* \"contracts/BAY.sol\":2696:2870  if (members[memberAddressList[i]].attendance == AttendanceStatus.before) {... */\n      tag_119\n      jumpi\n        /* \"contracts/BAY.sol\":2831:2854  AttendanceStatus.absent */\n      0x03\n        /* \"contracts/BAY.sol\":2788:2795  members */\n      0x02\n        /* \"contracts/BAY.sol\":2788:2817  members[memberAddressList[i]] */\n      0x00\n        /* \"contracts/BAY.sol\":2796:2813  memberAddressList */\n      0x01\n        /* \"contracts/BAY.sol\":2814:2815  i */\n      dup5\n        /* \"contracts/BAY.sol\":2796:2816  memberAddressList[i] */\n      dup2\n      sload\n      dup2\n      lt\n      tag_120\n      jumpi\n      tag_121\n      tag_106\n      jump\t// in\n    tag_121:\n    tag_120:\n      swap1\n      0x00\n      mstore\n      keccak256(0x00, 0x20)\n      add\n      0x00\n      swap1\n      sload\n      swap1\n      0x0100\n      exp\n      swap1\n      div\n      0xffffffffffffffffffffffffffffffffffffffff\n      and\n        /* \"contracts/BAY.sol\":2788:2817  members[memberAddressList[i]] */\n      0xffffffffffffffffffffffffffffffffffffffff\n      and\n      0xffffffffffffffffffffffffffffffffffffffff\n      and\n      dup2\n      mstore\n      0x20\n      add\n      swap1\n      dup2\n      mstore\n      0x20\n      add\n      0x00\n      keccak256\n        /* \"contracts/BAY.sol\":2788:2828  members[memberAddressList[i]].attendance */\n      0x00\n      add\n      0x01\n        /* \"contracts/BAY.sol\":2788:2854  members[memberAddressList[i]].attendance = AttendanceStatus.absent */\n      0x0100\n      exp\n      dup2\n      sload\n      dup2\n      0xff\n      mul\n      not\n      and\n      swap1\n      dup4\n      0x03\n      dup2\n      gt\n      iszero\n      tag_123\n      jumpi\n      tag_124\n      tag_113\n      jump\t// in\n    tag_124:\n    tag_123:\n      mul\n      or\n      swap1\n      sstore\n      pop\n        /* \"contracts/BAY.sol\":2696:2870  if (members[memberAddressList[i]].attendance == AttendanceStatus.before) {... */\n    tag_119:\n        /* \"contracts/BAY.sol\":2884:2927  updateAttendanceCount(memberAddressList[i]) */\n      tag_125\n        /* \"contracts/BAY.sol\":2906:2923  memberAddressList */\n      0x01\n        /* \"contracts/BAY.sol\":2924:2925  i */\n      dup3\n        /* \"contracts/BAY.sol\":2906:2926  memberAddressList[i] */\n      dup2\n      sload\n      dup2\n      lt\n      tag_126\n      jumpi\n      tag_127\n      tag_106\n      jump\t// in\n    tag_127:\n    tag_126:\n      swap1\n      0x00\n      mstore\n      keccak256(0x00, 0x20)\n      add\n      0x00\n      swap1\n      sload\n      swap1\n      0x0100\n      exp\n      swap1\n      div\n      0xffffffffffffffffffffffffffffffffffffffff\n      and\n        /* \"contracts/BAY.sol\":2884:2905  updateAttendanceCount */\n      tag_79\n        /* \"contracts/BAY.sol\":2884:2927  updateAttendanceCount(memberAddressList[i]) */\n      jump\t// in\n    tag_125:\n        /* \"contracts/BAY.sol\":2676:2679  i++ */\n      dup1\n      dup1\n      tag_129\n      swap1\n      tag_130\n      jump\t// in\n    tag_129:\n      swap2\n      pop\n      pop\n        /* \"contracts/BAY.sol\":2629:2939  for (uint i = 0; i < memberAddressList.length; i++) {... */\n      jump(tag_108)\n    tag_109:\n      pop\n        /* \"contracts/BAY.sol\":2489:2946  function closeSession() public onlyOwner sessionRunning {... */\n      jump\t// out\n        /* \"contracts/BAY.sol\":6030:6738  function getAbsentMembers() public view returns (address[] memory) {... */\n    tag_33:\n        /* \"contracts/BAY.sol\":6079:6095  address[] memory */\n      0x60\n        /* \"contracts/BAY.sol\":6108:6124  uint absentCount */\n      0x00\n        /* \"contracts/BAY.sol\":6144:6150  uint i */\n      dup1\n        /* \"contracts/BAY.sol\":6139:6338  for (uint i = 0; i < memberAddressList.length; i++) {... */\n    tag_132:\n        /* \"contracts/BAY.sol\":6160:6177  memberAddressList */\n      0x01\n        /* \"contracts/BAY.sol\":6160:6184  memberAddressList.length */\n      dup1\n      sload\n      swap1\n      pop\n        /* \"contracts/BAY.sol\":6156:6157  i */\n      dup2\n        /* \"contracts/BAY.sol\":6156:6184  i < memberAddressList.length */\n      lt\n        /* \"contracts/BAY.sol\":6139:6338  for (uint i = 0; i < memberAddressList.length; i++) {... */\n      iszero\n      tag_133\n      jumpi\n        /* \"contracts/BAY.sol\":6254:6277  AttendanceStatus.absent */\n      0x03\n        /* \"contracts/BAY.sol\":6210:6277  members[memberAddressList[i]].attendance == AttendanceStatus.absent */\n      dup1\n      dup2\n      gt\n      iszero\n      tag_135\n      jumpi\n      tag_136\n      tag_113\n      jump\t// in\n    tag_136:\n    tag_135:\n        /* \"contracts/BAY.sol\":6210:6217  members */\n      0x02\n        /* \"contracts/BAY.sol\":6210:6239  members[memberAddressList[i]] */\n      0x00\n        /* \"contracts/BAY.sol\":6218:6235  memberAddressList */\n      0x01\n        /* \"contracts/BAY.sol\":6236:6237  i */\n      dup5\n        /* \"contracts/BAY.sol\":6218:6238  memberAddressList[i] */\n      dup2\n      sload\n      dup2\n      lt\n      tag_137\n      jumpi\n      tag_138\n      tag_106\n      jump\t// in\n    tag_138:\n    tag_137:\n      swap1\n      0x00\n      mstore\n      keccak256(0x00, 0x20)\n      add\n      0x00\n      swap1\n      sload\n      swap1\n      0x0100\n      exp\n      swap1\n      div\n      0xffffffffffffffffffffffffffffffffffffffff\n      and\n        /* \"contracts/BAY.sol\":6210:6239  members[memberAddressList[i]] */\n      0xffffffffffffffffffffffffffffffffffffffff\n      and\n      0xffffffffffffffffffffffffffffffffffffffff\n      and\n      dup2\n      mstore\n      0x20\n      add\n      swap1\n      dup2\n      mstore\n      0x20\n      add\n      0x00\n      keccak256\n        /* \"contracts/BAY.sol\":6210:6250  members[memberAddressList[i]].attendance */\n      0x00\n      add\n      0x01\n      swap1\n      sload\n      swap1\n      0x0100\n      exp\n      swap1\n      div\n      0xff\n      and\n        /* \"contracts/BAY.sol\":6210:6277  members[memberAddressList[i]].attendance == AttendanceStatus.absent */\n      0x03\n      dup2\n      gt\n      iszero\n      tag_140\n      jumpi\n      tag_141\n      tag_113\n      jump\t// in\n    tag_141:\n    tag_140:\n      sub\n        /* \"contracts/BAY.sol\":6206:6327  if (members[memberAddressList[i]].attendance == AttendanceStatus.absent) {... */\n      tag_142\n      jumpi\n        /* \"contracts/BAY.sol\":6298:6311  absentCount++ */\n      dup2\n      dup1\n      tag_143\n      swap1\n      tag_130\n      jump\t// in\n    tag_143:\n      swap3\n      pop\n      pop\n        /* \"contracts/BAY.sol\":6206:6327  if (members[memberAddressList[i]].attendance == AttendanceStatus.absent) {... */\n    tag_142:\n        /* \"contracts/BAY.sol\":6186:6189  i++ */\n      dup1\n      dup1\n      tag_144\n      swap1\n      tag_130\n      jump\t// in\n    tag_144:\n      swap2\n      pop\n      pop\n        /* \"contracts/BAY.sol\":6139:6338  for (uint i = 0; i < memberAddressList.length; i++) {... */\n      jump(tag_132)\n    tag_133:\n      pop\n        /* \"contracts/BAY.sol\":6350:6380  address[] memory absentMembers */\n      0x00\n        /* \"contracts/BAY.sol\":6397:6408  absentCount */\n      dup2\n        /* \"contracts/BAY.sol\":6383:6409  new address[](absentCount) */\n      0xffffffffffffffff\n      dup2\n      gt\n      iszero\n      tag_145\n      jumpi\n      tag_146\n      tag_147\n      jump\t// in\n    tag_146:\n    tag_145:\n      mload(0x40)\n      swap1\n      dup1\n      dup3\n      mstore\n      dup1\n      0x20\n      mul\n      0x20\n      add\n      dup3\n      add\n      0x40\n      mstore\n      dup1\n      iszero\n      tag_148\n      jumpi\n      dup2\n      0x20\n      add\n      0x20\n      dup3\n      mul\n      dup1\n      calldatasize\n      dup4\n      calldatacopy\n      dup1\n      dup3\n      add\n      swap2\n      pop\n      pop\n      swap1\n      pop\n    tag_148:\n      pop\n        /* \"contracts/BAY.sol\":6350:6409  address[] memory absentMembers = new address[](absentCount) */\n      swap1\n      pop\n        /* \"contracts/BAY.sol\":6420:6430  uint index */\n      0x00\n        /* \"contracts/BAY.sol\":6450:6456  uint i */\n      dup1\n        /* \"contracts/BAY.sol\":6445:6700  for (uint i = 0; i < memberAddressList.length; i++) {... */\n    tag_149:\n        /* \"contracts/BAY.sol\":6466:6483  memberAddressList */\n      0x01\n        /* \"contracts/BAY.sol\":6466:6490  memberAddressList.length */\n      dup1\n      sload\n      swap1\n      pop\n        /* \"contracts/BAY.sol\":6462:6463  i */\n      dup2\n        /* \"contracts/BAY.sol\":6462:6490  i < memberAddressList.length */\n      lt\n        /* \"contracts/BAY.sol\":6445:6700  for (uint i = 0; i < memberAddressList.length; i++) {... */\n      iszero\n      tag_150\n      jumpi\n        /* \"contracts/BAY.sol\":6560:6583  AttendanceStatus.absent */\n      0x03\n        /* \"contracts/BAY.sol\":6516:6583  members[memberAddressList[i]].attendance == AttendanceStatus.absent */\n      dup1\n      dup2\n      gt\n      iszero\n      tag_152\n      jumpi\n      tag_153\n      tag_113\n      jump\t// in\n    tag_153:\n    tag_152:\n        /* \"contracts/BAY.sol\":6516:6523  members */\n      0x02\n        /* \"contracts/BAY.sol\":6516:6545  members[memberAddressList[i]] */\n      0x00\n        /* \"contracts/BAY.sol\":6524:6541  memberAddressList */\n      0x01\n        /* \"contracts/BAY.sol\":6542:6543  i */\n      dup5\n        /* \"contracts/BAY.sol\":6524:6544  memberAddressList[i] */\n      dup2\n      sload\n      dup2\n      lt\n      tag_154\n      jumpi\n      tag_155\n      tag_106\n      jump\t// in\n    tag_155:\n    tag_154:\n      swap1\n      0x00\n      mstore\n      keccak256(0x00, 0x20)\n      add\n      0x00\n      swap1\n      sload\n      swap1\n      0x0100\n      exp\n      swap1\n      div\n      0xffffffffffffffffffffffffffffffffffffffff\n      and\n        /* \"contracts/BAY.sol\":6516:6545  members[memberAddressList[i]] */\n      0xffffffffffffffffffffffffffffffffffffffff\n      and\n      0xffffffffffffffffffffffffffffffffffffffff\n      and\n      dup2\n      mstore\n      0x20\n      add\n      swap1\n      dup2\n      mstore\n      0x20\n      add\n      0x00\n      keccak256\n        /* \"contracts/BAY.sol\":6516:6556  members[memberAddressList[i]].attendance */\n      0x00\n      add\n      0x01\n      swap1\n      sload\n      swap1\n      0x0100\n      exp\n      swap1\n      div\n      0xff\n      and\n        /* \"contracts/BAY.sol\":6516:6583  members[memberAddressList[i]].attendance == AttendanceStatus.absent */\n      0x03\n      dup2\n      gt\n      iszero\n      tag_157\n      jumpi\n      tag_158\n      tag_113\n      jump\t// in\n    tag_158:\n    tag_157:\n      sub\n        /* \"contracts/BAY.sol\":6512:6689  if (members[memberAddressList[i]].attendance == AttendanceStatus.absent) {... */\n      tag_159\n      jumpi\n        /* \"contracts/BAY.sol\":6627:6644  memberAddressList */\n      0x01\n        /* \"contracts/BAY.sol\":6645:6646  i */\n      dup2\n        /* \"contracts/BAY.sol\":6627:6647  memberAddressList[i] */\n      dup2\n      sload\n      dup2\n      lt\n      tag_160\n      jumpi\n      tag_161\n      tag_106\n      jump\t// in\n    tag_161:\n    tag_160:\n      swap1\n      0x00\n      mstore\n      keccak256(0x00, 0x20)\n      add\n      0x00\n      swap1\n      sload\n      swap1\n      0x0100\n      exp\n      swap1\n      div\n      0xffffffffffffffffffffffffffffffffffffffff\n      and\n        /* \"contracts/BAY.sol\":6604:6617  absentMembers */\n      dup4\n        /* \"contracts/BAY.sol\":6618:6623  index */\n      dup4\n        /* \"contracts/BAY.sol\":6604:6624  absentMembers[index] */\n      dup2\n      mload\n      dup2\n      lt\n      tag_163\n      jumpi\n      tag_164\n      tag_106\n      jump\t// in\n    tag_164:\n    tag_163:\n      0x20\n      mul\n      0x20\n      add\n      add\n        /* \"contracts/BAY.sol\":6604:6647  absentMembers[index] = memberAddressList[i] */\n      swap1\n      0xffffffffffffffffffffffffffffffffffffffff\n      and\n      swap1\n      dup2\n      0xffffffffffffffffffffffffffffffffffffffff\n      and\n      dup2\n      mstore\n      pop\n      pop\n        /* \"contracts/BAY.sol\":6666:6673  index++ */\n      dup2\n      dup1\n      tag_165\n      swap1\n      tag_130\n      jump\t// in\n    tag_165:\n      swap3\n      pop\n      pop\n        /* \"contracts/BAY.sol\":6512:6689  if (members[memberAddressList[i]].attendance == AttendanceStatus.absent) {... */\n    tag_159:\n        /* \"contracts/BAY.sol\":6492:6495  i++ */\n      dup1\n      dup1\n      tag_166\n      swap1\n      tag_130\n      jump\t// in\n    tag_166:\n      swap2\n      pop\n      pop\n        /* \"contracts/BAY.sol\":6445:6700  for (uint i = 0; i < memberAddressList.length; i++) {... */\n      jump(tag_149)\n    tag_150:\n      pop\n        /* \"contracts/BAY.sol\":6717:6730  absentMembers */\n      dup2\n        /* \"contracts/BAY.sol\":6710:6730  return absentMembers */\n      swap4\n      pop\n      pop\n      pop\n      pop\n        /* \"contracts/BAY.sol\":6030:6738  function getAbsentMembers() public view returns (address[] memory) {... */\n      swap1\n      jump\t// out\n        /* \"contracts/BAY.sol\":2252:2481  function createSession() public onlyOwner sessionNotRunning {... */\n    tag_37:\n        /* \"@openzeppelin/contracts/access/Ownable.sol\":1094:1107  _checkOwner() */\n      tag_168\n        /* \"@openzeppelin/contracts/access/Ownable.sol\":1094:1105  _checkOwner */\n      tag_95\n        /* \"@openzeppelin/contracts/access/Ownable.sol\":1094:1107  _checkOwner() */\n      jump\t// in\n    tag_168:\n        /* \"contracts/BAY.sol\":4196:4214  sessionIsRunning() */\n      tag_170\n        /* \"contracts/BAY.sol\":4196:4212  sessionIsRunning */\n      tag_71\n        /* \"contracts/BAY.sol\":4196:4214  sessionIsRunning() */\n      jump\t// in\n    tag_170:\n        /* \"contracts/BAY.sol\":4195:4214  !sessionIsRunning() */\n      iszero\n        /* \"contracts/BAY.sol\":4187:4241  require(!sessionIsRunning(), \"Session is now running\") */\n      tag_171\n      jumpi\n      mload(0x40)\n      0x08c379a000000000000000000000000000000000000000000000000000000000\n      dup2\n      mstore\n      0x04\n      add\n      tag_172\n      swap1\n      tag_173\n      jump\t// in\n    tag_172:\n      mload(0x40)\n      dup1\n      swap2\n      sub\n      swap1\n      revert\n    tag_171:\n        /* \"contracts/BAY.sol\":2331:2352  attendanceInitialized */\n      0x04\n      0x00\n      swap1\n      sload\n      swap1\n      0x0100\n      exp\n      swap1\n      div\n      0xff\n      and\n        /* \"contracts/BAY.sol\":2323:2353  require(attendanceInitialized) */\n      tag_175\n      jumpi\n      0x00\n      dup1\n      revert\n    tag_175:\n        /* \"contracts/BAY.sol\":2364:2375  sessionList */\n      0x03\n        /* \"contracts/BAY.sol\":2381:2408  Session(block.timestamp, 0) */\n      mload(0x40)\n      dup1\n      0x40\n      add\n      0x40\n      mstore\n      dup1\n        /* \"contracts/BAY.sol\":2389:2404  block.timestamp */\n      timestamp\n        /* \"contracts/BAY.sol\":2381:2408  Session(block.timestamp, 0) */\n      dup2\n      mstore\n      0x20\n      add\n        /* \"contracts/BAY.sol\":2406:2407  0 */\n      0x00\n        /* \"contracts/BAY.sol\":2381:2408  Session(block.timestamp, 0) */\n      dup2\n      mstore\n      pop\n        /* \"contracts/BAY.sol\":2364:2409  sessionList.push(Session(block.timestamp, 0)) */\n      swap1\n      dup1\n      0x01\n      dup2\n      sload\n      add\n      dup1\n      dup3\n      sstore\n      dup1\n      swap2\n      pop\n      pop\n      0x01\n      swap1\n      sub\n      swap1\n      0x00\n      mstore\n      keccak256(0x00, 0x20)\n      swap1\n      0x02\n      mul\n      add\n      0x00\n      swap1\n      swap2\n      swap1\n      swap2\n      swap1\n      swap2\n      pop\n      0x00\n      dup3\n      add\n      mload\n      dup2\n      0x00\n      add\n      sstore\n      0x20\n      dup3\n      add\n      mload\n      dup2\n      0x01\n      add\n      sstore\n      pop\n      pop\n        /* \"contracts/BAY.sol\":2420:2433  joinSession() */\n      tag_177\n        /* \"contracts/BAY.sol\":2420:2431  joinSession */\n      tag_63\n        /* \"contracts/BAY.sol\":2420:2433  joinSession() */\n      jump\t// in\n    tag_177:\n        /* \"contracts/BAY.sol\":2468:2473  false */\n      0x00\n        /* \"contracts/BAY.sol\":2444:2465  attendanceInitialized */\n      0x04\n      0x00\n        /* \"contracts/BAY.sol\":2444:2473  attendanceInitialized = false */\n      0x0100\n      exp\n      dup2\n      sload\n      dup2\n      0xff\n      mul\n      not\n      and\n      swap1\n      dup4\n      iszero\n      iszero\n      mul\n      or\n      swap1\n      sstore\n      pop\n        /* \"contracts/BAY.sol\":2252:2481  function createSession() public onlyOwner sessionNotRunning {... */\n      jump\t// out\n        /* \"contracts/BAY.sol\":5332:6022  function getLateMembers() public view returns (address[] memory) {... */\n    tag_39:\n        /* \"contracts/BAY.sol\":5379:5395  address[] memory */\n      0x60\n        /* \"contracts/BAY.sol\":5408:5422  uint lateCount */\n      0x00\n        /* \"contracts/BAY.sol\":5442:5448  uint i */\n      dup1\n        /* \"contracts/BAY.sol\":5437:5632  for (uint i = 0; i < memberAddressList.length; i++) {... */\n    tag_179:\n        /* \"contracts/BAY.sol\":5458:5475  memberAddressList */\n      0x01\n        /* \"contracts/BAY.sol\":5458:5482  memberAddressList.length */\n      dup1\n      sload\n      swap1\n      pop\n        /* \"contracts/BAY.sol\":5454:5455  i */\n      dup2\n        /* \"contracts/BAY.sol\":5454:5482  i < memberAddressList.length */\n      lt\n        /* \"contracts/BAY.sol\":5437:5632  for (uint i = 0; i < memberAddressList.length; i++) {... */\n      iszero\n      tag_180\n      jumpi\n        /* \"contracts/BAY.sol\":5552:5573  AttendanceStatus.late */\n      0x02\n        /* \"contracts/BAY.sol\":5508:5573  members[memberAddressList[i]].attendance == AttendanceStatus.late */\n      0x03\n      dup2\n      gt\n      iszero\n      tag_182\n      jumpi\n      tag_183\n      tag_113\n      jump\t// in\n    tag_183:\n    tag_182:\n        /* \"contracts/BAY.sol\":5508:5515  members */\n      0x02\n        /* \"contracts/BAY.sol\":5508:5537  members[memberAddressList[i]] */\n      0x00\n        /* \"contracts/BAY.sol\":5516:5533  memberAddressList */\n      0x01\n        /* \"contracts/BAY.sol\":5534:5535  i */\n      dup5\n        /* \"contracts/BAY.sol\":5516:5536  memberAddressList[i] */\n      dup2\n      sload\n      dup2\n      lt\n      tag_184\n      jumpi\n      tag_185\n      tag_106\n      jump\t// in\n    tag_185:\n    tag_184:\n      swap1\n      0x00\n      mstore\n      keccak256(0x00, 0x20)\n      add\n      0x00\n      swap1\n      sload\n      swap1\n      0x0100\n      exp\n      swap1\n      div\n      0xffffffffffffffffffffffffffffffffffffffff\n      and\n        /* \"contracts/BAY.sol\":5508:5537  members[memberAddressList[i]] */\n      0xffffffffffffffffffffffffffffffffffffffff\n      and\n      0xffffffffffffffffffffffffffffffffffffffff\n      and\n      dup2\n      mstore\n      0x20\n      add\n      swap1\n      dup2\n      mstore\n      0x20\n      add\n      0x00\n      keccak256\n        /* \"contracts/BAY.sol\":5508:5548  members[memberAddressList[i]].attendance */\n      0x00\n      add\n      0x01\n      swap1\n      sload\n      swap1\n      0x0100\n      exp\n      swap1\n      div\n      0xff\n      and\n        /* \"contracts/BAY.sol\":5508:5573  members[memberAddressList[i]].attendance == AttendanceStatus.late */\n      0x03\n      dup2\n      gt\n      iszero\n      tag_187\n      jumpi\n      tag_188\n      tag_113\n      jump\t// in\n    tag_188:\n    tag_187:\n      sub\n        /* \"contracts/BAY.sol\":5504:5621  if (members[memberAddressList[i]].attendance == AttendanceStatus.late) {... */\n      tag_189\n      jumpi\n        /* \"contracts/BAY.sol\":5594:5605  lateCount++ */\n      dup2\n      dup1\n      tag_190\n      swap1\n      tag_130\n      jump\t// in\n    tag_190:\n      swap3\n      pop\n      pop\n        /* \"contracts/BAY.sol\":5504:5621  if (members[memberAddressList[i]].attendance == AttendanceStatus.late) {... */\n    tag_189:\n        /* \"contracts/BAY.sol\":5484:5487  i++ */\n      dup1\n      dup1\n      tag_191\n      swap1\n      tag_130\n      jump\t// in\n    tag_191:\n      swap2\n      pop\n      pop\n        /* \"contracts/BAY.sol\":5437:5632  for (uint i = 0; i < memberAddressList.length; i++) {... */\n      jump(tag_179)\n    tag_180:\n      pop\n        /* \"contracts/BAY.sol\":5644:5672  address[] memory lateMembers */\n      0x00\n        /* \"contracts/BAY.sol\":5689:5698  lateCount */\n      dup2\n        /* \"contracts/BAY.sol\":5675:5699  new address[](lateCount) */\n      0xffffffffffffffff\n      dup2\n      gt\n      iszero\n      tag_192\n      jumpi\n      tag_193\n      tag_147\n      jump\t// in\n    tag_193:\n    tag_192:\n      mload(0x40)\n      swap1\n      dup1\n      dup3\n      mstore\n      dup1\n      0x20\n      mul\n      0x20\n      add\n      dup3\n      add\n      0x40\n      mstore\n      dup1\n      iszero\n      tag_194\n      jumpi\n      dup2\n      0x20\n      add\n      0x20\n      dup3\n      mul\n      dup1\n      calldatasize\n      dup4\n      calldatacopy\n      dup1\n      dup3\n      add\n      swap2\n      pop\n      pop\n      swap1\n      pop\n    tag_194:\n      pop\n        /* \"contracts/BAY.sol\":5644:5699  address[] memory lateMembers = new address[](lateCount) */\n      swap1\n      pop\n        /* \"contracts/BAY.sol\":5710:5720  uint index */\n      0x00\n        /* \"contracts/BAY.sol\":5740:5746  uint i */\n      dup1\n        /* \"contracts/BAY.sol\":5735:5986  for (uint i = 0; i < memberAddressList.length; i++) {... */\n    tag_195:\n        /* \"contracts/BAY.sol\":5756:5773  memberAddressList */\n      0x01\n        /* \"contracts/BAY.sol\":5756:5780  memberAddressList.length */\n      dup1\n      sload\n      swap1\n      pop\n        /* \"contracts/BAY.sol\":5752:5753  i */\n      dup2\n        /* \"contracts/BAY.sol\":5752:5780  i < memberAddressList.length */\n      lt\n        /* \"contracts/BAY.sol\":5735:5986  for (uint i = 0; i < memberAddressList.length; i++) {... */\n      iszero\n      tag_196\n      jumpi\n        /* \"contracts/BAY.sol\":5850:5871  AttendanceStatus.late */\n      0x02\n        /* \"contracts/BAY.sol\":5806:5871  members[memberAddressList[i]].attendance == AttendanceStatus.late */\n      0x03\n      dup2\n      gt\n      iszero\n      tag_198\n      jumpi\n      tag_199\n      tag_113\n      jump\t// in\n    tag_199:\n    tag_198:\n        /* \"contracts/BAY.sol\":5806:5813  members */\n      0x02\n        /* \"contracts/BAY.sol\":5806:5835  members[memberAddressList[i]] */\n      0x00\n        /* \"contracts/BAY.sol\":5814:5831  memberAddressList */\n      0x01\n        /* \"contracts/BAY.sol\":5832:5833  i */\n      dup5\n        /* \"contracts/BAY.sol\":5814:5834  memberAddressList[i] */\n      dup2\n      sload\n      dup2\n      lt\n      tag_200\n      jumpi\n      tag_201\n      tag_106\n      jump\t// in\n    tag_201:\n    tag_200:\n      swap1\n      0x00\n      mstore\n      keccak256(0x00, 0x20)\n      add\n      0x00\n      swap1\n      sload\n      swap1\n      0x0100\n      exp\n      swap1\n      div\n      0xffffffffffffffffffffffffffffffffffffffff\n      and\n        /* \"contracts/BAY.sol\":5806:5835  members[memberAddressList[i]] */\n      0xffffffffffffffffffffffffffffffffffffffff\n      and\n      0xffffffffffffffffffffffffffffffffffffffff\n      and\n      dup2\n      mstore\n      0x20\n      add\n      swap1\n      dup2\n      mstore\n      0x20\n      add\n      0x00\n      keccak256\n        /* \"contracts/BAY.sol\":5806:5846  members[memberAddressList[i]].attendance */\n      0x00\n      add\n      0x01\n      swap1\n      sload\n      swap1\n      0x0100\n      exp\n      swap1\n      div\n      0xff\n      and\n        /* \"contracts/BAY.sol\":5806:5871  members[memberAddressList[i]].attendance == AttendanceStatus.late */\n      0x03\n      dup2\n      gt\n      iszero\n      tag_203\n      jumpi\n      tag_204\n      tag_113\n      jump\t// in\n    tag_204:\n    tag_203:\n      sub\n        /* \"contracts/BAY.sol\":5802:5975  if (members[memberAddressList[i]].attendance == AttendanceStatus.late) {... */\n      tag_205\n      jumpi\n        /* \"contracts/BAY.sol\":5913:5930  memberAddressList */\n      0x01\n        /* \"contracts/BAY.sol\":5931:5932  i */\n      dup2\n        /* \"contracts/BAY.sol\":5913:5933  memberAddressList[i] */\n      dup2\n      sload\n      dup2\n      lt\n      tag_206\n      jumpi\n      tag_207\n      tag_106\n      jump\t// in\n    tag_207:\n    tag_206:\n      swap1\n      0x00\n      mstore\n      keccak256(0x00, 0x20)\n      add\n      0x00\n      swap1\n      sload\n      swap1\n      0x0100\n      exp\n      swap1\n      div\n      0xffffffffffffffffffffffffffffffffffffffff\n      and\n        /* \"contracts/BAY.sol\":5892:5903  lateMembers */\n      dup4\n        /* \"contracts/BAY.sol\":5904:5909  index */\n      dup4\n        /* \"contracts/BAY.sol\":5892:5910  lateMembers[index] */\n      dup2\n      mload\n      dup2\n      lt\n      tag_209\n      jumpi\n      tag_210\n      tag_106\n      jump\t// in\n    tag_210:\n    tag_209:\n      0x20\n      mul\n      0x20\n      add\n      add\n        /* \"contracts/BAY.sol\":5892:5933  lateMembers[index] = memberAddressList[i] */\n      swap1\n      0xffffffffffffffffffffffffffffffffffffffff\n      and\n      swap1\n      dup2\n      0xffffffffffffffffffffffffffffffffffffffff\n      and\n      dup2\n      mstore\n      pop\n      pop\n        /* \"contracts/BAY.sol\":5952:5959  index++ */\n      dup2\n      dup1\n      tag_211\n      swap1\n      tag_130\n      jump\t// in\n    tag_211:\n      swap3\n      pop\n      pop\n        /* \"contracts/BAY.sol\":5802:5975  if (members[memberAddressList[i]].attendance == AttendanceStatus.late) {... */\n    tag_205:\n        /* \"contracts/BAY.sol\":5782:5785  i++ */\n      dup1\n      dup1\n      tag_212\n      swap1\n      tag_130\n      jump\t// in\n    tag_212:\n      swap2\n      pop\n      pop\n        /* \"contracts/BAY.sol\":5735:5986  for (uint i = 0; i < memberAddressList.length; i++) {... */\n      jump(tag_195)\n    tag_196:\n      pop\n        /* \"contracts/BAY.sol\":6003:6014  lateMembers */\n      dup2\n        /* \"contracts/BAY.sol\":5996:6014  return lateMembers */\n      swap4\n      pop\n      pop\n      pop\n      pop\n        /* \"contracts/BAY.sol\":5332:6022  function getLateMembers() public view returns (address[] memory) {... */\n      swap1\n      jump\t// out\n        /* \"contracts/BAY.sol\":4363:4477  function getMember(address _member) public view returns (Member memory) {... */\n    tag_44:\n        /* \"contracts/BAY.sol\":4420:4433  Member memory */\n      tag_213\n      tag_214\n      jump\t// in\n    tag_213:\n        /* \"contracts/BAY.sol\":4453:4460  members */\n      0x02\n        /* \"contracts/BAY.sol\":4453:4469  members[_member] */\n      0x00\n        /* \"contracts/BAY.sol\":4461:4468  _member */\n      dup4\n        /* \"contracts/BAY.sol\":4453:4469  members[_member] */\n      0xffffffffffffffffffffffffffffffffffffffff\n      and\n      0xffffffffffffffffffffffffffffffffffffffff\n      and\n      dup2\n      mstore\n      0x20\n      add\n      swap1\n      dup2\n      mstore\n      0x20\n      add\n      0x00\n      keccak256\n        /* \"contracts/BAY.sol\":4446:4469  return members[_member] */\n      mload(0x40)\n      dup1\n      0xa0\n      add\n      0x40\n      mstore\n      swap1\n      dup2\n      0x00\n      dup3\n      add\n      0x00\n      swap1\n      sload\n      swap1\n      0x0100\n      exp\n      swap1\n      div\n      0xff\n      and\n      iszero\n      iszero\n      iszero\n      iszero\n      dup2\n      mstore\n      0x20\n      add\n      0x00\n      dup3\n      add\n      0x01\n      swap1\n      sload\n      swap1\n      0x0100\n      exp\n      swap1\n      div\n      0xff\n      and\n      0x03\n      dup2\n      gt\n      iszero\n      tag_216\n      jumpi\n      tag_217\n      tag_113\n      jump\t// in\n    tag_217:\n    tag_216:\n      0x03\n      dup2\n      gt\n      iszero\n      tag_218\n      jumpi\n      tag_219\n      tag_113\n      jump\t// in\n    tag_219:\n    tag_218:\n      dup2\n      mstore\n      0x20\n      add\n      0x00\n      dup3\n      add\n      0x02\n      swap1\n      sload\n      swap1\n      0x0100\n      exp\n      swap1\n      div\n      0xffff\n      and\n      0xffff\n      and\n      0xffff\n      and\n      dup2\n      mstore\n      0x20\n      add\n      0x00\n      dup3\n      add\n      0x04\n      swap1\n      sload\n      swap1\n      0x0100\n      exp\n      swap1\n      div\n      0xffff\n      and\n      0xffff\n      and\n      0xffff\n      and\n      dup2\n      mstore\n      0x20\n      add\n      0x00\n      dup3\n      add\n      0x06\n      swap1\n      sload\n      swap1\n      0x0100\n      exp\n      swap1\n      div\n      0xffff\n      and\n      0xffff\n      and\n      0xffff\n      and\n      dup2\n      mstore\n      pop\n      pop\n      swap1\n      pop\n        /* \"contracts/BAY.sol\":4363:4477  function getMember(address _member) public view returns (Member memory) {... */\n      swap2\n      swap1\n      pop\n      jump\t// out\n        /* \"contracts/BAY.sol\":6746:6847  function getSessionList() public view returns (Session[] memory){... */\n    tag_48:\n        /* \"contracts/BAY.sol\":6793:6809  Session[] memory */\n      0x60\n        /* \"contracts/BAY.sol\":6828:6839  sessionList */\n      0x03\n        /* \"contracts/BAY.sol\":6821:6839  return sessionList */\n      dup1\n      sload\n      dup1\n      0x20\n      mul\n      0x20\n      add\n      mload(0x40)\n      swap1\n      dup2\n      add\n      0x40\n      mstore\n      dup1\n      swap3\n      swap2\n      swap1\n      dup2\n      dup2\n      mstore\n      0x20\n      add\n      0x00\n      swap1\n    tag_221:\n      dup3\n      dup3\n      lt\n      iszero\n      tag_222\n      jumpi\n      dup4\n      dup3\n      swap1\n      0x00\n      mstore\n      keccak256(0x00, 0x20)\n      swap1\n      0x02\n      mul\n      add\n      mload(0x40)\n      dup1\n      0x40\n      add\n      0x40\n      mstore\n      swap1\n      dup2\n      0x00\n      dup3\n      add\n      sload\n      dup2\n      mstore\n      0x20\n      add\n      0x01\n      dup3\n      add\n      sload\n      dup2\n      mstore\n      pop\n      pop\n      dup2\n      mstore\n      0x20\n      add\n      swap1\n      0x01\n      add\n      swap1\n      jump(tag_221)\n    tag_222:\n      pop\n      pop\n      pop\n      pop\n      swap1\n      pop\n        /* \"contracts/BAY.sol\":6746:6847  function getSessionList() public view returns (Session[] memory){... */\n      swap1\n      jump\t// out\n        /* \"@openzeppelin/contracts/access/Ownable.sol\":1831:1932  function renounceOwnership() public virtual onlyOwner {... */\n    tag_52:\n        /* \"@openzeppelin/contracts/access/Ownable.sol\":1094:1107  _checkOwner() */\n      tag_225\n        /* \"@openzeppelin/contracts/access/Ownable.sol\":1094:1105  _checkOwner */\n      tag_95\n        /* \"@openzeppelin/contracts/access/Ownable.sol\":1094:1107  _checkOwner() */\n      jump\t// in\n    tag_225:\n        /* \"@openzeppelin/contracts/access/Ownable.sol\":1895:1925  _transferOwnership(address(0)) */\n      tag_227\n        /* \"@openzeppelin/contracts/access/Ownable.sol\":1922:1923  0 */\n      0x00\n        /* \"@openzeppelin/contracts/access/Ownable.sol\":1895:1913  _transferOwnership */\n      tag_228\n        /* \"@openzeppelin/contracts/access/Ownable.sol\":1895:1925  _transferOwnership(address(0)) */\n      jump\t// in\n    tag_227:\n        /* \"@openzeppelin/contracts/access/Ownable.sol\":1831:1932  function renounceOwnership() public virtual onlyOwner {... */\n      jump\t// out\n        /* \"contracts/BAY.sol\":577:605  Session[] public sessionList */\n    tag_56:\n      0x03\n      dup2\n      dup2\n      sload\n      dup2\n      lt\n      tag_229\n      jumpi\n      0x00\n      dup1\n      revert\n    tag_229:\n      swap1\n      0x00\n      mstore\n      keccak256(0x00, 0x20)\n      swap1\n      0x02\n      mul\n      add\n      0x00\n      swap2\n      pop\n      swap1\n      pop\n      dup1\n      0x00\n      add\n      sload\n      swap1\n      dup1\n      0x01\n      add\n      sload\n      swap1\n      pop\n      dup3\n      jump\t// out\n        /* \"@openzeppelin/contracts/access/Ownable.sol\":1201:1286  function owner() public view virtual returns (address) {... */\n    tag_60:\n        /* \"@openzeppelin/contracts/access/Ownable.sol\":1247:1254  address */\n      0x00\n        /* \"@openzeppelin/contracts/access/Ownable.sol\":1273:1279  _owner */\n      dup1\n      0x00\n      swap1\n      sload\n      swap1\n      0x0100\n      exp\n      swap1\n      div\n      0xffffffffffffffffffffffffffffffffffffffff\n      and\n        /* \"@openzeppelin/contracts/access/Ownable.sol\":1266:1279  return _owner */\n      swap1\n      pop\n        /* \"@openzeppelin/contracts/access/Ownable.sol\":1201:1286  function owner() public view virtual returns (address) {... */\n      swap1\n      jump\t// out\n        /* \"contracts/BAY.sol\":3225:3805  function joinSession() public isMember(msg.sender) sessionRunning {... */\n    tag_63:\n        /* \"contracts/BAY.sol\":3264:3274  msg.sender */\n      caller\n        /* \"contracts/BAY.sol\":1906:1927  checkMember(_address) */\n      tag_233\n        /* \"contracts/BAY.sol\":1918:1926  _address */\n      dup2\n        /* \"contracts/BAY.sol\":1906:1917  checkMember */\n      tag_66\n        /* \"contracts/BAY.sol\":1906:1927  checkMember(_address) */\n      jump\t// in\n    tag_233:\n        /* \"contracts/BAY.sol\":4075:4093  sessionIsRunning() */\n      tag_235\n        /* \"contracts/BAY.sol\":4075:4091  sessionIsRunning */\n      tag_71\n        /* \"contracts/BAY.sol\":4075:4093  sessionIsRunning() */\n      jump\t// in\n    tag_235:\n        /* \"contracts/BAY.sol\":4067:4119  require(sessionIsRunning(), \"No session is running\") */\n      tag_236\n      jumpi\n      mload(0x40)\n      0x08c379a000000000000000000000000000000000000000000000000000000000\n      dup2\n      mstore\n      0x04\n      add\n      tag_237\n      swap1\n      tag_100\n      jump\t// in\n    tag_237:\n      mload(0x40)\n      dup1\n      swap2\n      sub\n      swap1\n      revert\n    tag_236:\n        /* \"contracts/BAY.sol\":3310:3317  members */\n      0x02\n        /* \"contracts/BAY.sol\":3310:3329  members[msg.sender] */\n      0x00\n        /* \"contracts/BAY.sol\":3318:3328  msg.sender */\n      caller\n        /* \"contracts/BAY.sol\":3310:3329  members[msg.sender] */\n      0xffffffffffffffffffffffffffffffffffffffff\n      and\n      0xffffffffffffffffffffffffffffffffffffffff\n      and\n      dup2\n      mstore\n      0x20\n      add\n      swap1\n      dup2\n      mstore\n      0x20\n      add\n      0x00\n      keccak256\n        /* \"contracts/BAY.sol\":3310:3342  members[msg.sender].isRegistered */\n      0x00\n      add\n      0x00\n      swap1\n      sload\n      swap1\n      0x0100\n      exp\n      swap1\n      div\n      0xff\n      and\n        /* \"contracts/BAY.sol\":3302:3371  require(members[msg.sender].isRegistered, \"Member is not registered\") */\n      tag_239\n      jumpi\n      mload(0x40)\n      0x08c379a000000000000000000000000000000000000000000000000000000000\n      dup2\n      mstore\n      0x04\n      add\n      tag_240\n      swap1\n      tag_241\n      jump\t// in\n    tag_240:\n      mload(0x40)\n      dup1\n      swap2\n      sub\n      swap1\n      revert\n    tag_239:\n        /* \"contracts/BAY.sol\":3424:3447  AttendanceStatus.before */\n      0x00\n        /* \"contracts/BAY.sol\":3390:3447  members[msg.sender].attendance == AttendanceStatus.before */\n      0x03\n      dup2\n      gt\n      iszero\n      tag_242\n      jumpi\n      tag_243\n      tag_113\n      jump\t// in\n    tag_243:\n    tag_242:\n        /* \"contracts/BAY.sol\":3390:3397  members */\n      0x02\n        /* \"contracts/BAY.sol\":3390:3409  members[msg.sender] */\n      0x00\n        /* \"contracts/BAY.sol\":3398:3408  msg.sender */\n      caller\n        /* \"contracts/BAY.sol\":3390:3409  members[msg.sender] */\n      0xffffffffffffffffffffffffffffffffffffffff\n      and\n      0xffffffffffffffffffffffffffffffffffffffff\n      and\n      dup2\n      mstore\n      0x20\n      add\n      swap1\n      dup2\n      mstore\n      0x20\n      add\n      0x00\n      keccak256\n        /* \"contracts/BAY.sol\":3390:3420  members[msg.sender].attendance */\n      0x00\n      add\n      0x01\n      swap1\n      sload\n      swap1\n      0x0100\n      exp\n      swap1\n      div\n      0xff\n      and\n        /* \"contracts/BAY.sol\":3390:3447  members[msg.sender].attendance == AttendanceStatus.before */\n      0x03\n      dup2\n      gt\n      iszero\n      tag_244\n      jumpi\n      tag_245\n      tag_113\n      jump\t// in\n    tag_245:\n    tag_244:\n      eq\n        /* \"contracts/BAY.sol\":3382:3481  require(members[msg.sender].attendance == AttendanceStatus.before, \"Member has already checked in\") */\n      tag_246\n      jumpi\n      mload(0x40)\n      0x08c379a000000000000000000000000000000000000000000000000000000000\n      dup2\n      mstore\n      0x04\n      add\n      tag_247\n      swap1\n      tag_248\n      jump\t// in\n    tag_247:\n      mload(0x40)\n      dup1\n      swap2\n      sub\n      swap1\n      revert\n    tag_246:\n        /* \"contracts/BAY.sol\":3560:3569  5 minutes */\n      0x012c\n        /* \"contracts/BAY.sol\":3514:3525  sessionList */\n      0x03\n        /* \"contracts/BAY.sol\":3545:3546  1 */\n      0x01\n        /* \"contracts/BAY.sol\":3526:3537  sessionList */\n      0x03\n        /* \"contracts/BAY.sol\":3526:3544  sessionList.length */\n      dup1\n      sload\n      swap1\n      pop\n        /* \"contracts/BAY.sol\":3526:3546  sessionList.length-1 */\n      tag_249\n      swap2\n      swap1\n      tag_103\n      jump\t// in\n    tag_249:\n        /* \"contracts/BAY.sol\":3514:3547  sessionList[sessionList.length-1] */\n      dup2\n      sload\n      dup2\n      lt\n      tag_250\n      jumpi\n      tag_251\n      tag_106\n      jump\t// in\n    tag_251:\n    tag_250:\n      swap1\n      0x00\n      mstore\n      keccak256(0x00, 0x20)\n      swap1\n      0x02\n      mul\n      add\n        /* \"contracts/BAY.sol\":3514:3557  sessionList[sessionList.length-1].startTime */\n      0x00\n      add\n      sload\n        /* \"contracts/BAY.sol\":3514:3569  sessionList[sessionList.length-1].startTime + 5 minutes */\n      tag_253\n      swap2\n      swap1\n      tag_254\n      jump\t// in\n    tag_253:\n        /* \"contracts/BAY.sol\":3496:3511  block.timestamp */\n      timestamp\n        /* \"contracts/BAY.sol\":3496:3569  block.timestamp > sessionList[sessionList.length-1].startTime + 5 minutes */\n      gt\n        /* \"contracts/BAY.sol\":3492:3751  if (block.timestamp > sessionList[sessionList.length-1].startTime + 5 minutes) {... */\n      iszero\n      tag_255\n      jumpi\n        /* \"contracts/BAY.sol\":3619:3640  AttendanceStatus.late */\n      0x02\n        /* \"contracts/BAY.sol\":3586:3593  members */\n      dup1\n        /* \"contracts/BAY.sol\":3586:3605  members[msg.sender] */\n      0x00\n        /* \"contracts/BAY.sol\":3594:3604  msg.sender */\n      caller\n        /* \"contracts/BAY.sol\":3586:3605  members[msg.sender] */\n      0xffffffffffffffffffffffffffffffffffffffff\n      and\n      0xffffffffffffffffffffffffffffffffffffffff\n      and\n      dup2\n      mstore\n      0x20\n      add\n      swap1\n      dup2\n      mstore\n      0x20\n      add\n      0x00\n      keccak256\n        /* \"contracts/BAY.sol\":3586:3616  members[msg.sender].attendance */\n      0x00\n      add\n      0x01\n        /* \"contracts/BAY.sol\":3586:3640  members[msg.sender].attendance = AttendanceStatus.late */\n      0x0100\n      exp\n      dup2\n      sload\n      dup2\n      0xff\n      mul\n      not\n      and\n      swap1\n      dup4\n      0x03\n      dup2\n      gt\n      iszero\n      tag_256\n      jumpi\n      tag_257\n      tag_113\n      jump\t// in\n    tag_257:\n    tag_256:\n      mul\n      or\n      swap1\n      sstore\n      pop\n        /* \"contracts/BAY.sol\":3492:3751  if (block.timestamp > sessionList[sessionList.length-1].startTime + 5 minutes) {... */\n      jump(tag_258)\n    tag_255:\n        /* \"contracts/BAY.sol\":3715:3739  AttendanceStatus.present */\n      0x01\n        /* \"contracts/BAY.sol\":3682:3689  members */\n      0x02\n        /* \"contracts/BAY.sol\":3682:3701  members[msg.sender] */\n      0x00\n        /* \"contracts/BAY.sol\":3690:3700  msg.sender */\n      caller\n        /* \"contracts/BAY.sol\":3682:3701  members[msg.sender] */\n      0xffffffffffffffffffffffffffffffffffffffff\n      and\n      0xffffffffffffffffffffffffffffffffffffffff\n      and\n      dup2\n      mstore\n      0x20\n      add\n      swap1\n      dup2\n      mstore\n      0x20\n      add\n      0x00\n      keccak256\n        /* \"contracts/BAY.sol\":3682:3712  members[msg.sender].attendance */\n      0x00\n      add\n      0x01\n        /* \"contracts/BAY.sol\":3682:3739  members[msg.sender].attendance = AttendanceStatus.present */\n      0x0100\n      exp\n      dup2\n      sload\n      dup2\n      0xff\n      mul\n      not\n      and\n      swap1\n      dup4\n      0x03\n      dup2\n      gt\n      iszero\n      tag_259\n      jumpi\n      tag_260\n      tag_113\n      jump\t// in\n    tag_260:\n    tag_259:\n      mul\n      or\n      swap1\n      sstore\n      pop\n        /* \"contracts/BAY.sol\":3492:3751  if (block.timestamp > sessionList[sessionList.length-1].startTime + 5 minutes) {... */\n    tag_258:\n        /* \"contracts/BAY.sol\":3786:3796  msg.sender */\n      caller\n        /* \"contracts/BAY.sol\":3766:3797  MemberJoinedSession(msg.sender) */\n      0xffffffffffffffffffffffffffffffffffffffff\n      and\n      0xca65439c87d5a81e31812d288fcab5f037079522670063c49e3617fbf4b929b4\n      mload(0x40)\n      mload(0x40)\n      dup1\n      swap2\n      sub\n      swap1\n      log2\n        /* \"contracts/BAY.sol\":3225:3805  function joinSession() public isMember(msg.sender) sessionRunning {... */\n      pop\n      jump\t// out\n        /* \"contracts/BAY.sol\":1955:2244  function checkMember(address _address) public view {... */\n    tag_66:\n        /* \"contracts/BAY.sol\":2017:2028  bool isMemb */\n      0x00\n        /* \"contracts/BAY.sol\":2052:2058  uint i */\n      dup1\n        /* \"contracts/BAY.sol\":2047:2211  for (uint i = 0; i < memberAddressList.length; i++) {... */\n    tag_262:\n        /* \"contracts/BAY.sol\":2068:2085  memberAddressList */\n      0x01\n        /* \"contracts/BAY.sol\":2068:2092  memberAddressList.length */\n      dup1\n      sload\n      swap1\n      pop\n        /* \"contracts/BAY.sol\":2064:2065  i */\n      dup2\n        /* \"contracts/BAY.sol\":2064:2092  i < memberAddressList.length */\n      lt\n        /* \"contracts/BAY.sol\":2047:2211  for (uint i = 0; i < memberAddressList.length; i++) {... */\n      iszero\n      tag_263\n      jumpi\n        /* \"contracts/BAY.sol\":2142:2150  _address */\n      dup3\n        /* \"contracts/BAY.sol\":2118:2150  memberAddressList[i] == _address */\n      0xffffffffffffffffffffffffffffffffffffffff\n      and\n        /* \"contracts/BAY.sol\":2118:2135  memberAddressList */\n      0x01\n        /* \"contracts/BAY.sol\":2136:2137  i */\n      dup3\n        /* \"contracts/BAY.sol\":2118:2138  memberAddressList[i] */\n      dup2\n      sload\n      dup2\n      lt\n      tag_265\n      jumpi\n      tag_266\n      tag_106\n      jump\t// in\n    tag_266:\n    tag_265:\n      swap1\n      0x00\n      mstore\n      keccak256(0x00, 0x20)\n      add\n      0x00\n      swap1\n      sload\n      swap1\n      0x0100\n      exp\n      swap1\n      div\n      0xffffffffffffffffffffffffffffffffffffffff\n      and\n        /* \"contracts/BAY.sol\":2118:2150  memberAddressList[i] == _address */\n      0xffffffffffffffffffffffffffffffffffffffff\n      and\n      sub\n        /* \"contracts/BAY.sol\":2114:2200  if (memberAddressList[i] == _address) {... */\n      tag_268\n      jumpi\n        /* \"contracts/BAY.sol\":2180:2184  true */\n      0x01\n        /* \"contracts/BAY.sol\":2171:2184  isMemb = true */\n      swap2\n      pop\n        /* \"contracts/BAY.sol\":2114:2200  if (memberAddressList[i] == _address) {... */\n    tag_268:\n        /* \"contracts/BAY.sol\":2094:2097  i++ */\n      dup1\n      dup1\n      tag_269\n      swap1\n      tag_130\n      jump\t// in\n    tag_269:\n      swap2\n      pop\n      pop\n        /* \"contracts/BAY.sol\":2047:2211  for (uint i = 0; i < memberAddressList.length; i++) {... */\n      jump(tag_262)\n    tag_263:\n      pop\n        /* \"contracts/BAY.sol\":2229:2235  isMemb */\n      dup1\n        /* \"contracts/BAY.sol\":2221:2236  require(isMemb) */\n      tag_270\n      jumpi\n      0x00\n      dup1\n      revert\n    tag_270:\n        /* \"contracts/BAY.sol\":2006:2244  {... */\n      pop\n        /* \"contracts/BAY.sol\":1955:2244  function checkMember(address _address) public view {... */\n      pop\n      jump\t// out\n        /* \"contracts/BAY.sol\":834:1018  function changePresident(address _newPresident) public onlyOwner {... */\n    tag_69:\n        /* \"@openzeppelin/contracts/access/Ownable.sol\":1094:1107  _checkOwner() */\n      tag_272\n        /* \"@openzeppelin/contracts/access/Ownable.sol\":1094:1105  _checkOwner */\n      tag_95\n        /* \"@openzeppelin/contracts/access/Ownable.sol\":1094:1107  _checkOwner() */\n      jump\t// in\n    tag_272:\n        /* \"contracts/BAY.sol\":929:942  _newPresident */\n      dup1\n        /* \"contracts/BAY.sol\":918:942  owner() != _newPresident */\n      0xffffffffffffffffffffffffffffffffffffffff\n      and\n        /* \"contracts/BAY.sol\":918:925  owner() */\n      tag_274\n        /* \"contracts/BAY.sol\":918:923  owner */\n      tag_60\n        /* \"contracts/BAY.sol\":918:925  owner() */\n      jump\t// in\n    tag_274:\n        /* \"contracts/BAY.sol\":918:942  owner() != _newPresident */\n      0xffffffffffffffffffffffffffffffffffffffff\n      and\n      sub\n        /* \"contracts/BAY.sol\":910:967  require(owner() != _newPresident, \"Already is president\") */\n      tag_275\n      jumpi\n      mload(0x40)\n      0x08c379a000000000000000000000000000000000000000000000000000000000\n      dup2\n      mstore\n      0x04\n      add\n      tag_276\n      swap1\n      tag_277\n      jump\t// in\n    tag_276:\n      mload(0x40)\n      dup1\n      swap2\n      sub\n      swap1\n      revert\n    tag_275:\n        /* \"contracts/BAY.sol\":978:1010  transferOwnership(_newPresident) */\n      tag_278\n        /* \"contracts/BAY.sol\":996:1009  _newPresident */\n      dup2\n        /* \"contracts/BAY.sol\":978:995  transferOwnership */\n      tag_87\n        /* \"contracts/BAY.sol\":978:1010  transferOwnership(_newPresident) */\n      jump\t// in\n    tag_278:\n        /* \"contracts/BAY.sol\":834:1018  function changePresident(address _newPresident) public onlyOwner {... */\n      pop\n      jump\t// out\n        /* \"contracts/BAY.sol\":3813:4022  function sessionIsRunning() public view returns(bool) {... */\n    tag_71:\n        /* \"contracts/BAY.sol\":3861:3865  bool */\n      0x00\n        /* \"contracts/BAY.sol\":3904:3905  0 */\n      dup1\n        /* \"contracts/BAY.sol\":3882:3893  sessionList */\n      0x03\n        /* \"contracts/BAY.sol\":3882:3900  sessionList.length */\n      dup1\n      sload\n      swap1\n      pop\n        /* \"contracts/BAY.sol\":3882:3905  sessionList.length == 0 */\n      sub\n        /* \"contracts/BAY.sol\":3878:3946  if (sessionList.length == 0) {... */\n      tag_280\n      jumpi\n        /* \"contracts/BAY.sol\":3929:3934  false */\n      0x00\n        /* \"contracts/BAY.sol\":3922:3934  return false */\n      swap1\n      pop\n      jump(tag_279)\n        /* \"contracts/BAY.sol\":3878:3946  if (sessionList.length == 0) {... */\n    tag_280:\n        /* \"contracts/BAY.sol\":4012:4013  0 */\n      0x00\n        /* \"contracts/BAY.sol\":3964:3975  sessionList */\n      0x03\n        /* \"contracts/BAY.sol\":3995:3996  1 */\n      0x01\n        /* \"contracts/BAY.sol\":3976:3987  sessionList */\n      0x03\n        /* \"contracts/BAY.sol\":3976:3994  sessionList.length */\n      dup1\n      sload\n      swap1\n      pop\n        /* \"contracts/BAY.sol\":3976:3996  sessionList.length-1 */\n      tag_281\n      swap2\n      swap1\n      tag_103\n      jump\t// in\n    tag_281:\n        /* \"contracts/BAY.sol\":3964:3997  sessionList[sessionList.length-1] */\n      dup2\n      sload\n      dup2\n      lt\n      tag_282\n      jumpi\n      tag_283\n      tag_106\n      jump\t// in\n    tag_283:\n    tag_282:\n      swap1\n      0x00\n      mstore\n      keccak256(0x00, 0x20)\n      swap1\n      0x02\n      mul\n      add\n        /* \"contracts/BAY.sol\":3964:4008  sessionList[sessionList.length-1].closedTime */\n      0x01\n      add\n      sload\n        /* \"contracts/BAY.sol\":3964:4013  sessionList[sessionList.length-1].closedTime == 0 */\n      eq\n        /* \"contracts/BAY.sol\":3956:4014  return (sessionList[sessionList.length-1].closedTime == 0) */\n      swap1\n      pop\n        /* \"contracts/BAY.sol\":3813:4022  function sessionIsRunning() public view returns(bool) {... */\n    tag_279:\n      swap1\n      jump\t// out\n        /* \"contracts/BAY.sol\":4485:4599  function getmemberAddressList() public view returns (address[] memory) {... */\n    tag_75:\n        /* \"contracts/BAY.sol\":4538:4554  address[] memory */\n      0x60\n        /* \"contracts/BAY.sol\":4574:4591  memberAddressList */\n      0x01\n        /* \"contracts/BAY.sol\":4567:4591  return memberAddressList */\n      dup1\n      sload\n      dup1\n      0x20\n      mul\n      0x20\n      add\n      mload(0x40)\n      swap1\n      dup2\n      add\n      0x40\n      mstore\n      dup1\n      swap3\n      swap2\n      swap1\n      dup2\n      dup2\n      mstore\n      0x20\n      add\n      dup3\n      dup1\n      sload\n      dup1\n      iszero\n      tag_286\n      jumpi\n      0x20\n      mul\n      dup3\n      add\n      swap2\n      swap1\n      0x00\n      mstore\n      keccak256(0x00, 0x20)\n      swap1\n    tag_287:\n      dup2\n      0x00\n      swap1\n      sload\n      swap1\n      0x0100\n      exp\n      swap1\n      div\n      0xffffffffffffffffffffffffffffffffffffffff\n      and\n      0xffffffffffffffffffffffffffffffffffffffff\n      and\n      dup2\n      mstore\n      0x20\n      add\n      swap1\n      0x01\n      add\n      swap1\n      dup1\n      dup4\n      gt\n      tag_287\n      jumpi\n    tag_286:\n      pop\n      pop\n      pop\n      pop\n      pop\n      swap1\n      pop\n        /* \"contracts/BAY.sol\":4485:4599  function getmemberAddressList() public view returns (address[] memory) {... */\n      swap1\n      jump\t// out\n        /* \"contracts/BAY.sol\":1376:1851  function updateAttendanceCount(address _member) public onlyOwner {... */\n    tag_79:\n        /* \"@openzeppelin/contracts/access/Ownable.sol\":1094:1107  _checkOwner() */\n      tag_289\n        /* \"@openzeppelin/contracts/access/Ownable.sol\":1094:1105  _checkOwner */\n      tag_95\n        /* \"@openzeppelin/contracts/access/Ownable.sol\":1094:1107  _checkOwner() */\n      jump\t// in\n    tag_289:\n        /* \"contracts/BAY.sol\":1491:1514  AttendanceStatus.before */\n      0x00\n        /* \"contracts/BAY.sol\":1460:1514  members[_member].attendance != AttendanceStatus.before */\n      0x03\n      dup2\n      gt\n      iszero\n      tag_291\n      jumpi\n      tag_292\n      tag_113\n      jump\t// in\n    tag_292:\n    tag_291:\n        /* \"contracts/BAY.sol\":1460:1467  members */\n      0x02\n        /* \"contracts/BAY.sol\":1460:1476  members[_member] */\n      0x00\n        /* \"contracts/BAY.sol\":1468:1475  _member */\n      dup4\n        /* \"contracts/BAY.sol\":1460:1476  members[_member] */\n      0xffffffffffffffffffffffffffffffffffffffff\n      and\n      0xffffffffffffffffffffffffffffffffffffffff\n      and\n      dup2\n      mstore\n      0x20\n      add\n      swap1\n      dup2\n      mstore\n      0x20\n      add\n      0x00\n      keccak256\n        /* \"contracts/BAY.sol\":1460:1487  members[_member].attendance */\n      0x00\n      add\n      0x01\n      swap1\n      sload\n      swap1\n      0x0100\n      exp\n      swap1\n      div\n      0xff\n      and\n        /* \"contracts/BAY.sol\":1460:1514  members[_member].attendance != AttendanceStatus.before */\n      0x03\n      dup2\n      gt\n      iszero\n      tag_293\n      jumpi\n      tag_294\n      tag_113\n      jump\t// in\n    tag_294:\n    tag_293:\n      sub\n        /* \"contracts/BAY.sol\":1452:1515  require(members[_member].attendance != AttendanceStatus.before) */\n      tag_295\n      jumpi\n      0x00\n      dup1\n      revert\n    tag_295:\n        /* \"contracts/BAY.sol\":1561:1582  AttendanceStatus.late */\n      0x02\n        /* \"contracts/BAY.sol\":1530:1582  members[_member].attendance == AttendanceStatus.late */\n      0x03\n      dup2\n      gt\n      iszero\n      tag_296\n      jumpi\n      tag_297\n      tag_113\n      jump\t// in\n    tag_297:\n    tag_296:\n        /* \"contracts/BAY.sol\":1530:1537  members */\n      0x02\n        /* \"contracts/BAY.sol\":1530:1546  members[_member] */\n      0x00\n        /* \"contracts/BAY.sol\":1538:1545  _member */\n      dup4\n        /* \"contracts/BAY.sol\":1530:1546  members[_member] */\n      0xffffffffffffffffffffffffffffffffffffffff\n      and\n      0xffffffffffffffffffffffffffffffffffffffff\n      and\n      dup2\n      mstore\n      0x20\n      add\n      swap1\n      dup2\n      mstore\n      0x20\n      add\n      0x00\n      keccak256\n        /* \"contracts/BAY.sol\":1530:1557  members[_member].attendance */\n      0x00\n      add\n      0x01\n      swap1\n      sload\n      swap1\n      0x0100\n      exp\n      swap1\n      div\n      0xff\n      and\n        /* \"contracts/BAY.sol\":1530:1582  members[_member].attendance == AttendanceStatus.late */\n      0x03\n      dup2\n      gt\n      iszero\n      tag_298\n      jumpi\n      tag_299\n      tag_113\n      jump\t// in\n    tag_299:\n    tag_298:\n      sub\n        /* \"contracts/BAY.sol\":1526:1844  if (members[_member].attendance == AttendanceStatus.late) {... */\n      tag_300\n      jumpi\n        /* \"contracts/BAY.sol\":1599:1606  members */\n      0x02\n        /* \"contracts/BAY.sol\":1599:1615  members[_member] */\n      0x00\n        /* \"contracts/BAY.sol\":1607:1614  _member */\n      dup3\n        /* \"contracts/BAY.sol\":1599:1615  members[_member] */\n      0xffffffffffffffffffffffffffffffffffffffff\n      and\n      0xffffffffffffffffffffffffffffffffffffffff\n      and\n      dup2\n      mstore\n      0x20\n      add\n      swap1\n      dup2\n      mstore\n      0x20\n      add\n      0x00\n      keccak256\n        /* \"contracts/BAY.sol\":1599:1625  members[_member].lateCount */\n      0x00\n      add\n      0x04\n        /* \"contracts/BAY.sol\":1599:1627  members[_member].lateCount++ */\n      dup2\n      dup2\n      swap1\n      sload\n      swap1\n      0x0100\n      exp\n      swap1\n      div\n      0xffff\n      and\n      dup1\n      swap3\n      swap2\n      swap1\n      tag_301\n      swap1\n      tag_302\n      jump\t// in\n    tag_301:\n      swap2\n      swap1\n      0x0100\n      exp\n      dup2\n      sload\n      dup2\n      0xffff\n      mul\n      not\n      and\n      swap1\n      dup4\n      0xffff\n      and\n      mul\n      or\n      swap1\n      sstore\n      pop\n      pop\n        /* \"contracts/BAY.sol\":1526:1844  if (members[_member].attendance == AttendanceStatus.late) {... */\n      jump(tag_303)\n    tag_300:\n        /* \"contracts/BAY.sol\":1689:1712  AttendanceStatus.absent */\n      0x03\n        /* \"contracts/BAY.sol\":1658:1712  members[_member].attendance == AttendanceStatus.absent */\n      dup1\n      dup2\n      gt\n      iszero\n      tag_304\n      jumpi\n      tag_305\n      tag_113\n      jump\t// in\n    tag_305:\n    tag_304:\n        /* \"contracts/BAY.sol\":1658:1665  members */\n      0x02\n        /* \"contracts/BAY.sol\":1658:1674  members[_member] */\n      0x00\n        /* \"contracts/BAY.sol\":1666:1673  _member */\n      dup4\n        /* \"contracts/BAY.sol\":1658:1674  members[_member] */\n      0xffffffffffffffffffffffffffffffffffffffff\n      and\n      0xffffffffffffffffffffffffffffffffffffffff\n      and\n      dup2\n      mstore\n      0x20\n      add\n      swap1\n      dup2\n      mstore\n      0x20\n      add\n      0x00\n      keccak256\n        /* \"contracts/BAY.sol\":1658:1685  members[_member].attendance */\n      0x00\n      add\n      0x01\n      swap1\n      sload\n      swap1\n      0x0100\n      exp\n      swap1\n      div\n      0xff\n      and\n        /* \"contracts/BAY.sol\":1658:1712  members[_member].attendance == AttendanceStatus.absent */\n      0x03\n      dup2\n      gt\n      iszero\n      tag_306\n      jumpi\n      tag_307\n      tag_113\n      jump\t// in\n    tag_307:\n    tag_306:\n      sub\n        /* \"contracts/BAY.sol\":1654:1844  if (members[_member].attendance == AttendanceStatus.absent) {... */\n      tag_308\n      jumpi\n        /* \"contracts/BAY.sol\":1729:1736  members */\n      0x02\n        /* \"contracts/BAY.sol\":1729:1745  members[_member] */\n      0x00\n        /* \"contracts/BAY.sol\":1737:1744  _member */\n      dup3\n        /* \"contracts/BAY.sol\":1729:1745  members[_member] */\n      0xffffffffffffffffffffffffffffffffffffffff\n      and\n      0xffffffffffffffffffffffffffffffffffffffff\n      and\n      dup2\n      mstore\n      0x20\n      add\n      swap1\n      dup2\n      mstore\n      0x20\n      add\n      0x00\n      keccak256\n        /* \"contracts/BAY.sol\":1729:1757  members[_member].absentCount */\n      0x00\n      add\n      0x06\n        /* \"contracts/BAY.sol\":1729:1759  members[_member].absentCount++ */\n      dup2\n      dup2\n      swap1\n      sload\n      swap1\n      0x0100\n      exp\n      swap1\n      div\n      0xffff\n      and\n      dup1\n      swap3\n      swap2\n      swap1\n      tag_309\n      swap1\n      tag_302\n      jump\t// in\n    tag_309:\n      swap2\n      swap1\n      0x0100\n      exp\n      dup2\n      sload\n      dup2\n      0xffff\n      mul\n      not\n      and\n      swap1\n      dup4\n      0xffff\n      and\n      mul\n      or\n      swap1\n      sstore\n      pop\n      pop\n        /* \"contracts/BAY.sol\":1654:1844  if (members[_member].attendance == AttendanceStatus.absent) {... */\n      jump(tag_310)\n    tag_308:\n        /* \"contracts/BAY.sol\":1801:1808  members */\n      0x02\n        /* \"contracts/BAY.sol\":1801:1817  members[_member] */\n      0x00\n        /* \"contracts/BAY.sol\":1809:1816  _member */\n      dup3\n        /* \"contracts/BAY.sol\":1801:1817  members[_member] */\n      0xffffffffffffffffffffffffffffffffffffffff\n      and\n      0xffffffffffffffffffffffffffffffffffffffff\n      and\n      dup2\n      mstore\n      0x20\n      add\n      swap1\n      dup2\n      mstore\n      0x20\n      add\n      0x00\n      keccak256\n        /* \"contracts/BAY.sol\":1801:1830  members[_member].presentCount */\n      0x00\n      add\n      0x02\n        /* \"contracts/BAY.sol\":1801:1832  members[_member].presentCount++ */\n      dup2\n      dup2\n      swap1\n      sload\n      swap1\n      0x0100\n      exp\n      swap1\n      div\n      0xffff\n      and\n      dup1\n      swap3\n      swap2\n      swap1\n      tag_311\n      swap1\n      tag_302\n      jump\t// in\n    tag_311:\n      swap2\n      swap1\n      0x0100\n      exp\n      dup2\n      sload\n      dup2\n      0xffff\n      mul\n      not\n      and\n      swap1\n      dup4\n      0xffff\n      and\n      mul\n      or\n      swap1\n      sstore\n      pop\n      pop\n        /* \"contracts/BAY.sol\":1654:1844  if (members[_member].attendance == AttendanceStatus.absent) {... */\n    tag_310:\n        /* \"contracts/BAY.sol\":1526:1844  if (members[_member].attendance == AttendanceStatus.late) {... */\n    tag_303:\n        /* \"contracts/BAY.sol\":1376:1851  function updateAttendanceCount(address _member) public onlyOwner {... */\n      pop\n      jump\t// out\n        /* \"contracts/BAY.sol\":4607:5324  function getPresentMembers() public view returns (address[] memory) {... */\n    tag_81:\n        /* \"contracts/BAY.sol\":4657:4673  address[] memory */\n      0x60\n        /* \"contracts/BAY.sol\":4686:4703  uint presentCount */\n      0x00\n        /* \"contracts/BAY.sol\":4723:4729  uint i */\n      dup1\n        /* \"contracts/BAY.sol\":4718:4919  for (uint i = 0; i < memberAddressList.length; i++) {... */\n    tag_313:\n        /* \"contracts/BAY.sol\":4739:4756  memberAddressList */\n      0x01\n        /* \"contracts/BAY.sol\":4739:4763  memberAddressList.length */\n      dup1\n      sload\n      swap1\n      pop\n        /* \"contracts/BAY.sol\":4735:4736  i */\n      dup2\n        /* \"contracts/BAY.sol\":4735:4763  i < memberAddressList.length */\n      lt\n        /* \"contracts/BAY.sol\":4718:4919  for (uint i = 0; i < memberAddressList.length; i++) {... */\n      iszero\n      tag_314\n      jumpi\n        /* \"contracts/BAY.sol\":4833:4857  AttendanceStatus.present */\n      0x01\n        /* \"contracts/BAY.sol\":4789:4857  members[memberAddressList[i]].attendance == AttendanceStatus.present */\n      0x03\n      dup2\n      gt\n      iszero\n      tag_316\n      jumpi\n      tag_317\n      tag_113\n      jump\t// in\n    tag_317:\n    tag_316:\n        /* \"contracts/BAY.sol\":4789:4796  members */\n      0x02\n        /* \"contracts/BAY.sol\":4789:4818  members[memberAddressList[i]] */\n      0x00\n        /* \"contracts/BAY.sol\":4797:4814  memberAddressList */\n      0x01\n        /* \"contracts/BAY.sol\":4815:4816  i */\n      dup5\n        /* \"contracts/BAY.sol\":4797:4817  memberAddressList[i] */\n      dup2\n      sload\n      dup2\n      lt\n      tag_318\n      jumpi\n      tag_319\n      tag_106\n      jump\t// in\n    tag_319:\n    tag_318:\n      swap1\n      0x00\n      mstore\n      keccak256(0x00, 0x20)\n      add\n      0x00\n      swap1\n      sload\n      swap1\n      0x0100\n      exp\n      swap1\n      div\n      0xffffffffffffffffffffffffffffffffffffffff\n      and\n        /* \"contracts/BAY.sol\":4789:4818  members[memberAddressList[i]] */\n      0xffffffffffffffffffffffffffffffffffffffff\n      and\n      0xffffffffffffffffffffffffffffffffffffffff\n      and\n      dup2\n      mstore\n      0x20\n      add\n      swap1\n      dup2\n      mstore\n      0x20\n      add\n      0x00\n      keccak256\n        /* \"contracts/BAY.sol\":4789:4829  members[memberAddressList[i]].attendance */\n      0x00\n      add\n      0x01\n      swap1\n      sload\n      swap1\n      0x0100\n      exp\n      swap1\n      div\n      0xff\n      and\n        /* \"contracts/BAY.sol\":4789:4857  members[memberAddressList[i]].attendance == AttendanceStatus.present */\n      0x03\n      dup2\n      gt\n      iszero\n      tag_321\n      jumpi\n      tag_322\n      tag_113\n      jump\t// in\n    tag_322:\n    tag_321:\n      sub\n        /* \"contracts/BAY.sol\":4785:4908  if (members[memberAddressList[i]].attendance == AttendanceStatus.present) {... */\n      tag_323\n      jumpi\n        /* \"contracts/BAY.sol\":4878:4892  presentCount++ */\n      dup2\n      dup1\n      tag_324\n      swap1\n      tag_130\n      jump\t// in\n    tag_324:\n      swap3\n      pop\n      pop\n        /* \"contracts/BAY.sol\":4785:4908  if (members[memberAddressList[i]].attendance == AttendanceStatus.present) {... */\n    tag_323:\n        /* \"contracts/BAY.sol\":4765:4768  i++ */\n      dup1\n      dup1\n      tag_325\n      swap1\n      tag_130\n      jump\t// in\n    tag_325:\n      swap2\n      pop\n      pop\n        /* \"contracts/BAY.sol\":4718:4919  for (uint i = 0; i < memberAddressList.length; i++) {... */\n      jump(tag_313)\n    tag_314:\n      pop\n        /* \"contracts/BAY.sol\":4931:4962  address[] memory presentMembers */\n      0x00\n        /* \"contracts/BAY.sol\":4979:4991  presentCount */\n      dup2\n        /* \"contracts/BAY.sol\":4965:4992  new address[](presentCount) */\n      0xffffffffffffffff\n      dup2\n      gt\n      iszero\n      tag_326\n      jumpi\n      tag_327\n      tag_147\n      jump\t// in\n    tag_327:\n    tag_326:\n      mload(0x40)\n      swap1\n      dup1\n      dup3\n      mstore\n      dup1\n      0x20\n      mul\n      0x20\n      add\n      dup3\n      add\n      0x40\n      mstore\n      dup1\n      iszero\n      tag_328\n      jumpi\n      dup2\n      0x20\n      add\n      0x20\n      dup3\n      mul\n      dup1\n      calldatasize\n      dup4\n      calldatacopy\n      dup1\n      dup3\n      add\n      swap2\n      pop\n      pop\n      swap1\n      pop\n    tag_328:\n      pop\n        /* \"contracts/BAY.sol\":4931:4992  address[] memory presentMembers = new address[](presentCount) */\n      swap1\n      pop\n        /* \"contracts/BAY.sol\":5003:5013  uint index */\n      0x00\n        /* \"contracts/BAY.sol\":5033:5039  uint i */\n      dup1\n        /* \"contracts/BAY.sol\":5028:5285  for (uint i = 0; i < memberAddressList.length; i++) {... */\n    tag_329:\n        /* \"contracts/BAY.sol\":5049:5066  memberAddressList */\n      0x01\n        /* \"contracts/BAY.sol\":5049:5073  memberAddressList.length */\n      dup1\n      sload\n      swap1\n      pop\n        /* \"contracts/BAY.sol\":5045:5046  i */\n      dup2\n        /* \"contracts/BAY.sol\":5045:5073  i < memberAddressList.length */\n      lt\n        /* \"contracts/BAY.sol\":5028:5285  for (uint i = 0; i < memberAddressList.length; i++) {... */\n      iszero\n      tag_330\n      jumpi\n        /* \"contracts/BAY.sol\":5143:5167  AttendanceStatus.present */\n      0x01\n        /* \"contracts/BAY.sol\":5099:5167  members[memberAddressList[i]].attendance == AttendanceStatus.present */\n      0x03\n      dup2\n      gt\n      iszero\n      tag_332\n      jumpi\n      tag_333\n      tag_113\n      jump\t// in\n    tag_333:\n    tag_332:\n        /* \"contracts/BAY.sol\":5099:5106  members */\n      0x02\n        /* \"contracts/BAY.sol\":5099:5128  members[memberAddressList[i]] */\n      0x00\n        /* \"contracts/BAY.sol\":5107:5124  memberAddressList */\n      0x01\n        /* \"contracts/BAY.sol\":5125:5126  i */\n      dup5\n        /* \"contracts/BAY.sol\":5107:5127  memberAddressList[i] */\n      dup2\n      sload\n      dup2\n      lt\n      tag_334\n      jumpi\n      tag_335\n      tag_106\n      jump\t// in\n    tag_335:\n    tag_334:\n      swap1\n      0x00\n      mstore\n      keccak256(0x00, 0x20)\n      add\n      0x00\n      swap1\n      sload\n      swap1\n      0x0100\n      exp\n      swap1\n      div\n      0xffffffffffffffffffffffffffffffffffffffff\n      and\n        /* \"contracts/BAY.sol\":5099:5128  members[memberAddressList[i]] */\n      0xffffffffffffffffffffffffffffffffffffffff\n      and\n      0xffffffffffffffffffffffffffffffffffffffff\n      and\n      dup2\n      mstore\n      0x20\n      add\n      swap1\n      dup2\n      mstore\n      0x20\n      add\n      0x00\n      keccak256\n        /* \"contracts/BAY.sol\":5099:5139  members[memberAddressList[i]].attendance */\n      0x00\n      add\n      0x01\n      swap1\n      sload\n      swap1\n      0x0100\n      exp\n      swap1\n      div\n      0xff\n      and\n        /* \"contracts/BAY.sol\":5099:5167  members[memberAddressList[i]].attendance == AttendanceStatus.present */\n      0x03\n      dup2\n      gt\n      iszero\n      tag_337\n      jumpi\n      tag_338\n      tag_113\n      jump\t// in\n    tag_338:\n    tag_337:\n      sub\n        /* \"contracts/BAY.sol\":5095:5274  if (members[memberAddressList[i]].attendance == AttendanceStatus.present) {... */\n      tag_339\n      jumpi\n        /* \"contracts/BAY.sol\":5212:5229  memberAddressList */\n      0x01\n        /* \"contracts/BAY.sol\":5230:5231  i */\n      dup2\n        /* \"contracts/BAY.sol\":5212:5232  memberAddressList[i] */\n      dup2\n      sload\n      dup2\n      lt\n      tag_340\n      jumpi\n      tag_341\n      tag_106\n      jump\t// in\n    tag_341:\n    tag_340:\n      swap1\n      0x00\n      mstore\n      keccak256(0x00, 0x20)\n      add\n      0x00\n      swap1\n      sload\n      swap1\n      0x0100\n      exp\n      swap1\n      div\n      0xffffffffffffffffffffffffffffffffffffffff\n      and\n        /* \"contracts/BAY.sol\":5188:5202  presentMembers */\n      dup4\n        /* \"contracts/BAY.sol\":5203:5208  index */\n      dup4\n        /* \"contracts/BAY.sol\":5188:5209  presentMembers[index] */\n      dup2\n      mload\n      dup2\n      lt\n      tag_343\n      jumpi\n      tag_344\n      tag_106\n      jump\t// in\n    tag_344:\n    tag_343:\n      0x20\n      mul\n      0x20\n      add\n      add\n        /* \"contracts/BAY.sol\":5188:5232  presentMembers[index] = memberAddressList[i] */\n      swap1\n      0xffffffffffffffffffffffffffffffffffffffff\n      and\n      swap1\n      dup2\n      0xffffffffffffffffffffffffffffffffffffffff\n      and\n      dup2\n      mstore\n      pop\n      pop\n        /* \"contracts/BAY.sol\":5251:5258  index++ */\n      dup2\n      dup1\n      tag_345\n      swap1\n      tag_130\n      jump\t// in\n    tag_345:\n      swap3\n      pop\n      pop\n        /* \"contracts/BAY.sol\":5095:5274  if (members[memberAddressList[i]].attendance == AttendanceStatus.present) {... */\n    tag_339:\n        /* \"contracts/BAY.sol\":5075:5078  i++ */\n      dup1\n      dup1\n      tag_346\n      swap1\n      tag_130\n      jump\t// in\n    tag_346:\n      swap2\n      pop\n      pop\n        /* \"contracts/BAY.sol\":5028:5285  for (uint i = 0; i < memberAddressList.length; i++) {... */\n      jump(tag_329)\n    tag_330:\n      pop\n        /* \"contracts/BAY.sol\":5302:5316  presentMembers */\n      dup2\n        /* \"contracts/BAY.sol\":5295:5316  return presentMembers */\n      swap4\n      pop\n      pop\n      pop\n      pop\n        /* \"contracts/BAY.sol\":4607:5324  function getPresentMembers() public view returns (address[] memory) {... */\n      swap1\n      jump\t// out\n        /* \"contracts/BAY.sol\":2954:3217  function initAttendance() public onlyOwner sessionNotRunning {... */\n    tag_84:\n        /* \"@openzeppelin/contracts/access/Ownable.sol\":1094:1107  _checkOwner() */\n      tag_348\n        /* \"@openzeppelin/contracts/access/Ownable.sol\":1094:1105  _checkOwner */\n      tag_95\n        /* \"@openzeppelin/contracts/access/Ownable.sol\":1094:1107  _checkOwner() */\n      jump\t// in\n    tag_348:\n        /* \"contracts/BAY.sol\":4196:4214  sessionIsRunning() */\n      tag_350\n        /* \"contracts/BAY.sol\":4196:4212  sessionIsRunning */\n      tag_71\n        /* \"contracts/BAY.sol\":4196:4214  sessionIsRunning() */\n      jump\t// in\n    tag_350:\n        /* \"contracts/BAY.sol\":4195:4214  !sessionIsRunning() */\n      iszero\n        /* \"contracts/BAY.sol\":4187:4241  require(!sessionIsRunning(), \"Session is now running\") */\n      tag_351\n      jumpi\n      mload(0x40)\n      0x08c379a000000000000000000000000000000000000000000000000000000000\n      dup2\n      mstore\n      0x04\n      add\n      tag_352\n      swap1\n      tag_173\n      jump\t// in\n    tag_352:\n      mload(0x40)\n      dup1\n      swap2\n      sub\n      swap1\n      revert\n    tag_351:\n        /* \"contracts/BAY.sol\":3031:3037  uint i */\n      0x00\n        /* \"contracts/BAY.sol\":3026:3171  for (uint i = 0; i < memberAddressList.length; i++) {... */\n    tag_354:\n        /* \"contracts/BAY.sol\":3047:3064  memberAddressList */\n      0x01\n        /* \"contracts/BAY.sol\":3047:3071  memberAddressList.length */\n      dup1\n      sload\n      swap1\n      pop\n        /* \"contracts/BAY.sol\":3043:3044  i */\n      dup2\n        /* \"contracts/BAY.sol\":3043:3071  i < memberAddressList.length */\n      lt\n        /* \"contracts/BAY.sol\":3026:3171  for (uint i = 0; i < memberAddressList.length; i++) {... */\n      iszero\n      tag_355\n      jumpi\n        /* \"contracts/BAY.sol\":3136:3159  AttendanceStatus.before */\n      0x00\n        /* \"contracts/BAY.sol\":3093:3100  members */\n      0x02\n        /* \"contracts/BAY.sol\":3093:3122  members[memberAddressList[i]] */\n      0x00\n        /* \"contracts/BAY.sol\":3101:3118  memberAddressList */\n      0x01\n        /* \"contracts/BAY.sol\":3119:3120  i */\n      dup5\n        /* \"contracts/BAY.sol\":3101:3121  memberAddressList[i] */\n      dup2\n      sload\n      dup2\n      lt\n      tag_357\n      jumpi\n      tag_358\n      tag_106\n      jump\t// in\n    tag_358:\n    tag_357:\n      swap1\n      0x00\n      mstore\n      keccak256(0x00, 0x20)\n      add\n      0x00\n      swap1\n      sload\n      swap1\n      0x0100\n      exp\n      swap1\n      div\n      0xffffffffffffffffffffffffffffffffffffffff\n      and\n        /* \"contracts/BAY.sol\":3093:3122  members[memberAddressList[i]] */\n      0xffffffffffffffffffffffffffffffffffffffff\n      and\n      0xffffffffffffffffffffffffffffffffffffffff\n      and\n      dup2\n      mstore\n      0x20\n      add\n      swap1\n      dup2\n      mstore\n      0x20\n      add\n      0x00\n      keccak256\n        /* \"contracts/BAY.sol\":3093:3133  members[memberAddressList[i]].attendance */\n      0x00\n      add\n      0x01\n        /* \"contracts/BAY.sol\":3093:3159  members[memberAddressList[i]].attendance = AttendanceStatus.before */\n      0x0100\n      exp\n      dup2\n      sload\n      dup2\n      0xff\n      mul\n      not\n      and\n      swap1\n      dup4\n      0x03\n      dup2\n      gt\n      iszero\n      tag_360\n      jumpi\n      tag_361\n      tag_113\n      jump\t// in\n    tag_361:\n    tag_360:\n      mul\n      or\n      swap1\n      sstore\n      pop\n        /* \"contracts/BAY.sol\":3073:3076  i++ */\n      dup1\n      dup1\n      tag_362\n      swap1\n      tag_130\n      jump\t// in\n    tag_362:\n      swap2\n      pop\n      pop\n        /* \"contracts/BAY.sol\":3026:3171  for (uint i = 0; i < memberAddressList.length; i++) {... */\n      jump(tag_354)\n    tag_355:\n      pop\n        /* \"contracts/BAY.sol\":3205:3209  true */\n      0x01\n        /* \"contracts/BAY.sol\":3181:3202  attendanceInitialized */\n      0x04\n      0x00\n        /* \"contracts/BAY.sol\":3181:3209  attendanceInitialized = true */\n      0x0100\n      exp\n      dup2\n      sload\n      dup2\n      0xff\n      mul\n      not\n      and\n      swap1\n      dup4\n      iszero\n      iszero\n      mul\n      or\n      swap1\n      sstore\n      pop\n        /* \"contracts/BAY.sol\":2954:3217  function initAttendance() public onlyOwner sessionNotRunning {... */\n      jump\t// out\n        /* \"@openzeppelin/contracts/access/Ownable.sol\":2081:2279  function transferOwnership(address newOwner) public virtual onlyOwner {... */\n    tag_87:\n        /* \"@openzeppelin/contracts/access/Ownable.sol\":1094:1107  _checkOwner() */\n      tag_364\n        /* \"@openzeppelin/contracts/access/Ownable.sol\":1094:1105  _checkOwner */\n      tag_95\n        /* \"@openzeppelin/contracts/access/Ownable.sol\":1094:1107  _checkOwner() */\n      jump\t// in\n    tag_364:\n        /* \"@openzeppelin/contracts/access/Ownable.sol\":2189:2190  0 */\n      0x00\n        /* \"@openzeppelin/contracts/access/Ownable.sol\":2169:2191  newOwner != address(0) */\n      0xffffffffffffffffffffffffffffffffffffffff\n      and\n        /* \"@openzeppelin/contracts/access/Ownable.sol\":2169:2177  newOwner */\n      dup2\n        /* \"@openzeppelin/contracts/access/Ownable.sol\":2169:2191  newOwner != address(0) */\n      0xffffffffffffffffffffffffffffffffffffffff\n      and\n      sub\n        /* \"@openzeppelin/contracts/access/Ownable.sol\":2161:2234  require(newOwner != address(0), \"Ownable: new owner is the zero address\") */\n      tag_366\n      jumpi\n      mload(0x40)\n      0x08c379a000000000000000000000000000000000000000000000000000000000\n      dup2\n      mstore\n      0x04\n      add\n      tag_367\n      swap1\n      tag_368\n      jump\t// in\n    tag_367:\n      mload(0x40)\n      dup1\n      swap2\n      sub\n      swap1\n      revert\n    tag_366:\n        /* \"@openzeppelin/contracts/access/Ownable.sol\":2244:2272  _transferOwnership(newOwner) */\n      tag_369\n        /* \"@openzeppelin/contracts/access/Ownable.sol\":2263:2271  newOwner */\n      dup2\n        /* \"@openzeppelin/contracts/access/Ownable.sol\":2244:2262  _transferOwnership */\n      tag_228\n        /* \"@openzeppelin/contracts/access/Ownable.sol\":2244:2272  _transferOwnership(newOwner) */\n      jump\t// in\n    tag_369:\n        /* \"@openzeppelin/contracts/access/Ownable.sol\":2081:2279  function transferOwnership(address newOwner) public virtual onlyOwner {... */\n      pop\n      jump\t// out\n        /* \"contracts/BAY.sol\":1026:1368  function registerMember(address _member) public onlyOwner {... */\n    tag_90:\n        /* \"@openzeppelin/contracts/access/Ownable.sol\":1094:1107  _checkOwner() */\n      tag_371\n        /* \"@openzeppelin/contracts/access/Ownable.sol\":1094:1105  _checkOwner */\n      tag_95\n        /* \"@openzeppelin/contracts/access/Ownable.sol\":1094:1107  _checkOwner() */\n      jump\t// in\n    tag_371:\n        /* \"contracts/BAY.sol\":1104:1111  members */\n      0x02\n        /* \"contracts/BAY.sol\":1104:1120  members[_member] */\n      0x00\n        /* \"contracts/BAY.sol\":1112:1119  _member */\n      dup3\n        /* \"contracts/BAY.sol\":1104:1120  members[_member] */\n      0xffffffffffffffffffffffffffffffffffffffff\n      and\n      0xffffffffffffffffffffffffffffffffffffffff\n      and\n      dup2\n      mstore\n      0x20\n      add\n      swap1\n      dup2\n      mstore\n      0x20\n      add\n      0x00\n      keccak256\n        /* \"contracts/BAY.sol\":1104:1133  members[_member].isRegistered */\n      0x00\n      add\n      0x00\n      swap1\n      sload\n      swap1\n      0x0100\n      exp\n      swap1\n      div\n      0xff\n      and\n        /* \"contracts/BAY.sol\":1103:1133  !members[_member].isRegistered */\n      iszero\n        /* \"contracts/BAY.sol\":1095:1166  require(!members[_member].isRegistered, \"Member is already registered\") */\n      tag_373\n      jumpi\n      mload(0x40)\n      0x08c379a000000000000000000000000000000000000000000000000000000000\n      dup2\n      mstore\n      0x04\n      add\n      tag_374\n      swap1\n      tag_375\n      jump\t// in\n    tag_374:\n      mload(0x40)\n      dup1\n      swap2\n      sub\n      swap1\n      revert\n    tag_373:\n        /* \"contracts/BAY.sol\":1209:1213  true */\n      0x01\n        /* \"contracts/BAY.sol\":1177:1184  members */\n      0x02\n        /* \"contracts/BAY.sol\":1177:1193  members[_member] */\n      0x00\n        /* \"contracts/BAY.sol\":1185:1192  _member */\n      dup4\n        /* \"contracts/BAY.sol\":1177:1193  members[_member] */\n      0xffffffffffffffffffffffffffffffffffffffff\n      and\n      0xffffffffffffffffffffffffffffffffffffffff\n      and\n      dup2\n      mstore\n      0x20\n      add\n      swap1\n      dup2\n      mstore\n      0x20\n      add\n      0x00\n      keccak256\n        /* \"contracts/BAY.sol\":1177:1206  members[_member].isRegistered */\n      0x00\n      add\n      0x00\n        /* \"contracts/BAY.sol\":1177:1213  members[_member].isRegistered = true */\n      0x0100\n      exp\n      dup2\n      sload\n      dup2\n      0xff\n      mul\n      not\n      and\n      swap1\n      dup4\n      iszero\n      iszero\n      mul\n      or\n      swap1\n      sstore\n      pop\n        /* \"contracts/BAY.sol\":1254:1277  AttendanceStatus.before */\n      0x00\n        /* \"contracts/BAY.sol\":1224:1231  members */\n      0x02\n        /* \"contracts/BAY.sol\":1224:1240  members[_member] */\n      0x00\n        /* \"contracts/BAY.sol\":1232:1239  _member */\n      dup4\n        /* \"contracts/BAY.sol\":1224:1240  members[_member] */\n      0xffffffffffffffffffffffffffffffffffffffff\n      and\n      0xffffffffffffffffffffffffffffffffffffffff\n      and\n      dup2\n      mstore\n      0x20\n      add\n      swap1\n      dup2\n      mstore\n      0x20\n      add\n      0x00\n      keccak256\n        /* \"contracts/BAY.sol\":1224:1251  members[_member].attendance */\n      0x00\n      add\n      0x01\n        /* \"contracts/BAY.sol\":1224:1277  members[_member].attendance = AttendanceStatus.before */\n      0x0100\n      exp\n      dup2\n      sload\n      dup2\n      0xff\n      mul\n      not\n      and\n      swap1\n      dup4\n      0x03\n      dup2\n      gt\n      iszero\n      tag_376\n      jumpi\n      tag_377\n      tag_113\n      jump\t// in\n    tag_377:\n    tag_376:\n      mul\n      or\n      swap1\n      sstore\n      pop\n        /* \"contracts/BAY.sol\":1288:1305  memberAddressList */\n      0x01\n        /* \"contracts/BAY.sol\":1311:1318  _member */\n      dup2\n        /* \"contracts/BAY.sol\":1288:1319  memberAddressList.push(_member) */\n      swap1\n      dup1\n      0x01\n      dup2\n      sload\n      add\n      dup1\n      dup3\n      sstore\n      dup1\n      swap2\n      pop\n      pop\n      0x01\n      swap1\n      sub\n      swap1\n      0x00\n      mstore\n      keccak256(0x00, 0x20)\n      add\n      0x00\n      swap1\n      swap2\n      swap1\n      swap2\n      swap1\n      swap2\n      0x0100\n      exp\n      dup2\n      sload\n      dup2\n      0xffffffffffffffffffffffffffffffffffffffff\n      mul\n      not\n      and\n      swap1\n      dup4\n      0xffffffffffffffffffffffffffffffffffffffff\n      and\n      mul\n      or\n      swap1\n      sstore\n      pop\n        /* \"contracts/BAY.sol\":1352:1359  _member */\n      dup1\n        /* \"contracts/BAY.sol\":1335:1360  MemberRegistered(_member) */\n      0xffffffffffffffffffffffffffffffffffffffff\n      and\n      0x92fabfa210df88d92c2f5a07ddd43a985b208d8b19b7a78ba1284aa4b287d862\n      mload(0x40)\n      mload(0x40)\n      dup1\n      swap2\n      sub\n      swap1\n      log2\n        /* \"contracts/BAY.sol\":1026:1368  function registerMember(address _member) public onlyOwner {... */\n      pop\n      jump\t// out\n        /* \"@openzeppelin/contracts/access/Ownable.sol\":1359:1489  function _checkOwner() internal view virtual {... */\n    tag_95:\n        /* \"@openzeppelin/contracts/access/Ownable.sol\":1433:1445  _msgSender() */\n      tag_380\n        /* \"@openzeppelin/contracts/access/Ownable.sol\":1433:1443  _msgSender */\n      tag_381\n        /* \"@openzeppelin/contracts/access/Ownable.sol\":1433:1445  _msgSender() */\n      jump\t// in\n    tag_380:\n        /* \"@openzeppelin/contracts/access/Ownable.sol\":1422:1445  owner() == _msgSender() */\n      0xffffffffffffffffffffffffffffffffffffffff\n      and\n        /* \"@openzeppelin/contracts/access/Ownable.sol\":1422:1429  owner() */\n      tag_382\n        /* \"@openzeppelin/contracts/access/Ownable.sol\":1422:1427  owner */\n      tag_60\n        /* \"@openzeppelin/contracts/access/Ownable.sol\":1422:1429  owner() */\n      jump\t// in\n    tag_382:\n        /* \"@openzeppelin/contracts/access/Ownable.sol\":1422:1445  owner() == _msgSender() */\n      0xffffffffffffffffffffffffffffffffffffffff\n      and\n      eq\n        /* \"@openzeppelin/contracts/access/Ownable.sol\":1414:1482  require(owner() == _msgSender(), \"Ownable: caller is not the owner\") */\n      tag_383\n      jumpi\n      mload(0x40)\n      0x08c379a000000000000000000000000000000000000000000000000000000000\n      dup2\n      mstore\n      0x04\n      add\n      tag_384\n      swap1\n      tag_385\n      jump\t// in\n    tag_384:\n      mload(0x40)\n      dup1\n      swap2\n      sub\n      swap1\n      revert\n    tag_383:\n        /* \"@openzeppelin/contracts/access/Ownable.sol\":1359:1489  function _checkOwner() internal view virtual {... */\n      jump\t// out\n        /* \"@openzeppelin/contracts/access/Ownable.sol\":2433:2620  function _transferOwnership(address newOwner) internal virtual {... */\n    tag_228:\n        /* \"@openzeppelin/contracts/access/Ownable.sol\":2506:2522  address oldOwner */\n      0x00\n        /* \"@openzeppelin/contracts/access/Ownable.sol\":2525:2531  _owner */\n      dup1\n      0x00\n      swap1\n      sload\n      swap1\n      0x0100\n      exp\n      swap1\n      div\n      0xffffffffffffffffffffffffffffffffffffffff\n      and\n        /* \"@openzeppelin/contracts/access/Ownable.sol\":2506:2531  address oldOwner = _owner */\n      swap1\n      pop\n        /* \"@openzeppelin/contracts/access/Ownable.sol\":2550:2558  newOwner */\n      dup2\n        /* \"@openzeppelin/contracts/access/Ownable.sol\":2541:2547  _owner */\n      0x00\n      dup1\n        /* \"@openzeppelin/contracts/access/Ownable.sol\":2541:2558  _owner = newOwner */\n      0x0100\n      exp\n      dup2\n      sload\n      dup2\n      0xffffffffffffffffffffffffffffffffffffffff\n      mul\n      not\n      and\n      swap1\n      dup4\n      0xffffffffffffffffffffffffffffffffffffffff\n      and\n      mul\n      or\n      swap1\n      sstore\n      pop\n        /* \"@openzeppelin/contracts/access/Ownable.sol\":2604:2612  newOwner */\n      dup2\n        /* \"@openzeppelin/contracts/access/Ownable.sol\":2573:2613  OwnershipTransferred(oldOwner, newOwner) */\n      0xffffffffffffffffffffffffffffffffffffffff\n      and\n        /* \"@openzeppelin/contracts/access/Ownable.sol\":2594:2602  oldOwner */\n      dup2\n        /* \"@openzeppelin/contracts/access/Ownable.sol\":2573:2613  OwnershipTransferred(oldOwner, newOwner) */\n      0xffffffffffffffffffffffffffffffffffffffff\n      and\n      0x8be0079c531659141344cd1fd0a4f28419497f9722a3daafe3b4186f6b6457e0\n      mload(0x40)\n      mload(0x40)\n      dup1\n      swap2\n      sub\n      swap1\n      log3\n        /* \"@openzeppelin/contracts/access/Ownable.sol\":2496:2620  {... */\n      pop\n        /* \"@openzeppelin/contracts/access/Ownable.sol\":2433:2620  function _transferOwnership(address newOwner) internal virtual {... */\n      pop\n      jump\t// out\n        /* \"@openzeppelin/contracts/utils/Context.sol\":640:736  function _msgSender() internal view virtual returns (address) {... */\n    tag_381:\n        /* \"@openzeppelin/contracts/utils/Context.sol\":693:700  address */\n      0x00\n        /* \"@openzeppelin/contracts/utils/Context.sol\":719:729  msg.sender */\n      caller\n        /* \"@openzeppelin/contracts/utils/Context.sol\":712:729  return msg.sender */\n      swap1\n      pop\n        /* \"@openzeppelin/contracts/utils/Context.sol\":640:736  function _msgSender() internal view virtual returns (address) {... */\n      swap1\n      jump\t// out\n    tag_214:\n      mload(0x40)\n      dup1\n      0xa0\n      add\n      0x40\n      mstore\n      dup1\n      iszero(iszero(0x00))\n      dup2\n      mstore\n      0x20\n      add\n      0x00\n      0x03\n      dup2\n      gt\n      iszero\n      tag_388\n      jumpi\n      tag_389\n      tag_113\n      jump\t// in\n    tag_389:\n    tag_388:\n      dup2\n      mstore\n      0x20\n      add\n      and(0xffff, 0x00)\n      dup2\n      mstore\n      0x20\n      add\n      and(0xffff, 0x00)\n      dup2\n      mstore\n      0x20\n      add\n      and(0xffff, 0x00)\n      dup2\n      mstore\n      pop\n      swap1\n      jump\t// out\n        /* \"#utility.yul\":7:133   */\n    tag_390:\n        /* \"#utility.yul\":44:51   */\n      0x00\n        /* \"#utility.yul\":84:126   */\n      0xffffffffffffffffffffffffffffffffffffffff\n        /* \"#utility.yul\":77:82   */\n      dup3\n        /* \"#utility.yul\":73:127   */\n      and\n        /* \"#utility.yul\":62:127   */\n      swap1\n      pop\n        /* \"#utility.yul\":7:133   */\n      swap2\n      swap1\n      pop\n      jump\t// out\n        /* \"#utility.yul\":139:235   */\n    tag_391:\n        /* \"#utility.yul\":176:183   */\n      0x00\n        /* \"#utility.yul\":205:229   */\n      tag_448\n        /* \"#utility.yul\":223:228   */\n      dup3\n        /* \"#utility.yul\":205:229   */\n      tag_390\n      jump\t// in\n    tag_448:\n        /* \"#utility.yul\":194:229   */\n      swap1\n      pop\n        /* \"#utility.yul\":139:235   */\n      swap2\n      swap1\n      pop\n      jump\t// out\n        /* \"#utility.yul\":241:359   */\n    tag_392:\n        /* \"#utility.yul\":328:352   */\n      tag_450\n        /* \"#utility.yul\":346:351   */\n      dup2\n        /* \"#utility.yul\":328:352   */\n      tag_391\n      jump\t// in\n    tag_450:\n        /* \"#utility.yul\":323:326   */\n      dup3\n        /* \"#utility.yul\":316:353   */\n      mstore\n        /* \"#utility.yul\":241:359   */\n      pop\n      pop\n      jump\t// out\n        /* \"#utility.yul\":365:587   */\n    tag_29:\n        /* \"#utility.yul\":458:462   */\n      0x00\n        /* \"#utility.yul\":496:498   */\n      0x20\n        /* \"#utility.yul\":485:494   */\n      dup3\n        /* \"#utility.yul\":481:499   */\n      add\n        /* \"#utility.yul\":473:499   */\n      swap1\n      pop\n        /* \"#utility.yul\":509:580   */\n      tag_452\n        /* \"#utility.yul\":577:578   */\n      0x00\n        /* \"#utility.yul\":566:575   */\n      dup4\n        /* \"#utility.yul\":562:579   */\n      add\n        /* \"#utility.yul\":553:559   */\n      dup5\n        /* \"#utility.yul\":509:580   */\n      tag_392\n      jump\t// in\n    tag_452:\n        /* \"#utility.yul\":365:587   */\n      swap3\n      swap2\n      pop\n      pop\n      jump\t// out\n        /* \"#utility.yul\":593:707   */\n    tag_393:\n        /* \"#utility.yul\":660:666   */\n      0x00\n        /* \"#utility.yul\":694:699   */\n      dup2\n        /* \"#utility.yul\":688:700   */\n      mload\n        /* \"#utility.yul\":678:700   */\n      swap1\n      pop\n        /* \"#utility.yul\":593:707   */\n      swap2\n      swap1\n      pop\n      jump\t// out\n        /* \"#utility.yul\":713:897   */\n    tag_394:\n        /* \"#utility.yul\":812:823   */\n      0x00\n        /* \"#utility.yul\":846:852   */\n      dup3\n        /* \"#utility.yul\":841:844   */\n      dup3\n        /* \"#utility.yul\":834:853   */\n      mstore\n        /* \"#utility.yul\":886:890   */\n      0x20\n        /* \"#utility.yul\":881:884   */\n      dup3\n        /* \"#utility.yul\":877:891   */\n      add\n        /* \"#utility.yul\":862:891   */\n      swap1\n      pop\n        /* \"#utility.yul\":713:897   */\n      swap3\n      swap2\n      pop\n      pop\n      jump\t// out\n        /* \"#utility.yul\":903:1035   */\n    tag_395:\n        /* \"#utility.yul\":970:974   */\n      0x00\n        /* \"#utility.yul\":993:996   */\n      dup2\n        /* \"#utility.yul\":985:996   */\n      swap1\n      pop\n        /* \"#utility.yul\":1023:1027   */\n      0x20\n        /* \"#utility.yul\":1018:1021   */\n      dup3\n        /* \"#utility.yul\":1014:1028   */\n      add\n        /* \"#utility.yul\":1006:1028   */\n      swap1\n      pop\n        /* \"#utility.yul\":903:1035   */\n      swap2\n      swap1\n      pop\n      jump\t// out\n        /* \"#utility.yul\":1041:1149   */\n    tag_396:\n        /* \"#utility.yul\":1118:1142   */\n      tag_457\n        /* \"#utility.yul\":1136:1141   */\n      dup2\n        /* \"#utility.yul\":1118:1142   */\n      tag_391\n      jump\t// in\n    tag_457:\n        /* \"#utility.yul\":1113:1116   */\n      dup3\n        /* \"#utility.yul\":1106:1143   */\n      mstore\n        /* \"#utility.yul\":1041:1149   */\n      pop\n      pop\n      jump\t// out\n        /* \"#utility.yul\":1155:1334   */\n    tag_397:\n        /* \"#utility.yul\":1224:1234   */\n      0x00\n        /* \"#utility.yul\":1245:1291   */\n      tag_459\n        /* \"#utility.yul\":1287:1290   */\n      dup4\n        /* \"#utility.yul\":1279:1285   */\n      dup4\n        /* \"#utility.yul\":1245:1291   */\n      tag_396\n      jump\t// in\n    tag_459:\n        /* \"#utility.yul\":1323:1327   */\n      0x20\n        /* \"#utility.yul\":1318:1321   */\n      dup4\n        /* \"#utility.yul\":1314:1328   */\n      add\n        /* \"#utility.yul\":1300:1328   */\n      swap1\n      pop\n        /* \"#utility.yul\":1155:1334   */\n      swap3\n      swap2\n      pop\n      pop\n      jump\t// out\n        /* \"#utility.yul\":1340:1453   */\n    tag_398:\n        /* \"#utility.yul\":1410:1414   */\n      0x00\n        /* \"#utility.yul\":1442:1446   */\n      0x20\n        /* \"#utility.yul\":1437:1440   */\n      dup3\n        /* \"#utility.yul\":1433:1447   */\n      add\n        /* \"#utility.yul\":1425:1447   */\n      swap1\n      pop\n        /* \"#utility.yul\":1340:1453   */\n      swap2\n      swap1\n      pop\n      jump\t// out\n        /* \"#utility.yul\":1489:2221   */\n    tag_399:\n        /* \"#utility.yul\":1608:1611   */\n      0x00\n        /* \"#utility.yul\":1637:1691   */\n      tag_462\n        /* \"#utility.yul\":1685:1690   */\n      dup3\n        /* \"#utility.yul\":1637:1691   */\n      tag_393\n      jump\t// in\n    tag_462:\n        /* \"#utility.yul\":1707:1793   */\n      tag_463\n        /* \"#utility.yul\":1786:1792   */\n      dup2\n        /* \"#utility.yul\":1781:1784   */\n      dup6\n        /* \"#utility.yul\":1707:1793   */\n      tag_394\n      jump\t// in\n    tag_463:\n        /* \"#utility.yul\":1700:1793   */\n      swap4\n      pop\n        /* \"#utility.yul\":1817:1873   */\n      tag_464\n        /* \"#utility.yul\":1867:1872   */\n      dup4\n        /* \"#utility.yul\":1817:1873   */\n      tag_395\n      jump\t// in\n    tag_464:\n        /* \"#utility.yul\":1896:1903   */\n      dup1\n        /* \"#utility.yul\":1927:1928   */\n      0x00\n        /* \"#utility.yul\":1912:2196   */\n    tag_465:\n        /* \"#utility.yul\":1937:1943   */\n      dup4\n        /* \"#utility.yul\":1934:1935   */\n      dup2\n        /* \"#utility.yul\":1931:1944   */\n      lt\n        /* \"#utility.yul\":1912:2196   */\n      iszero\n      tag_467\n      jumpi\n        /* \"#utility.yul\":2013:2019   */\n      dup2\n        /* \"#utility.yul\":2007:2020   */\n      mload\n        /* \"#utility.yul\":2040:2103   */\n      tag_468\n        /* \"#utility.yul\":2099:2102   */\n      dup9\n        /* \"#utility.yul\":2084:2097   */\n      dup3\n        /* \"#utility.yul\":2040:2103   */\n      tag_397\n      jump\t// in\n    tag_468:\n        /* \"#utility.yul\":2033:2103   */\n      swap8\n      pop\n        /* \"#utility.yul\":2126:2186   */\n      tag_469\n        /* \"#utility.yul\":2179:2185   */\n      dup4\n        /* \"#utility.yul\":2126:2186   */\n      tag_398\n      jump\t// in\n    tag_469:\n        /* \"#utility.yul\":2116:2186   */\n      swap3\n      pop\n        /* \"#utility.yul\":1972:2196   */\n      pop\n        /* \"#utility.yul\":1959:1960   */\n      0x01\n        /* \"#utility.yul\":1956:1957   */\n      dup2\n        /* \"#utility.yul\":1952:1961   */\n      add\n        /* \"#utility.yul\":1947:1961   */\n      swap1\n      pop\n        /* \"#utility.yul\":1912:2196   */\n      jump(tag_465)\n    tag_467:\n        /* \"#utility.yul\":1916:1930   */\n      pop\n        /* \"#utility.yul\":2212:2215   */\n      dup6\n        /* \"#utility.yul\":2205:2215   */\n      swap4\n      pop\n        /* \"#utility.yul\":1613:2221   */\n      pop\n      pop\n      pop\n        /* \"#utility.yul\":1489:2221   */\n      swap3\n      swap2\n      pop\n      pop\n      jump\t// out\n        /* \"#utility.yul\":2227:2600   */\n    tag_35:\n        /* \"#utility.yul\":2370:2374   */\n      0x00\n        /* \"#utility.yul\":2408:2410   */\n      0x20\n        /* \"#utility.yul\":2397:2406   */\n      dup3\n        /* \"#utility.yul\":2393:2411   */\n      add\n        /* \"#utility.yul\":2385:2411   */\n      swap1\n      pop\n        /* \"#utility.yul\":2457:2466   */\n      dup2\n        /* \"#utility.yul\":2451:2455   */\n      dup2\n        /* \"#utility.yul\":2447:2467   */\n      sub\n        /* \"#utility.yul\":2443:2444   */\n      0x00\n        /* \"#utility.yul\":2432:2441   */\n      dup4\n        /* \"#utility.yul\":2428:2445   */\n      add\n        /* \"#utility.yul\":2421:2468   */\n      mstore\n        /* \"#utility.yul\":2485:2593   */\n      tag_471\n        /* \"#utility.yul\":2588:2592   */\n      dup2\n        /* \"#utility.yul\":2579:2585   */\n      dup5\n        /* \"#utility.yul\":2485:2593   */\n      tag_399\n      jump\t// in\n    tag_471:\n        /* \"#utility.yul\":2477:2593   */\n      swap1\n      pop\n        /* \"#utility.yul\":2227:2600   */\n      swap3\n      swap2\n      pop\n      pop\n      jump\t// out\n        /* \"#utility.yul\":2687:2804   */\n    tag_401:\n        /* \"#utility.yul\":2796:2797   */\n      0x00\n        /* \"#utility.yul\":2793:2794   */\n      dup1\n        /* \"#utility.yul\":2786:2798   */\n      revert\n        /* \"#utility.yul\":2933:3055   */\n    tag_403:\n        /* \"#utility.yul\":3006:3030   */\n      tag_476\n        /* \"#utility.yul\":3024:3029   */\n      dup2\n        /* \"#utility.yul\":3006:3030   */\n      tag_391\n      jump\t// in\n    tag_476:\n        /* \"#utility.yul\":2999:3004   */\n      dup2\n        /* \"#utility.yul\":2996:3031   */\n      eq\n        /* \"#utility.yul\":2986:3049   */\n      tag_477\n      jumpi\n        /* \"#utility.yul\":3045:3046   */\n      0x00\n        /* \"#utility.yul\":3042:3043   */\n      dup1\n        /* \"#utility.yul\":3035:3047   */\n      revert\n        /* \"#utility.yul\":2986:3049   */\n    tag_477:\n        /* \"#utility.yul\":2933:3055   */\n      pop\n      jump\t// out\n        /* \"#utility.yul\":3061:3200   */\n    tag_404:\n        /* \"#utility.yul\":3107:3112   */\n      0x00\n        /* \"#utility.yul\":3145:3151   */\n      dup2\n        /* \"#utility.yul\":3132:3152   */\n      calldataload\n        /* \"#utility.yul\":3123:3152   */\n      swap1\n      pop\n        /* \"#utility.yul\":3161:3194   */\n      tag_479\n        /* \"#utility.yul\":3188:3193   */\n      dup2\n        /* \"#utility.yul\":3161:3194   */\n      tag_403\n      jump\t// in\n    tag_479:\n        /* \"#utility.yul\":3061:3200   */\n      swap3\n      swap2\n      pop\n      pop\n      jump\t// out\n        /* \"#utility.yul\":3206:3535   */\n    tag_43:\n        /* \"#utility.yul\":3265:3271   */\n      0x00\n        /* \"#utility.yul\":3314:3316   */\n      0x20\n        /* \"#utility.yul\":3302:3311   */\n      dup3\n        /* \"#utility.yul\":3293:3300   */\n      dup5\n        /* \"#utility.yul\":3289:3312   */\n      sub\n        /* \"#utility.yul\":3285:3317   */\n      slt\n        /* \"#utility.yul\":3282:3401   */\n      iszero\n      tag_481\n      jumpi\n        /* \"#utility.yul\":3320:3399   */\n      tag_482\n      tag_401\n      jump\t// in\n    tag_482:\n        /* \"#utility.yul\":3282:3401   */\n    tag_481:\n        /* \"#utility.yul\":3440:3441   */\n      0x00\n        /* \"#utility.yul\":3465:3518   */\n      tag_483\n        /* \"#utility.yul\":3510:3517   */\n      dup5\n        /* \"#utility.yul\":3501:3507   */\n      dup3\n        /* \"#utility.yul\":3490:3499   */\n      dup6\n        /* \"#utility.yul\":3486:3508   */\n      add\n        /* \"#utility.yul\":3465:3518   */\n      tag_404\n      jump\t// in\n    tag_483:\n        /* \"#utility.yul\":3455:3518   */\n      swap2\n      pop\n        /* \"#utility.yul\":3411:3528   */\n      pop\n        /* \"#utility.yul\":3206:3535   */\n      swap3\n      swap2\n      pop\n      pop\n      jump\t// out\n        /* \"#utility.yul\":3541:3631   */\n    tag_405:\n        /* \"#utility.yul\":3575:3582   */\n      0x00\n        /* \"#utility.yul\":3618:3623   */\n      dup2\n        /* \"#utility.yul\":3611:3624   */\n      iszero\n        /* \"#utility.yul\":3604:3625   */\n      iszero\n        /* \"#utility.yul\":3593:3625   */\n      swap1\n      pop\n        /* \"#utility.yul\":3541:3631   */\n      swap2\n      swap1\n      pop\n      jump\t// out\n        /* \"#utility.yul\":3637:3736   */\n    tag_406:\n        /* \"#utility.yul\":3708:3729   */\n      tag_486\n        /* \"#utility.yul\":3723:3728   */\n      dup2\n        /* \"#utility.yul\":3708:3729   */\n      tag_405\n      jump\t// in\n    tag_486:\n        /* \"#utility.yul\":3703:3706   */\n      dup3\n        /* \"#utility.yul\":3696:3730   */\n      mstore\n        /* \"#utility.yul\":3637:3736   */\n      pop\n      pop\n      jump\t// out\n        /* \"#utility.yul\":3742:3922   */\n    tag_113:\n        /* \"#utility.yul\":3790:3867   */\n      0x4e487b7100000000000000000000000000000000000000000000000000000000\n        /* \"#utility.yul\":3787:3788   */\n      0x00\n        /* \"#utility.yul\":3780:3868   */\n      mstore\n        /* \"#utility.yul\":3887:3891   */\n      0x21\n        /* \"#utility.yul\":3884:3885   */\n      0x04\n        /* \"#utility.yul\":3877:3892   */\n      mstore\n        /* \"#utility.yul\":3911:3915   */\n      0x24\n        /* \"#utility.yul\":3908:3909   */\n      0x00\n        /* \"#utility.yul\":3901:3916   */\n      revert\n        /* \"#utility.yul\":3928:4053   */\n    tag_407:\n        /* \"#utility.yul\":4021:4022   */\n      0x04\n        /* \"#utility.yul\":4014:4019   */\n      dup2\n        /* \"#utility.yul\":4011:4023   */\n      lt\n        /* \"#utility.yul\":4001:4047   */\n      tag_489\n      jumpi\n        /* \"#utility.yul\":4027:4045   */\n      tag_490\n      tag_113\n      jump\t// in\n    tag_490:\n        /* \"#utility.yul\":4001:4047   */\n    tag_489:\n        /* \"#utility.yul\":3928:4053   */\n      pop\n      jump\t// out\n        /* \"#utility.yul\":4059:4210   */\n    tag_408:\n        /* \"#utility.yul\":4116:4123   */\n      0x00\n        /* \"#utility.yul\":4145:4150   */\n      dup2\n        /* \"#utility.yul\":4134:4150   */\n      swap1\n      pop\n        /* \"#utility.yul\":4151:4204   */\n      tag_492\n        /* \"#utility.yul\":4198:4203   */\n      dup3\n        /* \"#utility.yul\":4151:4204   */\n      tag_407\n      jump\t// in\n    tag_492:\n        /* \"#utility.yul\":4059:4210   */\n      swap2\n      swap1\n      pop\n      jump\t// out\n        /* \"#utility.yul\":4216:4367   */\n    tag_409:\n        /* \"#utility.yul\":4284:4293   */\n      0x00\n        /* \"#utility.yul\":4317:4361   */\n      tag_494\n        /* \"#utility.yul\":4355:4360   */\n      dup3\n        /* \"#utility.yul\":4317:4361   */\n      tag_408\n      jump\t// in\n    tag_494:\n        /* \"#utility.yul\":4304:4361   */\n      swap1\n      pop\n        /* \"#utility.yul\":4216:4367   */\n      swap2\n      swap1\n      pop\n      jump\t// out\n        /* \"#utility.yul\":4373:4530   */\n    tag_410:\n        /* \"#utility.yul\":4468:4523   */\n      tag_496\n        /* \"#utility.yul\":4517:4522   */\n      dup2\n        /* \"#utility.yul\":4468:4523   */\n      tag_409\n      jump\t// in\n    tag_496:\n        /* \"#utility.yul\":4463:4466   */\n      dup3\n        /* \"#utility.yul\":4456:4524   */\n      mstore\n        /* \"#utility.yul\":4373:4530   */\n      pop\n      pop\n      jump\t// out\n        /* \"#utility.yul\":4536:4625   */\n    tag_411:\n        /* \"#utility.yul\":4572:4579   */\n      0x00\n        /* \"#utility.yul\":4612:4618   */\n      0xffff\n        /* \"#utility.yul\":4605:4610   */\n      dup3\n        /* \"#utility.yul\":4601:4619   */\n      and\n        /* \"#utility.yul\":4590:4619   */\n      swap1\n      pop\n        /* \"#utility.yul\":4536:4625   */\n      swap2\n      swap1\n      pop\n      jump\t// out\n        /* \"#utility.yul\":4631:4736   */\n    tag_412:\n        /* \"#utility.yul\":4706:4729   */\n      tag_499\n        /* \"#utility.yul\":4723:4728   */\n      dup2\n        /* \"#utility.yul\":4706:4729   */\n      tag_411\n      jump\t// in\n    tag_499:\n        /* \"#utility.yul\":4701:4704   */\n      dup3\n        /* \"#utility.yul\":4694:4730   */\n      mstore\n        /* \"#utility.yul\":4631:4736   */\n      pop\n      pop\n      jump\t// out\n        /* \"#utility.yul\":4788:5853   */\n    tag_413:\n        /* \"#utility.yul\":4931:4935   */\n      0xa0\n        /* \"#utility.yul\":4926:4929   */\n      dup3\n        /* \"#utility.yul\":4922:4936   */\n      add\n        /* \"#utility.yul\":5026:5030   */\n      0x00\n        /* \"#utility.yul\":5019:5024   */\n      dup3\n        /* \"#utility.yul\":5015:5031   */\n      add\n        /* \"#utility.yul\":5009:5032   */\n      mload\n        /* \"#utility.yul\":5045:5102   */\n      tag_501\n        /* \"#utility.yul\":5096:5100   */\n      0x00\n        /* \"#utility.yul\":5091:5094   */\n      dup6\n        /* \"#utility.yul\":5087:5101   */\n      add\n        /* \"#utility.yul\":5073:5085   */\n      dup3\n        /* \"#utility.yul\":5045:5102   */\n      tag_406\n      jump\t// in\n    tag_501:\n        /* \"#utility.yul\":4946:5112   */\n      pop\n        /* \"#utility.yul\":5200:5204   */\n      0x20\n        /* \"#utility.yul\":5193:5198   */\n      dup3\n        /* \"#utility.yul\":5189:5205   */\n      add\n        /* \"#utility.yul\":5183:5206   */\n      mload\n        /* \"#utility.yul\":5219:5300   */\n      tag_502\n        /* \"#utility.yul\":5294:5298   */\n      0x20\n        /* \"#utility.yul\":5289:5292   */\n      dup6\n        /* \"#utility.yul\":5285:5299   */\n      add\n        /* \"#utility.yul\":5271:5283   */\n      dup3\n        /* \"#utility.yul\":5219:5300   */\n      tag_410\n      jump\t// in\n    tag_502:\n        /* \"#utility.yul\":5122:5310   */\n      pop\n        /* \"#utility.yul\":5400:5404   */\n      0x40\n        /* \"#utility.yul\":5393:5398   */\n      dup3\n        /* \"#utility.yul\":5389:5405   */\n      add\n        /* \"#utility.yul\":5383:5406   */\n      mload\n        /* \"#utility.yul\":5419:5480   */\n      tag_503\n        /* \"#utility.yul\":5474:5478   */\n      0x40\n        /* \"#utility.yul\":5469:5472   */\n      dup6\n        /* \"#utility.yul\":5465:5479   */\n      add\n        /* \"#utility.yul\":5451:5463   */\n      dup3\n        /* \"#utility.yul\":5419:5480   */\n      tag_412\n      jump\t// in\n    tag_503:\n        /* \"#utility.yul\":5320:5490   */\n      pop\n        /* \"#utility.yul\":5577:5581   */\n      0x60\n        /* \"#utility.yul\":5570:5575   */\n      dup3\n        /* \"#utility.yul\":5566:5582   */\n      add\n        /* \"#utility.yul\":5560:5583   */\n      mload\n        /* \"#utility.yul\":5596:5657   */\n      tag_504\n        /* \"#utility.yul\":5651:5655   */\n      0x60\n        /* \"#utility.yul\":5646:5649   */\n      dup6\n        /* \"#utility.yul\":5642:5656   */\n      add\n        /* \"#utility.yul\":5628:5640   */\n      dup3\n        /* \"#utility.yul\":5596:5657   */\n      tag_412\n      jump\t// in\n    tag_504:\n        /* \"#utility.yul\":5500:5667   */\n      pop\n        /* \"#utility.yul\":5756:5760   */\n      0x80\n        /* \"#utility.yul\":5749:5754   */\n      dup3\n        /* \"#utility.yul\":5745:5761   */\n      add\n        /* \"#utility.yul\":5739:5762   */\n      mload\n        /* \"#utility.yul\":5775:5836   */\n      tag_505\n        /* \"#utility.yul\":5830:5834   */\n      0x80\n        /* \"#utility.yul\":5825:5828   */\n      dup6\n        /* \"#utility.yul\":5821:5835   */\n      add\n        /* \"#utility.yul\":5807:5819   */\n      dup3\n        /* \"#utility.yul\":5775:5836   */\n      tag_412\n      jump\t// in\n    tag_505:\n        /* \"#utility.yul\":5677:5846   */\n      pop\n        /* \"#utility.yul\":4900:5853   */\n      pop\n        /* \"#utility.yul\":4788:5853   */\n      pop\n      pop\n      jump\t// out\n        /* \"#utility.yul\":5859:6174   */\n    tag_46:\n        /* \"#utility.yul\":5998:6002   */\n      0x00\n        /* \"#utility.yul\":6036:6039   */\n      0xa0\n        /* \"#utility.yul\":6025:6034   */\n      dup3\n        /* \"#utility.yul\":6021:6040   */\n      add\n        /* \"#utility.yul\":6013:6040   */\n      swap1\n      pop\n        /* \"#utility.yul\":6050:6167   */\n      tag_507\n        /* \"#utility.yul\":6164:6165   */\n      0x00\n        /* \"#utility.yul\":6153:6162   */\n      dup4\n        /* \"#utility.yul\":6149:6166   */\n      add\n        /* \"#utility.yul\":6140:6146   */\n      dup5\n        /* \"#utility.yul\":6050:6167   */\n      tag_413\n      jump\t// in\n    tag_507:\n        /* \"#utility.yul\":5859:6174   */\n      swap3\n      swap2\n      pop\n      pop\n      jump\t// out\n        /* \"#utility.yul\":6180:6318   */\n    tag_414:\n        /* \"#utility.yul\":6271:6277   */\n      0x00\n        /* \"#utility.yul\":6305:6310   */\n      dup2\n        /* \"#utility.yul\":6299:6311   */\n      mload\n        /* \"#utility.yul\":6289:6311   */\n      swap1\n      pop\n        /* \"#utility.yul\":6180:6318   */\n      swap2\n      swap1\n      pop\n      jump\t// out\n        /* \"#utility.yul\":6324:6532   */\n    tag_415:\n        /* \"#utility.yul\":6447:6458   */\n      0x00\n        /* \"#utility.yul\":6481:6487   */\n      dup3\n        /* \"#utility.yul\":6476:6479   */\n      dup3\n        /* \"#utility.yul\":6469:6488   */\n      mstore\n        /* \"#utility.yul\":6521:6525   */\n      0x20\n        /* \"#utility.yul\":6516:6519   */\n      dup3\n        /* \"#utility.yul\":6512:6526   */\n      add\n        /* \"#utility.yul\":6497:6526   */\n      swap1\n      pop\n        /* \"#utility.yul\":6324:6532   */\n      swap3\n      swap2\n      pop\n      pop\n      jump\t// out\n        /* \"#utility.yul\":6538:6694   */\n    tag_416:\n        /* \"#utility.yul\":6629:6633   */\n      0x00\n        /* \"#utility.yul\":6652:6655   */\n      dup2\n        /* \"#utility.yul\":6644:6655   */\n      swap1\n      pop\n        /* \"#utility.yul\":6682:6686   */\n      0x20\n        /* \"#utility.yul\":6677:6680   */\n      dup3\n        /* \"#utility.yul\":6673:6687   */\n      add\n        /* \"#utility.yul\":6665:6687   */\n      swap1\n      pop\n        /* \"#utility.yul\":6538:6694   */\n      swap2\n      swap1\n      pop\n      jump\t// out\n        /* \"#utility.yul\":6700:6777   */\n    tag_417:\n        /* \"#utility.yul\":6737:6744   */\n      0x00\n        /* \"#utility.yul\":6766:6771   */\n      dup2\n        /* \"#utility.yul\":6755:6771   */\n      swap1\n      pop\n        /* \"#utility.yul\":6700:6777   */\n      swap2\n      swap1\n      pop\n      jump\t// out\n        /* \"#utility.yul\":6783:6891   */\n    tag_418:\n        /* \"#utility.yul\":6860:6884   */\n      tag_513\n        /* \"#utility.yul\":6878:6883   */\n      dup2\n        /* \"#utility.yul\":6860:6884   */\n      tag_417\n      jump\t// in\n    tag_513:\n        /* \"#utility.yul\":6855:6858   */\n      dup3\n        /* \"#utility.yul\":6848:6885   */\n      mstore\n        /* \"#utility.yul\":6783:6891   */\n      pop\n      pop\n      jump\t// out\n        /* \"#utility.yul\":6945:7451   */\n    tag_419:\n        /* \"#utility.yul\":7080:7084   */\n      0x40\n        /* \"#utility.yul\":7075:7078   */\n      dup3\n        /* \"#utility.yul\":7071:7085   */\n      add\n        /* \"#utility.yul\":7172:7176   */\n      0x00\n        /* \"#utility.yul\":7165:7170   */\n      dup3\n        /* \"#utility.yul\":7161:7177   */\n      add\n        /* \"#utility.yul\":7155:7178   */\n      mload\n        /* \"#utility.yul\":7191:7254   */\n      tag_515\n        /* \"#utility.yul\":7248:7252   */\n      0x00\n        /* \"#utility.yul\":7243:7246   */\n      dup6\n        /* \"#utility.yul\":7239:7253   */\n      add\n        /* \"#utility.yul\":7225:7237   */\n      dup3\n        /* \"#utility.yul\":7191:7254   */\n      tag_418\n      jump\t// in\n    tag_515:\n        /* \"#utility.yul\":7095:7264   */\n      pop\n        /* \"#utility.yul\":7352:7356   */\n      0x20\n        /* \"#utility.yul\":7345:7350   */\n      dup3\n        /* \"#utility.yul\":7341:7357   */\n      add\n        /* \"#utility.yul\":7335:7358   */\n      mload\n        /* \"#utility.yul\":7371:7434   */\n      tag_516\n        /* \"#utility.yul\":7428:7432   */\n      0x20\n        /* \"#utility.yul\":7423:7426   */\n      dup6\n        /* \"#utility.yul\":7419:7433   */\n      add\n        /* \"#utility.yul\":7405:7417   */\n      dup3\n        /* \"#utility.yul\":7371:7434   */\n      tag_418\n      jump\t// in\n    tag_516:\n        /* \"#utility.yul\":7274:7444   */\n      pop\n        /* \"#utility.yul\":7049:7451   */\n      pop\n        /* \"#utility.yul\":6945:7451   */\n      pop\n      pop\n      jump\t// out\n        /* \"#utility.yul\":7457:7732   */\n    tag_420:\n        /* \"#utility.yul\":7574:7584   */\n      0x00\n        /* \"#utility.yul\":7595:7689   */\n      tag_518\n        /* \"#utility.yul\":7685:7688   */\n      dup4\n        /* \"#utility.yul\":7677:7683   */\n      dup4\n        /* \"#utility.yul\":7595:7689   */\n      tag_419\n      jump\t// in\n    tag_518:\n        /* \"#utility.yul\":7721:7725   */\n      0x40\n        /* \"#utility.yul\":7716:7719   */\n      dup4\n        /* \"#utility.yul\":7712:7726   */\n      add\n        /* \"#utility.yul\":7698:7726   */\n      swap1\n      pop\n        /* \"#utility.yul\":7457:7732   */\n      swap3\n      swap2\n      pop\n      pop\n      jump\t// out\n        /* \"#utility.yul\":7738:7875   */\n    tag_421:\n        /* \"#utility.yul\":7832:7836   */\n      0x00\n        /* \"#utility.yul\":7864:7868   */\n      0x20\n        /* \"#utility.yul\":7859:7862   */\n      dup3\n        /* \"#utility.yul\":7855:7869   */\n      add\n        /* \"#utility.yul\":7847:7869   */\n      swap1\n      pop\n        /* \"#utility.yul\":7738:7875   */\n      swap2\n      swap1\n      pop\n      jump\t// out\n        /* \"#utility.yul\":7933:8857   */\n    tag_422:\n        /* \"#utility.yul\":8100:8103   */\n      0x00\n        /* \"#utility.yul\":8129:8207   */\n      tag_521\n        /* \"#utility.yul\":8201:8206   */\n      dup3\n        /* \"#utility.yul\":8129:8207   */\n      tag_414\n      jump\t// in\n    tag_521:\n        /* \"#utility.yul\":8223:8333   */\n      tag_522\n        /* \"#utility.yul\":8326:8332   */\n      dup2\n        /* \"#utility.yul\":8321:8324   */\n      dup6\n        /* \"#utility.yul\":8223:8333   */\n      tag_415\n      jump\t// in\n    tag_522:\n        /* \"#utility.yul\":8216:8333   */\n      swap4\n      pop\n        /* \"#utility.yul\":8357:8437   */\n      tag_523\n        /* \"#utility.yul\":8431:8436   */\n      dup4\n        /* \"#utility.yul\":8357:8437   */\n      tag_416\n      jump\t// in\n    tag_523:\n        /* \"#utility.yul\":8460:8467   */\n      dup1\n        /* \"#utility.yul\":8491:8492   */\n      0x00\n        /* \"#utility.yul\":8476:8832   */\n    tag_524:\n        /* \"#utility.yul\":8501:8507   */\n      dup4\n        /* \"#utility.yul\":8498:8499   */\n      dup2\n        /* \"#utility.yul\":8495:8508   */\n      lt\n        /* \"#utility.yul\":8476:8832   */\n      iszero\n      tag_526\n      jumpi\n        /* \"#utility.yul\":8577:8583   */\n      dup2\n        /* \"#utility.yul\":8571:8584   */\n      mload\n        /* \"#utility.yul\":8604:8715   */\n      tag_527\n        /* \"#utility.yul\":8711:8714   */\n      dup9\n        /* \"#utility.yul\":8696:8709   */\n      dup3\n        /* \"#utility.yul\":8604:8715   */\n      tag_420\n      jump\t// in\n    tag_527:\n        /* \"#utility.yul\":8597:8715   */\n      swap8\n      pop\n        /* \"#utility.yul\":8738:8822   */\n      tag_528\n        /* \"#utility.yul\":8815:8821   */\n      dup4\n        /* \"#utility.yul\":8738:8822   */\n      tag_421\n      jump\t// in\n    tag_528:\n        /* \"#utility.yul\":8728:8822   */\n      swap3\n      pop\n        /* \"#utility.yul\":8536:8832   */\n      pop\n        /* \"#utility.yul\":8523:8524   */\n      0x01\n        /* \"#utility.yul\":8520:8521   */\n      dup2\n        /* \"#utility.yul\":8516:8525   */\n      add\n        /* \"#utility.yul\":8511:8525   */\n      swap1\n      pop\n        /* \"#utility.yul\":8476:8832   */\n      jump(tag_524)\n    tag_526:\n        /* \"#utility.yul\":8480:8494   */\n      pop\n        /* \"#utility.yul\":8848:8851   */\n      dup6\n        /* \"#utility.yul\":8841:8851   */\n      swap4\n      pop\n        /* \"#utility.yul\":8105:8857   */\n      pop\n      pop\n      pop\n        /* \"#utility.yul\":7933:8857   */\n      swap3\n      swap2\n      pop\n      pop\n      jump\t// out\n        /* \"#utility.yul\":8863:9332   */\n    tag_50:\n        /* \"#utility.yul\":9054:9058   */\n      0x00\n        /* \"#utility.yul\":9092:9094   */\n      0x20\n        /* \"#utility.yul\":9081:9090   */\n      dup3\n        /* \"#utility.yul\":9077:9095   */\n      add\n        /* \"#utility.yul\":9069:9095   */\n      swap1\n      pop\n        /* \"#utility.yul\":9141:9150   */\n      dup2\n        /* \"#utility.yul\":9135:9139   */\n      dup2\n        /* \"#utility.yul\":9131:9151   */\n      sub\n        /* \"#utility.yul\":9127:9128   */\n      0x00\n        /* \"#utility.yul\":9116:9125   */\n      dup4\n        /* \"#utility.yul\":9112:9129   */\n      add\n        /* \"#utility.yul\":9105:9152   */\n      mstore\n        /* \"#utility.yul\":9169:9325   */\n      tag_530\n        /* \"#utility.yul\":9320:9324   */\n      dup2\n        /* \"#utility.yul\":9311:9317   */\n      dup5\n        /* \"#utility.yul\":9169:9325   */\n      tag_422\n      jump\t// in\n    tag_530:\n        /* \"#utility.yul\":9161:9325   */\n      swap1\n      pop\n        /* \"#utility.yul\":8863:9332   */\n      swap3\n      swap2\n      pop\n      pop\n      jump\t// out\n        /* \"#utility.yul\":9338:9460   */\n    tag_423:\n        /* \"#utility.yul\":9411:9435   */\n      tag_532\n        /* \"#utility.yul\":9429:9434   */\n      dup2\n        /* \"#utility.yul\":9411:9435   */\n      tag_417\n      jump\t// in\n    tag_532:\n        /* \"#utility.yul\":9404:9409   */\n      dup2\n        /* \"#utility.yul\":9401:9436   */\n      eq\n        /* \"#utility.yul\":9391:9454   */\n      tag_533\n      jumpi\n        /* \"#utility.yul\":9450:9451   */\n      0x00\n        /* \"#utility.yul\":9447:9448   */\n      dup1\n        /* \"#utility.yul\":9440:9452   */\n      revert\n        /* \"#utility.yul\":9391:9454   */\n    tag_533:\n        /* \"#utility.yul\":9338:9460   */\n      pop\n      jump\t// out\n        /* \"#utility.yul\":9466:9605   */\n    tag_424:\n        /* \"#utility.yul\":9512:9517   */\n      0x00\n        /* \"#utility.yul\":9550:9556   */\n      dup2\n        /* \"#utility.yul\":9537:9557   */\n      calldataload\n        /* \"#utility.yul\":9528:9557   */\n      swap1\n      pop\n        /* \"#utility.yul\":9566:9599   */\n      tag_535\n        /* \"#utility.yul\":9593:9598   */\n      dup2\n        /* \"#utility.yul\":9566:9599   */\n      tag_423\n      jump\t// in\n    tag_535:\n        /* \"#utility.yul\":9466:9605   */\n      swap3\n      swap2\n      pop\n      pop\n      jump\t// out\n        /* \"#utility.yul\":9611:9940   */\n    tag_55:\n        /* \"#utility.yul\":9670:9676   */\n      0x00\n        /* \"#utility.yul\":9719:9721   */\n      0x20\n        /* \"#utility.yul\":9707:9716   */\n      dup3\n        /* \"#utility.yul\":9698:9705   */\n      dup5\n        /* \"#utility.yul\":9694:9717   */\n      sub\n        /* \"#utility.yul\":9690:9722   */\n      slt\n        /* \"#utility.yul\":9687:9806   */\n      iszero\n      tag_537\n      jumpi\n        /* \"#utility.yul\":9725:9804   */\n      tag_538\n      tag_401\n      jump\t// in\n    tag_538:\n        /* \"#utility.yul\":9687:9806   */\n    tag_537:\n        /* \"#utility.yul\":9845:9846   */\n      0x00\n        /* \"#utility.yul\":9870:9923   */\n      tag_539\n        /* \"#utility.yul\":9915:9922   */\n      dup5\n        /* \"#utility.yul\":9906:9912   */\n      dup3\n        /* \"#utility.yul\":9895:9904   */\n      dup6\n        /* \"#utility.yul\":9891:9913   */\n      add\n        /* \"#utility.yul\":9870:9923   */\n      tag_424\n      jump\t// in\n    tag_539:\n        /* \"#utility.yul\":9860:9923   */\n      swap2\n      pop\n        /* \"#utility.yul\":9816:9933   */\n      pop\n        /* \"#utility.yul\":9611:9940   */\n      swap3\n      swap2\n      pop\n      pop\n      jump\t// out\n        /* \"#utility.yul\":9946:10064   */\n    tag_425:\n        /* \"#utility.yul\":10033:10057   */\n      tag_541\n        /* \"#utility.yul\":10051:10056   */\n      dup2\n        /* \"#utility.yul\":10033:10057   */\n      tag_417\n      jump\t// in\n    tag_541:\n        /* \"#utility.yul\":10028:10031   */\n      dup3\n        /* \"#utility.yul\":10021:10058   */\n      mstore\n        /* \"#utility.yul\":9946:10064   */\n      pop\n      pop\n      jump\t// out\n        /* \"#utility.yul\":10070:10402   */\n    tag_58:\n        /* \"#utility.yul\":10191:10195   */\n      0x00\n        /* \"#utility.yul\":10229:10231   */\n      0x40\n        /* \"#utility.yul\":10218:10227   */\n      dup3\n        /* \"#utility.yul\":10214:10232   */\n      add\n        /* \"#utility.yul\":10206:10232   */\n      swap1\n      pop\n        /* \"#utility.yul\":10242:10313   */\n      tag_543\n        /* \"#utility.yul\":10310:10311   */\n      0x00\n        /* \"#utility.yul\":10299:10308   */\n      dup4\n        /* \"#utility.yul\":10295:10312   */\n      add\n        /* \"#utility.yul\":10286:10292   */\n      dup6\n        /* \"#utility.yul\":10242:10313   */\n      tag_425\n      jump\t// in\n    tag_543:\n        /* \"#utility.yul\":10323:10395   */\n      tag_544\n        /* \"#utility.yul\":10391:10393   */\n      0x20\n        /* \"#utility.yul\":10380:10389   */\n      dup4\n        /* \"#utility.yul\":10376:10394   */\n      add\n        /* \"#utility.yul\":10367:10373   */\n      dup5\n        /* \"#utility.yul\":10323:10395   */\n      tag_425\n      jump\t// in\n    tag_544:\n        /* \"#utility.yul\":10070:10402   */\n      swap4\n      swap3\n      pop\n      pop\n      pop\n      jump\t// out\n        /* \"#utility.yul\":10408:10517   */\n    tag_426:\n        /* \"#utility.yul\":10489:10510   */\n      tag_546\n        /* \"#utility.yul\":10504:10509   */\n      dup2\n        /* \"#utility.yul\":10489:10510   */\n      tag_405\n      jump\t// in\n    tag_546:\n        /* \"#utility.yul\":10484:10487   */\n      dup3\n        /* \"#utility.yul\":10477:10511   */\n      mstore\n        /* \"#utility.yul\":10408:10517   */\n      pop\n      pop\n      jump\t// out\n        /* \"#utility.yul\":10523:10733   */\n    tag_73:\n        /* \"#utility.yul\":10610:10614   */\n      0x00\n        /* \"#utility.yul\":10648:10650   */\n      0x20\n        /* \"#utility.yul\":10637:10646   */\n      dup3\n        /* \"#utility.yul\":10633:10651   */\n      add\n        /* \"#utility.yul\":10625:10651   */\n      swap1\n      pop\n        /* \"#utility.yul\":10661:10726   */\n      tag_548\n        /* \"#utility.yul\":10723:10724   */\n      0x00\n        /* \"#utility.yul\":10712:10721   */\n      dup4\n        /* \"#utility.yul\":10708:10725   */\n      add\n        /* \"#utility.yul\":10699:10705   */\n      dup5\n        /* \"#utility.yul\":10661:10726   */\n      tag_426\n      jump\t// in\n    tag_548:\n        /* \"#utility.yul\":10523:10733   */\n      swap3\n      swap2\n      pop\n      pop\n      jump\t// out\n        /* \"#utility.yul\":10739:10908   */\n    tag_427:\n        /* \"#utility.yul\":10823:10834   */\n      0x00\n        /* \"#utility.yul\":10857:10863   */\n      dup3\n        /* \"#utility.yul\":10852:10855   */\n      dup3\n        /* \"#utility.yul\":10845:10864   */\n      mstore\n        /* \"#utility.yul\":10897:10901   */\n      0x20\n        /* \"#utility.yul\":10892:10895   */\n      dup3\n        /* \"#utility.yul\":10888:10902   */\n      add\n        /* \"#utility.yul\":10873:10902   */\n      swap1\n      pop\n        /* \"#utility.yul\":10739:10908   */\n      swap3\n      swap2\n      pop\n      pop\n      jump\t// out\n        /* \"#utility.yul\":10914:11085   */\n    tag_428:\n        /* \"#utility.yul\":11054:11077   */\n      0x4e6f2073657373696f6e2069732072756e6e696e670000000000000000000000\n        /* \"#utility.yul\":11050:11051   */\n      0x00\n        /* \"#utility.yul\":11042:11048   */\n      dup3\n        /* \"#utility.yul\":11038:11052   */\n      add\n        /* \"#utility.yul\":11031:11078   */\n      mstore\n        /* \"#utility.yul\":10914:11085   */\n      pop\n      jump\t// out\n        /* \"#utility.yul\":11091:11457   */\n    tag_429:\n        /* \"#utility.yul\":11233:11236   */\n      0x00\n        /* \"#utility.yul\":11254:11321   */\n      tag_552\n        /* \"#utility.yul\":11318:11320   */\n      0x15\n        /* \"#utility.yul\":11313:11316   */\n      dup4\n        /* \"#utility.yul\":11254:11321   */\n      tag_427\n      jump\t// in\n    tag_552:\n        /* \"#utility.yul\":11247:11321   */\n      swap2\n      pop\n        /* \"#utility.yul\":11330:11423   */\n      tag_553\n        /* \"#utility.yul\":11419:11422   */\n      dup3\n        /* \"#utility.yul\":11330:11423   */\n      tag_428\n      jump\t// in\n    tag_553:\n        /* \"#utility.yul\":11448:11450   */\n      0x20\n        /* \"#utility.yul\":11443:11446   */\n      dup3\n        /* \"#utility.yul\":11439:11451   */\n      add\n        /* \"#utility.yul\":11432:11451   */\n      swap1\n      pop\n        /* \"#utility.yul\":11091:11457   */\n      swap2\n      swap1\n      pop\n      jump\t// out\n        /* \"#utility.yul\":11463:11882   */\n    tag_100:\n        /* \"#utility.yul\":11629:11633   */\n      0x00\n        /* \"#utility.yul\":11667:11669   */\n      0x20\n        /* \"#utility.yul\":11656:11665   */\n      dup3\n        /* \"#utility.yul\":11652:11670   */\n      add\n        /* \"#utility.yul\":11644:11670   */\n      swap1\n      pop\n        /* \"#utility.yul\":11716:11725   */\n      dup2\n        /* \"#utility.yul\":11710:11714   */\n      dup2\n        /* \"#utility.yul\":11706:11726   */\n      sub\n        /* \"#utility.yul\":11702:11703   */\n      0x00\n        /* \"#utility.yul\":11691:11700   */\n      dup4\n        /* \"#utility.yul\":11687:11704   */\n      add\n        /* \"#utility.yul\":11680:11727   */\n      mstore\n        /* \"#utility.yul\":11744:11875   */\n      tag_555\n        /* \"#utility.yul\":11870:11874   */\n      dup2\n        /* \"#utility.yul\":11744:11875   */\n      tag_429\n      jump\t// in\n    tag_555:\n        /* \"#utility.yul\":11736:11875   */\n      swap1\n      pop\n        /* \"#utility.yul\":11463:11882   */\n      swap2\n      swap1\n      pop\n      jump\t// out\n        /* \"#utility.yul\":11888:12068   */\n    tag_430:\n        /* \"#utility.yul\":11936:12013   */\n      0x4e487b7100000000000000000000000000000000000000000000000000000000\n        /* \"#utility.yul\":11933:11934   */\n      0x00\n        /* \"#utility.yul\":11926:12014   */\n      mstore\n        /* \"#utility.yul\":12033:12037   */\n      0x11\n        /* \"#utility.yul\":12030:12031   */\n      0x04\n        /* \"#utility.yul\":12023:12038   */\n      mstore\n        /* \"#utility.yul\":12057:12061   */\n      0x24\n        /* \"#utility.yul\":12054:12055   */\n      0x00\n        /* \"#utility.yul\":12047:12062   */\n      revert\n        /* \"#utility.yul\":12074:12268   */\n    tag_103:\n        /* \"#utility.yul\":12114:12118   */\n      0x00\n        /* \"#utility.yul\":12134:12154   */\n      tag_558\n        /* \"#utility.yul\":12152:12153   */\n      dup3\n        /* \"#utility.yul\":12134:12154   */\n      tag_417\n      jump\t// in\n    tag_558:\n        /* \"#utility.yul\":12129:12154   */\n      swap2\n      pop\n        /* \"#utility.yul\":12168:12188   */\n      tag_559\n        /* \"#utility.yul\":12186:12187   */\n      dup4\n        /* \"#utility.yul\":12168:12188   */\n      tag_417\n      jump\t// in\n    tag_559:\n        /* \"#utility.yul\":12163:12188   */\n      swap3\n      pop\n        /* \"#utility.yul\":12212:12213   */\n      dup3\n        /* \"#utility.yul\":12209:12210   */\n      dup3\n        /* \"#utility.yul\":12205:12214   */\n      sub\n        /* \"#utility.yul\":12197:12214   */\n      swap1\n      pop\n        /* \"#utility.yul\":12236:12237   */\n      dup2\n        /* \"#utility.yul\":12230:12234   */\n      dup2\n        /* \"#utility.yul\":12227:12238   */\n      gt\n        /* \"#utility.yul\":12224:12261   */\n      iszero\n      tag_560\n      jumpi\n        /* \"#utility.yul\":12241:12259   */\n      tag_561\n      tag_430\n      jump\t// in\n    tag_561:\n        /* \"#utility.yul\":12224:12261   */\n    tag_560:\n        /* \"#utility.yul\":12074:12268   */\n      swap3\n      swap2\n      pop\n      pop\n      jump\t// out\n        /* \"#utility.yul\":12274:12454   */\n    tag_106:\n        /* \"#utility.yul\":12322:12399   */\n      0x4e487b7100000000000000000000000000000000000000000000000000000000\n        /* \"#utility.yul\":12319:12320   */\n      0x00\n        /* \"#utility.yul\":12312:12400   */\n      mstore\n        /* \"#utility.yul\":12419:12423   */\n      0x32\n        /* \"#utility.yul\":12416:12417   */\n      0x04\n        /* \"#utility.yul\":12409:12424   */\n      mstore\n        /* \"#utility.yul\":12443:12447   */\n      0x24\n        /* \"#utility.yul\":12440:12441   */\n      0x00\n        /* \"#utility.yul\":12433:12448   */\n      revert\n        /* \"#utility.yul\":12460:12693   */\n    tag_130:\n        /* \"#utility.yul\":12499:12502   */\n      0x00\n        /* \"#utility.yul\":12522:12546   */\n      tag_564\n        /* \"#utility.yul\":12540:12545   */\n      dup3\n        /* \"#utility.yul\":12522:12546   */\n      tag_417\n      jump\t// in\n    tag_564:\n        /* \"#utility.yul\":12513:12546   */\n      swap2\n      pop\n        /* \"#utility.yul\":12568:12634   */\n      0xffffffffffffffffffffffffffffffffffffffffffffffffffffffffffffffff\n        /* \"#utility.yul\":12561:12566   */\n      dup3\n        /* \"#utility.yul\":12558:12635   */\n      sub\n        /* \"#utility.yul\":12555:12658   */\n      tag_565\n      jumpi\n        /* \"#utility.yul\":12638:12656   */\n      tag_566\n      tag_430\n      jump\t// in\n    tag_566:\n        /* \"#utility.yul\":12555:12658   */\n    tag_565:\n        /* \"#utility.yul\":12685:12686   */\n      0x01\n        /* \"#utility.yul\":12678:12683   */\n      dup3\n        /* \"#utility.yul\":12674:12687   */\n      add\n        /* \"#utility.yul\":12667:12687   */\n      swap1\n      pop\n        /* \"#utility.yul\":12460:12693   */\n      swap2\n      swap1\n      pop\n      jump\t// out\n        /* \"#utility.yul\":12699:12879   */\n    tag_147:\n        /* \"#utility.yul\":12747:12824   */\n      0x4e487b7100000000000000000000000000000000000000000000000000000000\n        /* \"#utility.yul\":12744:12745   */\n      0x00\n        /* \"#utility.yul\":12737:12825   */\n      mstore\n        /* \"#utility.yul\":12844:12848   */\n      0x41\n        /* \"#utility.yul\":12841:12842   */\n      0x04\n        /* \"#utility.yul\":12834:12849   */\n      mstore\n        /* \"#utility.yul\":12868:12872   */\n      0x24\n        /* \"#utility.yul\":12865:12866   */\n      0x00\n        /* \"#utility.yul\":12858:12873   */\n      revert\n        /* \"#utility.yul\":12885:13057   */\n    tag_431:\n        /* \"#utility.yul\":13025:13049   */\n      0x53657373696f6e206973206e6f772072756e6e696e6700000000000000000000\n        /* \"#utility.yul\":13021:13022   */\n      0x00\n        /* \"#utility.yul\":13013:13019   */\n      dup3\n        /* \"#utility.yul\":13009:13023   */\n      add\n        /* \"#utility.yul\":13002:13050   */\n      mstore\n        /* \"#utility.yul\":12885:13057   */\n      pop\n      jump\t// out\n        /* \"#utility.yul\":13063:13429   */\n    tag_432:\n        /* \"#utility.yul\":13205:13208   */\n      0x00\n        /* \"#utility.yul\":13226:13293   */\n      tag_570\n        /* \"#utility.yul\":13290:13292   */\n      0x16\n        /* \"#utility.yul\":13285:13288   */\n      dup4\n        /* \"#utility.yul\":13226:13293   */\n      tag_427\n      jump\t// in\n    tag_570:\n        /* \"#utility.yul\":13219:13293   */\n      swap2\n      pop\n        /* \"#utility.yul\":13302:13395   */\n      tag_571\n        /* \"#utility.yul\":13391:13394   */\n      dup3\n        /* \"#utility.yul\":13302:13395   */\n      tag_431\n      jump\t// in\n    tag_571:\n        /* \"#utility.yul\":13420:13422   */\n      0x20\n        /* \"#utility.yul\":13415:13418   */\n      dup3\n        /* \"#utility.yul\":13411:13423   */\n      add\n        /* \"#utility.yul\":13404:13423   */\n      swap1\n      pop\n        /* \"#utility.yul\":13063:13429   */\n      swap2\n      swap1\n      pop\n      jump\t// out\n        /* \"#utility.yul\":13435:13854   */\n    tag_173:\n        /* \"#utility.yul\":13601:13605   */\n      0x00\n        /* \"#utility.yul\":13639:13641   */\n      0x20\n        /* \"#utility.yul\":13628:13637   */\n      dup3\n        /* \"#utility.yul\":13624:13642   */\n      add\n        /* \"#utility.yul\":13616:13642   */\n      swap1\n      pop\n        /* \"#utility.yul\":13688:13697   */\n      dup2\n        /* \"#utility.yul\":13682:13686   */\n      dup2\n        /* \"#utility.yul\":13678:13698   */\n      sub\n        /* \"#utility.yul\":13674:13675   */\n      0x00\n        /* \"#utility.yul\":13663:13672   */\n      dup4\n        /* \"#utility.yul\":13659:13676   */\n      add\n        /* \"#utility.yul\":13652:13699   */\n      mstore\n        /* \"#utility.yul\":13716:13847   */\n      tag_573\n        /* \"#utility.yul\":13842:13846   */\n      dup2\n        /* \"#utility.yul\":13716:13847   */\n      tag_432\n      jump\t// in\n    tag_573:\n        /* \"#utility.yul\":13708:13847   */\n      swap1\n      pop\n        /* \"#utility.yul\":13435:13854   */\n      swap2\n      swap1\n      pop\n      jump\t// out\n        /* \"#utility.yul\":13860:14034   */\n    tag_433:\n        /* \"#utility.yul\":14000:14026   */\n      0x4d656d626572206973206e6f7420726567697374657265640000000000000000\n        /* \"#utility.yul\":13996:13997   */\n      0x00\n        /* \"#utility.yul\":13988:13994   */\n      dup3\n        /* \"#utility.yul\":13984:13998   */\n      add\n        /* \"#utility.yul\":13977:14027   */\n      mstore\n        /* \"#utility.yul\":13860:14034   */\n      pop\n      jump\t// out\n        /* \"#utility.yul\":14040:14406   */\n    tag_434:\n        /* \"#utility.yul\":14182:14185   */\n      0x00\n        /* \"#utility.yul\":14203:14270   */\n      tag_576\n        /* \"#utility.yul\":14267:14269   */\n      0x18\n        /* \"#utility.yul\":14262:14265   */\n      dup4\n        /* \"#utility.yul\":14203:14270   */\n      tag_427\n      jump\t// in\n    tag_576:\n        /* \"#utility.yul\":14196:14270   */\n      swap2\n      pop\n        /* \"#utility.yul\":14279:14372   */\n      tag_577\n        /* \"#utility.yul\":14368:14371   */\n      dup3\n        /* \"#utility.yul\":14279:14372   */\n      tag_433\n      jump\t// in\n    tag_577:\n        /* \"#utility.yul\":14397:14399   */\n      0x20\n        /* \"#utility.yul\":14392:14395   */\n      dup3\n        /* \"#utility.yul\":14388:14400   */\n      add\n        /* \"#utility.yul\":14381:14400   */\n      swap1\n      pop\n        /* \"#utility.yul\":14040:14406   */\n      swap2\n      swap1\n      pop\n      jump\t// out\n        /* \"#utility.yul\":14412:14831   */\n    tag_241:\n        /* \"#utility.yul\":14578:14582   */\n      0x00\n        /* \"#utility.yul\":14616:14618   */\n      0x20\n        /* \"#utility.yul\":14605:14614   */\n      dup3\n        /* \"#utility.yul\":14601:14619   */\n      add\n        /* \"#utility.yul\":14593:14619   */\n      swap1\n      pop\n        /* \"#utility.yul\":14665:14674   */\n      dup2\n        /* \"#utility.yul\":14659:14663   */\n      dup2\n        /* \"#utility.yul\":14655:14675   */\n      sub\n        /* \"#utility.yul\":14651:14652   */\n      0x00\n        /* \"#utility.yul\":14640:14649   */\n      dup4\n        /* \"#utility.yul\":14636:14653   */\n      add\n        /* \"#utility.yul\":14629:14676   */\n      mstore\n        /* \"#utility.yul\":14693:14824   */\n      tag_579\n        /* \"#utility.yul\":14819:14823   */\n      dup2\n        /* \"#utility.yul\":14693:14824   */\n      tag_434\n      jump\t// in\n    tag_579:\n        /* \"#utility.yul\":14685:14824   */\n      swap1\n      pop\n        /* \"#utility.yul\":14412:14831   */\n      swap2\n      swap1\n      pop\n      jump\t// out\n        /* \"#utility.yul\":14837:15016   */\n    tag_435:\n        /* \"#utility.yul\":14977:15008   */\n      0x4d656d6265722068617320616c726561647920636865636b656420696e000000\n        /* \"#utility.yul\":14973:14974   */\n      0x00\n        /* \"#utility.yul\":14965:14971   */\n      dup3\n        /* \"#utility.yul\":14961:14975   */\n      add\n        /* \"#utility.yul\":14954:15009   */\n      mstore\n        /* \"#utility.yul\":14837:15016   */\n      pop\n      jump\t// out\n        /* \"#utility.yul\":15022:15388   */\n    tag_436:\n        /* \"#utility.yul\":15164:15167   */\n      0x00\n        /* \"#utility.yul\":15185:15252   */\n      tag_582\n        /* \"#utility.yul\":15249:15251   */\n      0x1d\n        /* \"#utility.yul\":15244:15247   */\n      dup4\n        /* \"#utility.yul\":15185:15252   */\n      tag_427\n      jump\t// in\n    tag_582:\n        /* \"#utility.yul\":15178:15252   */\n      swap2\n      pop\n        /* \"#utility.yul\":15261:15354   */\n      tag_583\n        /* \"#utility.yul\":15350:15353   */\n      dup3\n        /* \"#utility.yul\":15261:15354   */\n      tag_435\n      jump\t// in\n    tag_583:\n        /* \"#utility.yul\":15379:15381   */\n      0x20\n        /* \"#utility.yul\":15374:15377   */\n      dup3\n        /* \"#utility.yul\":15370:15382   */\n      add\n        /* \"#utility.yul\":15363:15382   */\n      swap1\n      pop\n        /* \"#utility.yul\":15022:15388   */\n      swap2\n      swap1\n      pop\n      jump\t// out\n        /* \"#utility.yul\":15394:15813   */\n    tag_248:\n        /* \"#utility.yul\":15560:15564   */\n      0x00\n        /* \"#utility.yul\":15598:15600   */\n      0x20\n        /* \"#utility.yul\":15587:15596   */\n      dup3\n        /* \"#utility.yul\":15583:15601   */\n      add\n        /* \"#utility.yul\":15575:15601   */\n      swap1\n      pop\n        /* \"#utility.yul\":15647:15656   */\n      dup2\n        /* \"#utility.yul\":15641:15645   */\n      dup2\n        /* \"#utility.yul\":15637:15657   */\n      sub\n        /* \"#utility.yul\":15633:15634   */\n      0x00\n        /* \"#utility.yul\":15622:15631   */\n      dup4\n        /* \"#utility.yul\":15618:15635   */\n      add\n        /* \"#utility.yul\":15611:15658   */\n      mstore\n        /* \"#utility.yul\":15675:15806   */\n      tag_585\n        /* \"#utility.yul\":15801:15805   */\n      dup2\n        /* \"#utility.yul\":15675:15806   */\n      tag_436\n      jump\t// in\n    tag_585:\n        /* \"#utility.yul\":15667:15806   */\n      swap1\n      pop\n        /* \"#utility.yul\":15394:15813   */\n      swap2\n      swap1\n      pop\n      jump\t// out\n        /* \"#utility.yul\":15819:16010   */\n    tag_254:\n        /* \"#utility.yul\":15859:15862   */\n      0x00\n        /* \"#utility.yul\":15878:15898   */\n      tag_587\n        /* \"#utility.yul\":15896:15897   */\n      dup3\n        /* \"#utility.yul\":15878:15898   */\n      tag_417\n      jump\t// in\n    tag_587:\n        /* \"#utility.yul\":15873:15898   */\n      swap2\n      pop\n        /* \"#utility.yul\":15912:15932   */\n      tag_588\n        /* \"#utility.yul\":15930:15931   */\n      dup4\n        /* \"#utility.yul\":15912:15932   */\n      tag_417\n      jump\t// in\n    tag_588:\n        /* \"#utility.yul\":15907:15932   */\n      swap3\n      pop\n        /* \"#utility.yul\":15955:15956   */\n      dup3\n        /* \"#utility.yul\":15952:15953   */\n      dup3\n        /* \"#utility.yul\":15948:15957   */\n      add\n        /* \"#utility.yul\":15941:15957   */\n      swap1\n      pop\n        /* \"#utility.yul\":15976:15979   */\n      dup1\n        /* \"#utility.yul\":15973:15974   */\n      dup3\n        /* \"#utility.yul\":15970:15980   */\n      gt\n        /* \"#utility.yul\":15967:16003   */\n      iszero\n      tag_589\n      jumpi\n        /* \"#utility.yul\":15983:16001   */\n      tag_590\n      tag_430\n      jump\t// in\n    tag_590:\n        /* \"#utility.yul\":15967:16003   */\n    tag_589:\n        /* \"#utility.yul\":15819:16010   */\n      swap3\n      swap2\n      pop\n      pop\n      jump\t// out\n        /* \"#utility.yul\":16016:16186   */\n    tag_437:\n        /* \"#utility.yul\":16156:16178   */\n      0x416c726561647920697320707265736964656e74000000000000000000000000\n        /* \"#utility.yul\":16152:16153   */\n      0x00\n        /* \"#utility.yul\":16144:16150   */\n      dup3\n        /* \"#utility.yul\":16140:16154   */\n      add\n        /* \"#utility.yul\":16133:16179   */\n      mstore\n        /* \"#utility.yul\":16016:16186   */\n      pop\n      jump\t// out\n        /* \"#utility.yul\":16192:16558   */\n    tag_438:\n        /* \"#utility.yul\":16334:16337   */\n      0x00\n        /* \"#utility.yul\":16355:16422   */\n      tag_593\n        /* \"#utility.yul\":16419:16421   */\n      0x14\n        /* \"#utility.yul\":16414:16417   */\n      dup4\n        /* \"#utility.yul\":16355:16422   */\n      tag_427\n      jump\t// in\n    tag_593:\n        /* \"#utility.yul\":16348:16422   */\n      swap2\n      pop\n        /* \"#utility.yul\":16431:16524   */\n      tag_594\n        /* \"#utility.yul\":16520:16523   */\n      dup3\n        /* \"#utility.yul\":16431:16524   */\n      tag_437\n      jump\t// in\n    tag_594:\n        /* \"#utility.yul\":16549:16551   */\n      0x20\n        /* \"#utility.yul\":16544:16547   */\n      dup3\n        /* \"#utility.yul\":16540:16552   */\n      add\n        /* \"#utility.yul\":16533:16552   */\n      swap1\n      pop\n        /* \"#utility.yul\":16192:16558   */\n      swap2\n      swap1\n      pop\n      jump\t// out\n        /* \"#utility.yul\":16564:16983   */\n    tag_277:\n        /* \"#utility.yul\":16730:16734   */\n      0x00\n        /* \"#utility.yul\":16768:16770   */\n      0x20\n        /* \"#utility.yul\":16757:16766   */\n      dup3\n        /* \"#utility.yul\":16753:16771   */\n      add\n        /* \"#utility.yul\":16745:16771   */\n      swap1\n      pop\n        /* \"#utility.yul\":16817:16826   */\n      dup2\n        /* \"#utility.yul\":16811:16815   */\n      dup2\n        /* \"#utility.yul\":16807:16827   */\n      sub\n        /* \"#utility.yul\":16803:16804   */\n      0x00\n        /* \"#utility.yul\":16792:16801   */\n      dup4\n        /* \"#utility.yul\":16788:16805   */\n      add\n        /* \"#utility.yul\":16781:16828   */\n      mstore\n        /* \"#utility.yul\":16845:16976   */\n      tag_596\n        /* \"#utility.yul\":16971:16975   */\n      dup2\n        /* \"#utility.yul\":16845:16976   */\n      tag_438\n      jump\t// in\n    tag_596:\n        /* \"#utility.yul\":16837:16976   */\n      swap1\n      pop\n        /* \"#utility.yul\":16564:16983   */\n      swap2\n      swap1\n      pop\n      jump\t// out\n        /* \"#utility.yul\":16989:17160   */\n    tag_302:\n        /* \"#utility.yul\":17027:17030   */\n      0x00\n        /* \"#utility.yul\":17050:17073   */\n      tag_598\n        /* \"#utility.yul\":17067:17072   */\n      dup3\n        /* \"#utility.yul\":17050:17073   */\n      tag_411\n      jump\t// in\n    tag_598:\n        /* \"#utility.yul\":17041:17073   */\n      swap2\n      pop\n        /* \"#utility.yul\":17095:17101   */\n      0xffff\n        /* \"#utility.yul\":17088:17093   */\n      dup3\n        /* \"#utility.yul\":17085:17102   */\n      sub\n        /* \"#utility.yul\":17082:17125   */\n      tag_599\n      jumpi\n        /* \"#utility.yul\":17105:17123   */\n      tag_600\n      tag_430\n      jump\t// in\n    tag_600:\n        /* \"#utility.yul\":17082:17125   */\n    tag_599:\n        /* \"#utility.yul\":17152:17153   */\n      0x01\n        /* \"#utility.yul\":17145:17150   */\n      dup3\n        /* \"#utility.yul\":17141:17154   */\n      add\n        /* \"#utility.yul\":17134:17154   */\n      swap1\n      pop\n        /* \"#utility.yul\":16989:17160   */\n      swap2\n      swap1\n      pop\n      jump\t// out\n        /* \"#utility.yul\":17166:17391   */\n    tag_439:\n        /* \"#utility.yul\":17306:17340   */\n      0x4f776e61626c653a206e6577206f776e657220697320746865207a65726f2061\n        /* \"#utility.yul\":17302:17303   */\n      0x00\n        /* \"#utility.yul\":17294:17300   */\n      dup3\n        /* \"#utility.yul\":17290:17304   */\n      add\n        /* \"#utility.yul\":17283:17341   */\n      mstore\n        /* \"#utility.yul\":17375:17383   */\n      0x6464726573730000000000000000000000000000000000000000000000000000\n        /* \"#utility.yul\":17370:17372   */\n      0x20\n        /* \"#utility.yul\":17362:17368   */\n      dup3\n        /* \"#utility.yul\":17358:17373   */\n      add\n        /* \"#utility.yul\":17351:17384   */\n      mstore\n        /* \"#utility.yul\":17166:17391   */\n      pop\n      jump\t// out\n        /* \"#utility.yul\":17397:17763   */\n    tag_440:\n        /* \"#utility.yul\":17539:17542   */\n      0x00\n        /* \"#utility.yul\":17560:17627   */\n      tag_603\n        /* \"#utility.yul\":17624:17626   */\n      0x26\n        /* \"#utility.yul\":17619:17622   */\n      dup4\n        /* \"#utility.yul\":17560:17627   */\n      tag_427\n      jump\t// in\n    tag_603:\n        /* \"#utility.yul\":17553:17627   */\n      swap2\n      pop\n        /* \"#utility.yul\":17636:17729   */\n      tag_604\n        /* \"#utility.yul\":17725:17728   */\n      dup3\n        /* \"#utility.yul\":17636:17729   */\n      tag_439\n      jump\t// in\n    tag_604:\n        /* \"#utility.yul\":17754:17756   */\n      0x40\n        /* \"#utility.yul\":17749:17752   */\n      dup3\n        /* \"#utility.yul\":17745:17757   */\n      add\n        /* \"#utility.yul\":17738:17757   */\n      swap1\n      pop\n        /* \"#utility.yul\":17397:17763   */\n      swap2\n      swap1\n      pop\n      jump\t// out\n        /* \"#utility.yul\":17769:18188   */\n    tag_368:\n        /* \"#utility.yul\":17935:17939   */\n      0x00\n        /* \"#utility.yul\":17973:17975   */\n      0x20\n        /* \"#utility.yul\":17962:17971   */\n      dup3\n        /* \"#utility.yul\":17958:17976   */\n      add\n        /* \"#utility.yul\":17950:17976   */\n      swap1\n      pop\n        /* \"#utility.yul\":18022:18031   */\n      dup2\n        /* \"#utility.yul\":18016:18020   */\n      dup2\n        /* \"#utility.yul\":18012:18032   */\n      sub\n        /* \"#utility.yul\":18008:18009   */\n      0x00\n        /* \"#utility.yul\":17997:18006   */\n      dup4\n        /* \"#utility.yul\":17993:18010   */\n      add\n        /* \"#utility.yul\":17986:18033   */\n      mstore\n        /* \"#utility.yul\":18050:18181   */\n      tag_606\n        /* \"#utility.yul\":18176:18180   */\n      dup2\n        /* \"#utility.yul\":18050:18181   */\n      tag_440\n      jump\t// in\n    tag_606:\n        /* \"#utility.yul\":18042:18181   */\n      swap1\n      pop\n        /* \"#utility.yul\":17769:18188   */\n      swap2\n      swap1\n      pop\n      jump\t// out\n        /* \"#utility.yul\":18194:18372   */\n    tag_441:\n        /* \"#utility.yul\":18334:18364   */\n      0x4d656d62657220697320616c7265616479207265676973746572656400000000\n        /* \"#utility.yul\":18330:18331   */\n      0x00\n        /* \"#utility.yul\":18322:18328   */\n      dup3\n        /* \"#utility.yul\":18318:18332   */\n      add\n        /* \"#utility.yul\":18311:18365   */\n      mstore\n        /* \"#utility.yul\":18194:18372   */\n      pop\n      jump\t// out\n        /* \"#utility.yul\":18378:18744   */\n    tag_442:\n        /* \"#utility.yul\":18520:18523   */\n      0x00\n        /* \"#utility.yul\":18541:18608   */\n      tag_609\n        /* \"#utility.yul\":18605:18607   */\n      0x1c\n        /* \"#utility.yul\":18600:18603   */\n      dup4\n        /* \"#utility.yul\":18541:18608   */\n      tag_427\n      jump\t// in\n    tag_609:\n        /* \"#utility.yul\":18534:18608   */\n      swap2\n      pop\n        /* \"#utility.yul\":18617:18710   */\n      tag_610\n        /* \"#utility.yul\":18706:18709   */\n      dup3\n        /* \"#utility.yul\":18617:18710   */\n      tag_441\n      jump\t// in\n    tag_610:\n        /* \"#utility.yul\":18735:18737   */\n      0x20\n        /* \"#utility.yul\":18730:18733   */\n      dup3\n        /* \"#utility.yul\":18726:18738   */\n      add\n        /* \"#utility.yul\":18719:18738   */\n      swap1\n      pop\n        /* \"#utility.yul\":18378:18744   */\n      swap2\n      swap1\n      pop\n      jump\t// out\n        /* \"#utility.yul\":18750:19169   */\n    tag_375:\n        /* \"#utility.yul\":18916:18920   */\n      0x00\n        /* \"#utility.yul\":18954:18956   */\n      0x20\n        /* \"#utility.yul\":18943:18952   */\n      dup3\n        /* \"#utility.yul\":18939:18957   */\n      add\n        /* \"#utility.yul\":18931:18957   */\n      swap1\n      pop\n        /* \"#utility.yul\":19003:19012   */\n      dup2\n        /* \"#utility.yul\":18997:19001   */\n      dup2\n        /* \"#utility.yul\":18993:19013   */\n      sub\n        /* \"#utility.yul\":18989:18990   */\n      0x00\n        /* \"#utility.yul\":18978:18987   */\n      dup4\n        /* \"#utility.yul\":18974:18991   */\n      add\n        /* \"#utility.yul\":18967:19014   */\n      mstore\n        /* \"#utility.yul\":19031:19162   */\n      tag_612\n        /* \"#utility.yul\":19157:19161   */\n      dup2\n        /* \"#utility.yul\":19031:19162   */\n      tag_442\n      jump\t// in\n    tag_612:\n        /* \"#utility.yul\":19023:19162   */\n      swap1\n      pop\n        /* \"#utility.yul\":18750:19169   */\n      swap2\n      swap1\n      pop\n      jump\t// out\n        /* \"#utility.yul\":19175:19357   */\n    tag_443:\n        /* \"#utility.yul\":19315:19349   */\n      0x4f776e61626c653a2063616c6c6572206973206e6f7420746865206f776e6572\n        /* \"#utility.yul\":19311:19312   */\n      0x00\n        /* \"#utility.yul\":19303:19309   */\n      dup3\n        /* \"#utility.yul\":19299:19313   */\n      add\n        /* \"#utility.yul\":19292:19350   */\n      mstore\n        /* \"#utility.yul\":19175:19357   */\n      pop\n      jump\t// out\n        /* \"#utility.yul\":19363:19729   */\n    tag_444:\n        /* \"#utility.yul\":19505:19508   */\n      0x00\n        /* \"#utility.yul\":19526:19593   */\n      tag_615\n        /* \"#utility.yul\":19590:19592   */\n      0x20\n        /* \"#utility.yul\":19585:19588   */\n      dup4\n        /* \"#utility.yul\":19526:19593   */\n      tag_427\n      jump\t// in\n    tag_615:\n        /* \"#utility.yul\":19519:19593   */\n      swap2\n      pop\n        /* \"#utility.yul\":19602:19695   */\n      tag_616\n        /* \"#utility.yul\":19691:19694   */\n      dup3\n        /* \"#utility.yul\":19602:19695   */\n      tag_443\n      jump\t// in\n    tag_616:\n        /* \"#utility.yul\":19720:19722   */\n      0x20\n        /* \"#utility.yul\":19715:19718   */\n      dup3\n        /* \"#utility.yul\":19711:19723   */\n      add\n        /* \"#utility.yul\":19704:19723   */\n      swap1\n      pop\n        /* \"#utility.yul\":19363:19729   */\n      swap2\n      swap1\n      pop\n      jump\t// out\n        /* \"#utility.yul\":19735:20154   */\n    tag_385:\n        /* \"#utility.yul\":19901:19905   */\n      0x00\n        /* \"#utility.yul\":19939:19941   */\n      0x20\n        /* \"#utility.yul\":19928:19937   */\n      dup3\n        /* \"#utility.yul\":19924:19942   */\n      add\n        /* \"#utility.yul\":19916:19942   */\n      swap1\n      pop\n        /* \"#utility.yul\":19988:19997   */\n      dup2\n        /* \"#utility.yul\":19982:19986   */\n      dup2\n        /* \"#utility.yul\":19978:19998   */\n      sub\n        /* \"#utility.yul\":19974:19975   */\n      0x00\n        /* \"#utility.yul\":19963:19972   */\n      dup4\n        /* \"#utility.yul\":19959:19976   */\n      add\n        /* \"#utility.yul\":19952:19999   */\n      mstore\n        /* \"#utility.yul\":20016:20147   */\n      tag_618\n        /* \"#utility.yul\":20142:20146   */\n      dup2\n        /* \"#utility.yul\":20016:20147   */\n      tag_444\n      jump\t// in\n    tag_618:\n        /* \"#utility.yul\":20008:20147   */\n      swap1\n      pop\n        /* \"#utility.yul\":19735:20154   */\n      swap2\n      swap1\n      pop\n      jump\t// out\n\n    auxdata: 0xa26469706673582212206b5b04802fa2dd7e1629d65f0006da0177e8f2b35178ac5b5a179f02d0d328c664736f6c63430008120033\n}\n",
				"bytecode": {
					"linkReferences": {},
					"object": "60806040526001600460006101000a81548160ff0219169083151502179055503480156200002c57600080fd5b506200004d620000416200006460201b60201c565b6200006c60201b60201c565b6200005e336200013060201b60201c565b62000523565b600033905090565b60008060009054906101000a900473ffffffffffffffffffffffffffffffffffffffff169050816000806101000a81548173ffffffffffffffffffffffffffffffffffffffff021916908373ffffffffffffffffffffffffffffffffffffffff1602179055508173ffffffffffffffffffffffffffffffffffffffff168173ffffffffffffffffffffffffffffffffffffffff167f8be0079c531659141344cd1fd0a4f28419497f9722a3daafe3b4186f6b6457e060405160405180910390a35050565b620001406200034560201b60201c565b600260008273ffffffffffffffffffffffffffffffffffffffff1673ffffffffffffffffffffffffffffffffffffffff16815260200190815260200160002060000160009054906101000a900460ff1615620001d3576040517f08c379a0000000000000000000000000000000000000000000000000000000008152600401620001ca9062000460565b60405180910390fd5b6001600260008373ffffffffffffffffffffffffffffffffffffffff1673ffffffffffffffffffffffffffffffffffffffff16815260200190815260200160002060000160006101000a81548160ff0219169083151502179055506000600260008373ffffffffffffffffffffffffffffffffffffffff1673ffffffffffffffffffffffffffffffffffffffff16815260200190815260200160002060000160016101000a81548160ff0219169083600381111562000297576200029662000482565b5b02179055506001819080600181540180825580915050600190039060005260206000200160009091909190916101000a81548173ffffffffffffffffffffffffffffffffffffffff021916908373ffffffffffffffffffffffffffffffffffffffff1602179055508073ffffffffffffffffffffffffffffffffffffffff167f92fabfa210df88d92c2f5a07ddd43a985b208d8b19b7a78ba1284aa4b287d86260405160405180910390a250565b620003556200006460201b60201c565b73ffffffffffffffffffffffffffffffffffffffff166200037b620003d660201b60201c565b73ffffffffffffffffffffffffffffffffffffffff1614620003d4576040517f08c379a0000000000000000000000000000000000000000000000000000000008152600401620003cb9062000501565b60405180910390fd5b565b60008060009054906101000a900473ffffffffffffffffffffffffffffffffffffffff16905090565b600082825260208201905092915050565b7f4d656d62657220697320616c7265616479207265676973746572656400000000600082015250565b600062000448601c83620003ff565b9150620004558262000410565b602082019050919050565b600060208201905081810360008301526200047b8162000439565b9050919050565b7f4e487b7100000000000000000000000000000000000000000000000000000000600052602160045260246000fd5b7f4f776e61626c653a2063616c6c6572206973206e6f7420746865206f776e6572600082015250565b6000620004e9602083620003ff565b9150620004f682620004b1565b602082019050919050565b600060208201905081810360008301526200051c81620004da565b9050919050565b6127ff80620005336000396000f3fe608060405234801561001057600080fd5b506004361061012b5760003560e01c806397049795116100ad578063da7f603211610071578063da7f6032146102c3578063e526e564146102df578063f1ed0331146102fd578063f2fde38b14610307578063fcb4888e146103235761012b565b80639704979514610245578063aaf2e5d81461024f578063ae521e861461026b578063b1d7b82d14610287578063b9936911146102a55761012b565b80632ada2596116100f45780632ada25961461019e5780634f796a6f146101ce578063715018a6146101ec57806381d0061e146101f65780638da5cb5b146102275761012b565b8062738d221461013057806306f4bcbf1461014e57806316d84caa146101585780631cbf1b0214610176578063290d22ae14610180575b600080fd5b61013861033f565b6040516101459190611e6c565b60405180910390f35b61015661034e565b005b6101606105a8565b60405161016d9190611f45565b60405180910390f35b61017e610864565b005b610188610949565b6040516101959190611f45565b60405180910390f35b6101b860048036038101906101b39190611f98565b610c07565b6040516101c591906120dc565b60405180910390f35b6101d6610d16565b6040516101e391906121ee565b60405180910390f35b6101f4610d89565b005b610210600480360381019061020b919061223c565b610d9d565b60405161021e929190612278565b60405180910390f35b61022f610dd1565b60405161023c9190611e6c565b60405180910390f35b61024d610dfa565b005b61026960048036038101906102649190611f98565b6110fc565b005b61028560048036038101906102809190611f98565b6111a5565b005b61028f61122e565b60405161029c91906122b0565b60405180910390f35b6102ad611285565b6040516102ba9190611f45565b60405180910390f35b6102dd60048036038101906102d89190611f98565b611313565b005b6102e7611610565b6040516102f49190611f45565b60405180910390f35b6103056118ce565b005b610321600480360381019061031c9190611f98565b611a08565b005b61033d60048036038101906103389190611f98565b611a8b565b005b6000610349610dd1565b905090565b610356611c92565b61035e61122e565b61039d576040517f08c379a000000000000000000000000000000000000000000000000000000000815260040161039490612328565b60405180910390fd5b42600360016003805490506103b29190612377565b815481106103c3576103c26123ab565b5b90600052602060002090600202016001018190555060005b6001805490508110156105a557600060038111156103fc576103fb611fe0565b5b6002600060018481548110610414576104136123ab565b5b9060005260206000200160009054906101000a900473ffffffffffffffffffffffffffffffffffffffff1673ffffffffffffffffffffffffffffffffffffffff1673ffffffffffffffffffffffffffffffffffffffff16815260200190815260200160002060000160019054906101000a900460ff16600381111561049c5761049b611fe0565b5b0361054b57600360026000600184815481106104bb576104ba6123ab565b5b9060005260206000200160009054906101000a900473ffffffffffffffffffffffffffffffffffffffff1673ffffffffffffffffffffffffffffffffffffffff1673ffffffffffffffffffffffffffffffffffffffff16815260200190815260200160002060000160016101000a81548160ff0219169083600381111561054557610544611fe0565b5b02179055505b61059260018281548110610562576105616123ab565b5b9060005260206000200160009054906101000a900473ffffffffffffffffffffffffffffffffffffffff16611313565b808061059d906123da565b9150506103db565b50565b60606000805b600180549050811015610695576003808111156105ce576105cd611fe0565b5b60026000600184815481106105e6576105e56123ab565b5b9060005260206000200160009054906101000a900473ffffffffffffffffffffffffffffffffffffffff1673ffffffffffffffffffffffffffffffffffffffff1673ffffffffffffffffffffffffffffffffffffffff16815260200190815260200160002060000160019054906101000a900460ff16600381111561066e5761066d611fe0565b5b0361068257818061067e906123da565b9250505b808061068d906123da565b9150506105ae565b5060008167ffffffffffffffff8111156106b2576106b1612422565b5b6040519080825280602002602001820160405280156106e05781602001602082028036833780820191505090505b5090506000805b60018054905081101561085a5760038081111561070757610706611fe0565b5b600260006001848154811061071f5761071e6123ab565b5b9060005260206000200160009054906101000a900473ffffffffffffffffffffffffffffffffffffffff1673ffffffffffffffffffffffffffffffffffffffff1673ffffffffffffffffffffffffffffffffffffffff16815260200190815260200160002060000160019054906101000a900460ff1660038111156107a7576107a6611fe0565b5b0361084757600181815481106107c0576107bf6123ab565b5b9060005260206000200160009054906101000a900473ffffffffffffffffffffffffffffffffffffffff168383815181106107fe576107fd6123ab565b5b602002602001019073ffffffffffffffffffffffffffffffffffffffff16908173ffffffffffffffffffffffffffffffffffffffff16815250508180610843906123da565b9250505b8080610852906123da565b9150506106e7565b5081935050505090565b61086c611c92565b61087461122e565b156108b4576040517f08c379a00000000000000000000000000000000000000000000000000000000081526004016108ab9061249d565b60405180910390fd5b600460009054906101000a900460ff166108cd57600080fd5b60036040518060400160405280428152602001600081525090806001815401808255809150506001900390600052602060002090600202016000909190919091506000820151816000015560208201518160010155505061092c610dfa565b6000600460006101000a81548160ff021916908315150217905550565b60606000805b600180549050811015610a3757600260038111156109705761096f611fe0565b5b6002600060018481548110610988576109876123ab565b5b9060005260206000200160009054906101000a900473ffffffffffffffffffffffffffffffffffffffff1673ffffffffffffffffffffffffffffffffffffffff1673ffffffffffffffffffffffffffffffffffffffff16815260200190815260200160002060000160019054906101000a900460ff166003811115610a1057610a0f611fe0565b5b03610a24578180610a20906123da565b9250505b8080610a2f906123da565b91505061094f565b5060008167ffffffffffffffff811115610a5457610a53612422565b5b604051908082528060200260200182016040528015610a825781602001602082028036833780820191505090505b5090506000805b600180549050811015610bfd5760026003811115610aaa57610aa9611fe0565b5b6002600060018481548110610ac257610ac16123ab565b5b9060005260206000200160009054906101000a900473ffffffffffffffffffffffffffffffffffffffff1673ffffffffffffffffffffffffffffffffffffffff1673ffffffffffffffffffffffffffffffffffffffff16815260200190815260200160002060000160019054906101000a900460ff166003811115610b4a57610b49611fe0565b5b03610bea5760018181548110610b6357610b626123ab565b5b9060005260206000200160009054906101000a900473ffffffffffffffffffffffffffffffffffffffff16838381518110610ba157610ba06123ab565b5b602002602001019073ffffffffffffffffffffffffffffffffffffffff16908173ffffffffffffffffffffffffffffffffffffffff16815250508180610be6906123da565b9250505b8080610bf5906123da565b915050610a89565b5081935050505090565b610c0f611ddc565b600260008373ffffffffffffffffffffffffffffffffffffffff1673ffffffffffffffffffffffffffffffffffffffff1681526020019081526020016000206040518060a00160405290816000820160009054906101000a900460ff161515151581526020016000820160019054906101000a900460ff166003811115610c9957610c98611fe0565b5b6003811115610cab57610caa611fe0565b5b81526020016000820160029054906101000a900461ffff1661ffff1661ffff1681526020016000820160049054906101000a900461ffff1661ffff1661ffff1681526020016000820160069054906101000a900461ffff1661ffff1661ffff16815250509050919050565b60606003805480602002602001604051908101604052809291908181526020016000905b82821015610d8057838290600052602060002090600202016040518060400160405290816000820154815260200160018201548152505081526020019060010190610d3a565b50505050905090565b610d91611c92565b610d9b6000611d10565b565b60038181548110610dad57600080fd5b90600052602060002090600202016000915090508060000154908060010154905082565b60008060009054906101000a900473ffffffffffffffffffffffffffffffffffffffff16905090565b33610e04816110fc565b610e0c61122e565b610e4b576040517f08c379a0000000000000000000000000000000000000000000000000000000008152600401610e4290612328565b60405180910390fd5b600260003373ffffffffffffffffffffffffffffffffffffffff1673ffffffffffffffffffffffffffffffffffffffff16815260200190815260200160002060000160009054906101000a900460ff16610eda576040517f08c379a0000000000000000000000000000000000000000000000000000000008152600401610ed190612509565b60405180910390fd5b60006003811115610eee57610eed611fe0565b5b600260003373ffffffffffffffffffffffffffffffffffffffff1673ffffffffffffffffffffffffffffffffffffffff16815260200190815260200160002060000160019054906101000a900460ff166003811115610f5057610f4f611fe0565b5b14610f90576040517f08c379a0000000000000000000000000000000000000000000000000000000008152600401610f8790612575565b60405180910390fd5b61012c60036001600380549050610fa79190612377565b81548110610fb857610fb76123ab565b5b906000526020600020906002020160000154610fd49190612595565b42111561104a5760028060003373ffffffffffffffffffffffffffffffffffffffff1673ffffffffffffffffffffffffffffffffffffffff16815260200190815260200160002060000160016101000a81548160ff021916908360038111156110405761103f611fe0565b5b02179055506110b6565b6001600260003373ffffffffffffffffffffffffffffffffffffffff1673ffffffffffffffffffffffffffffffffffffffff16815260200190815260200160002060000160016101000a81548160ff021916908360038111156110b0576110af611fe0565b5b02179055505b3373ffffffffffffffffffffffffffffffffffffffff167fca65439c87d5a81e31812d288fcab5f037079522670063c49e3617fbf4b929b460405160405180910390a250565b6000805b600180549050811015611196578273ffffffffffffffffffffffffffffffffffffffff1660018281548110611138576111376123ab565b5b9060005260206000200160009054906101000a900473ffffffffffffffffffffffffffffffffffffffff1673ffffffffffffffffffffffffffffffffffffffff160361118357600191505b808061118e906123da565b915050611100565b50806111a157600080fd5b5050565b6111ad611c92565b8073ffffffffffffffffffffffffffffffffffffffff166111cc610dd1565b73ffffffffffffffffffffffffffffffffffffffff1603611222576040517f08c379a000000000000000000000000000000000000000000000000000000000815260040161121990612615565b60405180910390fd5b61122b81611a08565b50565b600080600380549050036112455760009050611282565b60006003600160038054905061125b9190612377565b8154811061126c5761126b6123ab565b5b9060005260206000209060020201600101541490505b90565b6060600180548060200260200160405190810160405280929190818152602001828054801561130957602002820191906000526020600020905b8160009054906101000a900473ffffffffffffffffffffffffffffffffffffffff1673ffffffffffffffffffffffffffffffffffffffff16815260200190600101908083116112bf575b5050505050905090565b61131b611c92565b6000600381111561132f5761132e611fe0565b5b600260008373ffffffffffffffffffffffffffffffffffffffff1673ffffffffffffffffffffffffffffffffffffffff16815260200190815260200160002060000160019054906101000a900460ff16600381111561139157611390611fe0565b5b0361139b57600080fd5b600260038111156113af576113ae611fe0565b5b600260008373ffffffffffffffffffffffffffffffffffffffff1673ffffffffffffffffffffffffffffffffffffffff16815260200190815260200160002060000160019054906101000a900460ff16600381111561141157611410611fe0565b5b0361149657600260008273ffffffffffffffffffffffffffffffffffffffff1673ffffffffffffffffffffffffffffffffffffffff168152602001908152602001600020600001600481819054906101000a900461ffff168092919061147690612635565b91906101000a81548161ffff021916908361ffff1602179055505061160d565b6003808111156114a9576114a8611fe0565b5b600260008373ffffffffffffffffffffffffffffffffffffffff1673ffffffffffffffffffffffffffffffffffffffff16815260200190815260200160002060000160019054906101000a900460ff16600381111561150b5761150a611fe0565b5b0361159057600260008273ffffffffffffffffffffffffffffffffffffffff1673ffffffffffffffffffffffffffffffffffffffff168152602001908152602001600020600001600681819054906101000a900461ffff168092919061157090612635565b91906101000a81548161ffff021916908361ffff1602179055505061160c565b600260008273ffffffffffffffffffffffffffffffffffffffff1673ffffffffffffffffffffffffffffffffffffffff168152602001908152602001600020600001600281819054906101000a900461ffff16809291906115f090612635565b91906101000a81548161ffff021916908361ffff160217905550505b5b50565b60606000805b6001805490508110156116fe576001600381111561163757611636611fe0565b5b600260006001848154811061164f5761164e6123ab565b5b9060005260206000200160009054906101000a900473ffffffffffffffffffffffffffffffffffffffff1673ffffffffffffffffffffffffffffffffffffffff1673ffffffffffffffffffffffffffffffffffffffff16815260200190815260200160002060000160019054906101000a900460ff1660038111156116d7576116d6611fe0565b5b036116eb5781806116e7906123da565b9250505b80806116f6906123da565b915050611616565b5060008167ffffffffffffffff81111561171b5761171a612422565b5b6040519080825280602002602001820160405280156117495781602001602082028036833780820191505090505b5090506000805b6001805490508110156118c4576001600381111561177157611770611fe0565b5b6002600060018481548110611789576117886123ab565b5b9060005260206000200160009054906101000a900473ffffffffffffffffffffffffffffffffffffffff1673ffffffffffffffffffffffffffffffffffffffff1673ffffffffffffffffffffffffffffffffffffffff16815260200190815260200160002060000160019054906101000a900460ff16600381111561181157611810611fe0565b5b036118b1576001818154811061182a576118296123ab565b5b9060005260206000200160009054906101000a900473ffffffffffffffffffffffffffffffffffffffff16838381518110611868576118676123ab565b5b602002602001019073ffffffffffffffffffffffffffffffffffffffff16908173ffffffffffffffffffffffffffffffffffffffff168152505081806118ad906123da565b9250505b80806118bc906123da565b915050611750565b5081935050505090565b6118d6611c92565b6118de61122e565b1561191e576040517f08c379a00000000000000000000000000000000000000000000000000000000081526004016119159061249d565b60405180910390fd5b60005b6001805490508110156119ea5760006002600060018481548110611948576119476123ab565b5b9060005260206000200160009054906101000a900473ffffffffffffffffffffffffffffffffffffffff1673ffffffffffffffffffffffffffffffffffffffff1673ffffffffffffffffffffffffffffffffffffffff16815260200190815260200160002060000160016101000a81548160ff021916908360038111156119d2576119d1611fe0565b5b021790555080806119e2906123da565b915050611921565b506001600460006101000a81548160ff021916908315150217905550565b611a10611c92565b600073ffffffffffffffffffffffffffffffffffffffff168173ffffffffffffffffffffffffffffffffffffffff1603611a7f576040517f08c379a0000000000000000000000000000000000000000000000000000000008152600401611a76906126d1565b60405180910390fd5b611a8881611d10565b50565b611a93611c92565b600260008273ffffffffffffffffffffffffffffffffffffffff1673ffffffffffffffffffffffffffffffffffffffff16815260200190815260200160002060000160009054906101000a900460ff1615611b23576040517f08c379a0000000000000000000000000000000000000000000000000000000008152600401611b1a9061273d565b60405180910390fd5b6001600260008373ffffffffffffffffffffffffffffffffffffffff1673ffffffffffffffffffffffffffffffffffffffff16815260200190815260200160002060000160006101000a81548160ff0219169083151502179055506000600260008373ffffffffffffffffffffffffffffffffffffffff1673ffffffffffffffffffffffffffffffffffffffff16815260200190815260200160002060000160016101000a81548160ff02191690836003811115611be457611be3611fe0565b5b02179055506001819080600181540180825580915050600190039060005260206000200160009091909190916101000a81548173ffffffffffffffffffffffffffffffffffffffff021916908373ffffffffffffffffffffffffffffffffffffffff1602179055508073ffffffffffffffffffffffffffffffffffffffff167f92fabfa210df88d92c2f5a07ddd43a985b208d8b19b7a78ba1284aa4b287d86260405160405180910390a250565b611c9a611dd4565b73ffffffffffffffffffffffffffffffffffffffff16611cb8610dd1565b73ffffffffffffffffffffffffffffffffffffffff1614611d0e576040517f08c379a0000000000000000000000000000000000000000000000000000000008152600401611d05906127a9565b60405180910390fd5b565b60008060009054906101000a900473ffffffffffffffffffffffffffffffffffffffff169050816000806101000a81548173ffffffffffffffffffffffffffffffffffffffff021916908373ffffffffffffffffffffffffffffffffffffffff1602179055508173ffffffffffffffffffffffffffffffffffffffff168173ffffffffffffffffffffffffffffffffffffffff167f8be0079c531659141344cd1fd0a4f28419497f9722a3daafe3b4186f6b6457e060405160405180910390a35050565b600033905090565b6040518060a0016040528060001515815260200160006003811115611e0457611e03611fe0565b5b8152602001600061ffff168152602001600061ffff168152602001600061ffff1681525090565b600073ffffffffffffffffffffffffffffffffffffffff82169050919050565b6000611e5682611e2b565b9050919050565b611e6681611e4b565b82525050565b6000602082019050611e816000830184611e5d565b92915050565b600081519050919050565b600082825260208201905092915050565b6000819050602082019050919050565b611ebc81611e4b565b82525050565b6000611ece8383611eb3565b60208301905092915050565b6000602082019050919050565b6000611ef282611e87565b611efc8185611e92565b9350611f0783611ea3565b8060005b83811015611f38578151611f1f8882611ec2565b9750611f2a83611eda565b925050600181019050611f0b565b5085935050505092915050565b60006020820190508181036000830152611f5f8184611ee7565b905092915050565b600080fd5b611f7581611e4b565b8114611f8057600080fd5b50565b600081359050611f9281611f6c565b92915050565b600060208284031215611fae57611fad611f67565b5b6000611fbc84828501611f83565b91505092915050565b60008115159050919050565b611fda81611fc5565b82525050565b7f4e487b7100000000000000000000000000000000000000000000000000000000600052602160045260246000fd5b600481106120205761201f611fe0565b5b50565b60008190506120318261200f565b919050565b600061204182612023565b9050919050565b61205181612036565b82525050565b600061ffff82169050919050565b61206e81612057565b82525050565b60a08201600082015161208a6000850182611fd1565b50602082015161209d6020850182612048565b5060408201516120b06040850182612065565b5060608201516120c36060850182612065565b5060808201516120d66080850182612065565b50505050565b600060a0820190506120f16000830184612074565b92915050565b600081519050919050565b600082825260208201905092915050565b6000819050602082019050919050565b6000819050919050565b61213681612123565b82525050565b604082016000820151612152600085018261212d565b506020820151612165602085018261212d565b50505050565b6000612177838361213c565b60408301905092915050565b6000602082019050919050565b600061219b826120f7565b6121a58185612102565b93506121b083612113565b8060005b838110156121e15781516121c8888261216b565b97506121d383612183565b9250506001810190506121b4565b5085935050505092915050565b600060208201905081810360008301526122088184612190565b905092915050565b61221981612123565b811461222457600080fd5b50565b60008135905061223681612210565b92915050565b60006020828403121561225257612251611f67565b5b600061226084828501612227565b91505092915050565b61227281612123565b82525050565b600060408201905061228d6000830185612269565b61229a6020830184612269565b9392505050565b6122aa81611fc5565b82525050565b60006020820190506122c560008301846122a1565b92915050565b600082825260208201905092915050565b7f4e6f2073657373696f6e2069732072756e6e696e670000000000000000000000600082015250565b60006123126015836122cb565b915061231d826122dc565b602082019050919050565b6000602082019050818103600083015261234181612305565b9050919050565b7f4e487b7100000000000000000000000000000000000000000000000000000000600052601160045260246000fd5b600061238282612123565b915061238d83612123565b92508282039050818111156123a5576123a4612348565b5b92915050565b7f4e487b7100000000000000000000000000000000000000000000000000000000600052603260045260246000fd5b60006123e582612123565b91507fffffffffffffffffffffffffffffffffffffffffffffffffffffffffffffffff820361241757612416612348565b5b600182019050919050565b7f4e487b7100000000000000000000000000000000000000000000000000000000600052604160045260246000fd5b7f53657373696f6e206973206e6f772072756e6e696e6700000000000000000000600082015250565b60006124876016836122cb565b915061249282612451565b602082019050919050565b600060208201905081810360008301526124b68161247a565b9050919050565b7f4d656d626572206973206e6f7420726567697374657265640000000000000000600082015250565b60006124f36018836122cb565b91506124fe826124bd565b602082019050919050565b60006020820190508181036000830152612522816124e6565b9050919050565b7f4d656d6265722068617320616c726561647920636865636b656420696e000000600082015250565b600061255f601d836122cb565b915061256a82612529565b602082019050919050565b6000602082019050818103600083015261258e81612552565b9050919050565b60006125a082612123565b91506125ab83612123565b92508282019050808211156125c3576125c2612348565b5b92915050565b7f416c726561647920697320707265736964656e74000000000000000000000000600082015250565b60006125ff6014836122cb565b915061260a826125c9565b602082019050919050565b6000602082019050818103600083015261262e816125f2565b9050919050565b600061264082612057565b915061ffff820361265457612653612348565b5b600182019050919050565b7f4f776e61626c653a206e6577206f776e657220697320746865207a65726f206160008201527f6464726573730000000000000000000000000000000000000000000000000000602082015250565b60006126bb6026836122cb565b91506126c68261265f565b604082019050919050565b600060208201905081810360008301526126ea816126ae565b9050919050565b7f4d656d62657220697320616c7265616479207265676973746572656400000000600082015250565b6000612727601c836122cb565b9150612732826126f1565b602082019050919050565b600060208201905081810360008301526127568161271a565b9050919050565b7f4f776e61626c653a2063616c6c6572206973206e6f7420746865206f776e6572600082015250565b60006127936020836122cb565b915061279e8261275d565b602082019050919050565b600060208201905081810360008301526127c281612786565b905091905056fea26469706673582212206b5b04802fa2dd7e1629d65f0006da0177e8f2b35178ac5b5a179f02d0d328c664736f6c63430008120033",
					"opcodes": "PUSH1 0x80 PUSH1 0x40 MSTORE PUSH1 0x1 PUSH1 0x4 PUSH1 0x0 PUSH2 0x100 EXP DUP2 SLOAD DUP2 PUSH1 0xFF MUL NOT AND SWAP1 DUP4 ISZERO ISZERO MUL OR SWAP1 SSTORE POP CALLVALUE DUP1 ISZERO PUSH3 0x2C JUMPI PUSH1 0x0 DUP1 REVERT JUMPDEST POP PUSH3 0x4D PUSH3 0x41 PUSH3 0x64 PUSH1 0x20 SHL PUSH1 0x20 SHR JUMP JUMPDEST PUSH3 0x6C PUSH1 0x20 SHL PUSH1 0x20 SHR JUMP JUMPDEST PUSH3 0x5E CALLER PUSH3 0x130 PUSH1 0x20 SHL PUSH1 0x20 SHR JUMP JUMPDEST PUSH3 0x523 JUMP JUMPDEST PUSH1 0x0 CALLER SWAP1 POP SWAP1 JUMP JUMPDEST PUSH1 0x0 DUP1 PUSH1 0x0 SWAP1 SLOAD SWAP1 PUSH2 0x100 EXP SWAP1 DIV PUSH20 0xFFFFFFFFFFFFFFFFFFFFFFFFFFFFFFFFFFFFFFFF AND SWAP1 POP DUP2 PUSH1 0x0 DUP1 PUSH2 0x100 EXP DUP2 SLOAD DUP2 PUSH20 0xFFFFFFFFFFFFFFFFFFFFFFFFFFFFFFFFFFFFFFFF MUL NOT AND SWAP1 DUP4 PUSH20 0xFFFFFFFFFFFFFFFFFFFFFFFFFFFFFFFFFFFFFFFF AND MUL OR SWAP1 SSTORE POP DUP2 PUSH20 0xFFFFFFFFFFFFFFFFFFFFFFFFFFFFFFFFFFFFFFFF AND DUP2 PUSH20 0xFFFFFFFFFFFFFFFFFFFFFFFFFFFFFFFFFFFFFFFF AND PUSH32 0x8BE0079C531659141344CD1FD0A4F28419497F9722A3DAAFE3B4186F6B6457E0 PUSH1 0x40 MLOAD PUSH1 0x40 MLOAD DUP1 SWAP2 SUB SWAP1 LOG3 POP POP JUMP JUMPDEST PUSH3 0x140 PUSH3 0x345 PUSH1 0x20 SHL PUSH1 0x20 SHR JUMP JUMPDEST PUSH1 0x2 PUSH1 0x0 DUP3 PUSH20 0xFFFFFFFFFFFFFFFFFFFFFFFFFFFFFFFFFFFFFFFF AND PUSH20 0xFFFFFFFFFFFFFFFFFFFFFFFFFFFFFFFFFFFFFFFF AND DUP2 MSTORE PUSH1 0x20 ADD SWAP1 DUP2 MSTORE PUSH1 0x20 ADD PUSH1 0x0 KECCAK256 PUSH1 0x0 ADD PUSH1 0x0 SWAP1 SLOAD SWAP1 PUSH2 0x100 EXP SWAP1 DIV PUSH1 0xFF AND ISZERO PUSH3 0x1D3 JUMPI PUSH1 0x40 MLOAD PUSH32 0x8C379A000000000000000000000000000000000000000000000000000000000 DUP2 MSTORE PUSH1 0x4 ADD PUSH3 0x1CA SWAP1 PUSH3 0x460 JUMP JUMPDEST PUSH1 0x40 MLOAD DUP1 SWAP2 SUB SWAP1 REVERT JUMPDEST PUSH1 0x1 PUSH1 0x2 PUSH1 0x0 DUP4 PUSH20 0xFFFFFFFFFFFFFFFFFFFFFFFFFFFFFFFFFFFFFFFF AND PUSH20 0xFFFFFFFFFFFFFFFFFFFFFFFFFFFFFFFFFFFFFFFF AND DUP2 MSTORE PUSH1 0x20 ADD SWAP1 DUP2 MSTORE PUSH1 0x20 ADD PUSH1 0x0 KECCAK256 PUSH1 0x0 ADD PUSH1 0x0 PUSH2 0x100 EXP DUP2 SLOAD DUP2 PUSH1 0xFF MUL NOT AND SWAP1 DUP4 ISZERO ISZERO MUL OR SWAP1 SSTORE POP PUSH1 0x0 PUSH1 0x2 PUSH1 0x0 DUP4 PUSH20 0xFFFFFFFFFFFFFFFFFFFFFFFFFFFFFFFFFFFFFFFF AND PUSH20 0xFFFFFFFFFFFFFFFFFFFFFFFFFFFFFFFFFFFFFFFF AND DUP2 MSTORE PUSH1 0x20 ADD SWAP1 DUP2 MSTORE PUSH1 0x20 ADD PUSH1 0x0 KECCAK256 PUSH1 0x0 ADD PUSH1 0x1 PUSH2 0x100 EXP DUP2 SLOAD DUP2 PUSH1 0xFF MUL NOT AND SWAP1 DUP4 PUSH1 0x3 DUP2 GT ISZERO PUSH3 0x297 JUMPI PUSH3 0x296 PUSH3 0x482 JUMP JUMPDEST JUMPDEST MUL OR SWAP1 SSTORE POP PUSH1 0x1 DUP2 SWAP1 DUP1 PUSH1 0x1 DUP2 SLOAD ADD DUP1 DUP3 SSTORE DUP1 SWAP2 POP POP PUSH1 0x1 SWAP1 SUB SWAP1 PUSH1 0x0 MSTORE PUSH1 0x20 PUSH1 0x0 KECCAK256 ADD PUSH1 0x0 SWAP1 SWAP2 SWAP1 SWAP2 SWAP1 SWAP2 PUSH2 0x100 EXP DUP2 SLOAD DUP2 PUSH20 0xFFFFFFFFFFFFFFFFFFFFFFFFFFFFFFFFFFFFFFFF MUL NOT AND SWAP1 DUP4 PUSH20 0xFFFFFFFFFFFFFFFFFFFFFFFFFFFFFFFFFFFFFFFF AND MUL OR SWAP1 SSTORE POP DUP1 PUSH20 0xFFFFFFFFFFFFFFFFFFFFFFFFFFFFFFFFFFFFFFFF AND PUSH32 0x92FABFA210DF88D92C2F5A07DDD43A985B208D8B19B7A78BA1284AA4B287D862 PUSH1 0x40 MLOAD PUSH1 0x40 MLOAD DUP1 SWAP2 SUB SWAP1 LOG2 POP JUMP JUMPDEST PUSH3 0x355 PUSH3 0x64 PUSH1 0x20 SHL PUSH1 0x20 SHR JUMP JUMPDEST PUSH20 0xFFFFFFFFFFFFFFFFFFFFFFFFFFFFFFFFFFFFFFFF AND PUSH3 0x37B PUSH3 0x3D6 PUSH1 0x20 SHL PUSH1 0x20 SHR JUMP JUMPDEST PUSH20 0xFFFFFFFFFFFFFFFFFFFFFFFFFFFFFFFFFFFFFFFF AND EQ PUSH3 0x3D4 JUMPI PUSH1 0x40 MLOAD PUSH32 0x8C379A000000000000000000000000000000000000000000000000000000000 DUP2 MSTORE PUSH1 0x4 ADD PUSH3 0x3CB SWAP1 PUSH3 0x501 JUMP JUMPDEST PUSH1 0x40 MLOAD DUP1 SWAP2 SUB SWAP1 REVERT JUMPDEST JUMP JUMPDEST PUSH1 0x0 DUP1 PUSH1 0x0 SWAP1 SLOAD SWAP1 PUSH2 0x100 EXP SWAP1 DIV PUSH20 0xFFFFFFFFFFFFFFFFFFFFFFFFFFFFFFFFFFFFFFFF AND SWAP1 POP SWAP1 JUMP JUMPDEST PUSH1 0x0 DUP3 DUP3 MSTORE PUSH1 0x20 DUP3 ADD SWAP1 POP SWAP3 SWAP2 POP POP JUMP JUMPDEST PUSH32 0x4D656D62657220697320616C7265616479207265676973746572656400000000 PUSH1 0x0 DUP3 ADD MSTORE POP JUMP JUMPDEST PUSH1 0x0 PUSH3 0x448 PUSH1 0x1C DUP4 PUSH3 0x3FF JUMP JUMPDEST SWAP2 POP PUSH3 0x455 DUP3 PUSH3 0x410 JUMP JUMPDEST PUSH1 0x20 DUP3 ADD SWAP1 POP SWAP2 SWAP1 POP JUMP JUMPDEST PUSH1 0x0 PUSH1 0x20 DUP3 ADD SWAP1 POP DUP2 DUP2 SUB PUSH1 0x0 DUP4 ADD MSTORE PUSH3 0x47B DUP2 PUSH3 0x439 JUMP JUMPDEST SWAP1 POP SWAP2 SWAP1 POP JUMP JUMPDEST PUSH32 0x4E487B7100000000000000000000000000000000000000000000000000000000 PUSH1 0x0 MSTORE PUSH1 0x21 PUSH1 0x4 MSTORE PUSH1 0x24 PUSH1 0x0 REVERT JUMPDEST PUSH32 0x4F776E61626C653A2063616C6C6572206973206E6F7420746865206F776E6572 PUSH1 0x0 DUP3 ADD MSTORE POP JUMP JUMPDEST PUSH1 0x0 PUSH3 0x4E9 PUSH1 0x20 DUP4 PUSH3 0x3FF JUMP JUMPDEST SWAP2 POP PUSH3 0x4F6 DUP3 PUSH3 0x4B1 JUMP JUMPDEST PUSH1 0x20 DUP3 ADD SWAP1 POP SWAP2 SWAP1 POP JUMP JUMPDEST PUSH1 0x0 PUSH1 0x20 DUP3 ADD SWAP1 POP DUP2 DUP2 SUB PUSH1 0x0 DUP4 ADD MSTORE PUSH3 0x51C DUP2 PUSH3 0x4DA JUMP JUMPDEST SWAP1 POP SWAP2 SWAP1 POP JUMP JUMPDEST PUSH2 0x27FF DUP1 PUSH3 0x533 PUSH1 0x0 CODECOPY PUSH1 0x0 RETURN INVALID PUSH1 0x80 PUSH1 0x40 MSTORE CALLVALUE DUP1 ISZERO PUSH2 0x10 JUMPI PUSH1 0x0 DUP1 REVERT JUMPDEST POP PUSH1 0x4 CALLDATASIZE LT PUSH2 0x12B JUMPI PUSH1 0x0 CALLDATALOAD PUSH1 0xE0 SHR DUP1 PUSH4 0x97049795 GT PUSH2 0xAD JUMPI DUP1 PUSH4 0xDA7F6032 GT PUSH2 0x71 JUMPI DUP1 PUSH4 0xDA7F6032 EQ PUSH2 0x2C3 JUMPI DUP1 PUSH4 0xE526E564 EQ PUSH2 0x2DF JUMPI DUP1 PUSH4 0xF1ED0331 EQ PUSH2 0x2FD JUMPI DUP1 PUSH4 0xF2FDE38B EQ PUSH2 0x307 JUMPI DUP1 PUSH4 0xFCB4888E EQ PUSH2 0x323 JUMPI PUSH2 0x12B JUMP JUMPDEST DUP1 PUSH4 0x97049795 EQ PUSH2 0x245 JUMPI DUP1 PUSH4 0xAAF2E5D8 EQ PUSH2 0x24F JUMPI DUP1 PUSH4 0xAE521E86 EQ PUSH2 0x26B JUMPI DUP1 PUSH4 0xB1D7B82D EQ PUSH2 0x287 JUMPI DUP1 PUSH4 0xB9936911 EQ PUSH2 0x2A5 JUMPI PUSH2 0x12B JUMP JUMPDEST DUP1 PUSH4 0x2ADA2596 GT PUSH2 0xF4 JUMPI DUP1 PUSH4 0x2ADA2596 EQ PUSH2 0x19E JUMPI DUP1 PUSH4 0x4F796A6F EQ PUSH2 0x1CE JUMPI DUP1 PUSH4 0x715018A6 EQ PUSH2 0x1EC JUMPI DUP1 PUSH4 0x81D0061E EQ PUSH2 0x1F6 JUMPI DUP1 PUSH4 0x8DA5CB5B EQ PUSH2 0x227 JUMPI PUSH2 0x12B JUMP JUMPDEST DUP1 PUSH3 0x738D22 EQ PUSH2 0x130 JUMPI DUP1 PUSH4 0x6F4BCBF EQ PUSH2 0x14E JUMPI DUP1 PUSH4 0x16D84CAA EQ PUSH2 0x158 JUMPI DUP1 PUSH4 0x1CBF1B02 EQ PUSH2 0x176 JUMPI DUP1 PUSH4 0x290D22AE EQ PUSH2 0x180 JUMPI JUMPDEST PUSH1 0x0 DUP1 REVERT JUMPDEST PUSH2 0x138 PUSH2 0x33F JUMP JUMPDEST PUSH1 0x40 MLOAD PUSH2 0x145 SWAP2 SWAP1 PUSH2 0x1E6C JUMP JUMPDEST PUSH1 0x40 MLOAD DUP1 SWAP2 SUB SWAP1 RETURN JUMPDEST PUSH2 0x156 PUSH2 0x34E JUMP JUMPDEST STOP JUMPDEST PUSH2 0x160 PUSH2 0x5A8 JUMP JUMPDEST PUSH1 0x40 MLOAD PUSH2 0x16D SWAP2 SWAP1 PUSH2 0x1F45 JUMP JUMPDEST PUSH1 0x40 MLOAD DUP1 SWAP2 SUB SWAP1 RETURN JUMPDEST PUSH2 0x17E PUSH2 0x864 JUMP JUMPDEST STOP JUMPDEST PUSH2 0x188 PUSH2 0x949 JUMP JUMPDEST PUSH1 0x40 MLOAD PUSH2 0x195 SWAP2 SWAP1 PUSH2 0x1F45 JUMP JUMPDEST PUSH1 0x40 MLOAD DUP1 SWAP2 SUB SWAP1 RETURN JUMPDEST PUSH2 0x1B8 PUSH1 0x4 DUP1 CALLDATASIZE SUB DUP2 ADD SWAP1 PUSH2 0x1B3 SWAP2 SWAP1 PUSH2 0x1F98 JUMP JUMPDEST PUSH2 0xC07 JUMP JUMPDEST PUSH1 0x40 MLOAD PUSH2 0x1C5 SWAP2 SWAP1 PUSH2 0x20DC JUMP JUMPDEST PUSH1 0x40 MLOAD DUP1 SWAP2 SUB SWAP1 RETURN JUMPDEST PUSH2 0x1D6 PUSH2 0xD16 JUMP JUMPDEST PUSH1 0x40 MLOAD PUSH2 0x1E3 SWAP2 SWAP1 PUSH2 0x21EE JUMP JUMPDEST PUSH1 0x40 MLOAD DUP1 SWAP2 SUB SWAP1 RETURN JUMPDEST PUSH2 0x1F4 PUSH2 0xD89 JUMP JUMPDEST STOP JUMPDEST PUSH2 0x210 PUSH1 0x4 DUP1 CALLDATASIZE SUB DUP2 ADD SWAP1 PUSH2 0x20B SWAP2 SWAP1 PUSH2 0x223C JUMP JUMPDEST PUSH2 0xD9D JUMP JUMPDEST PUSH1 0x40 MLOAD PUSH2 0x21E SWAP3 SWAP2 SWAP1 PUSH2 0x2278 JUMP JUMPDEST PUSH1 0x40 MLOAD DUP1 SWAP2 SUB SWAP1 RETURN JUMPDEST PUSH2 0x22F PUSH2 0xDD1 JUMP JUMPDEST PUSH1 0x40 MLOAD PUSH2 0x23C SWAP2 SWAP1 PUSH2 0x1E6C JUMP JUMPDEST PUSH1 0x40 MLOAD DUP1 SWAP2 SUB SWAP1 RETURN JUMPDEST PUSH2 0x24D PUSH2 0xDFA JUMP JUMPDEST STOP JUMPDEST PUSH2 0x269 PUSH1 0x4 DUP1 CALLDATASIZE SUB DUP2 ADD SWAP1 PUSH2 0x264 SWAP2 SWAP1 PUSH2 0x1F98 JUMP JUMPDEST PUSH2 0x10FC JUMP JUMPDEST STOP JUMPDEST PUSH2 0x285 PUSH1 0x4 DUP1 CALLDATASIZE SUB DUP2 ADD SWAP1 PUSH2 0x280 SWAP2 SWAP1 PUSH2 0x1F98 JUMP JUMPDEST PUSH2 0x11A5 JUMP JUMPDEST STOP JUMPDEST PUSH2 0x28F PUSH2 0x122E JUMP JUMPDEST PUSH1 0x40 MLOAD PUSH2 0x29C SWAP2 SWAP1 PUSH2 0x22B0 JUMP JUMPDEST PUSH1 0x40 MLOAD DUP1 SWAP2 SUB SWAP1 RETURN JUMPDEST PUSH2 0x2AD PUSH2 0x1285 JUMP JUMPDEST PUSH1 0x40 MLOAD PUSH2 0x2BA SWAP2 SWAP1 PUSH2 0x1F45 JUMP JUMPDEST PUSH1 0x40 MLOAD DUP1 SWAP2 SUB SWAP1 RETURN JUMPDEST PUSH2 0x2DD PUSH1 0x4 DUP1 CALLDATASIZE SUB DUP2 ADD SWAP1 PUSH2 0x2D8 SWAP2 SWAP1 PUSH2 0x1F98 JUMP JUMPDEST PUSH2 0x1313 JUMP JUMPDEST STOP JUMPDEST PUSH2 0x2E7 PUSH2 0x1610 JUMP JUMPDEST PUSH1 0x40 MLOAD PUSH2 0x2F4 SWAP2 SWAP1 PUSH2 0x1F45 JUMP JUMPDEST PUSH1 0x40 MLOAD DUP1 SWAP2 SUB SWAP1 RETURN JUMPDEST PUSH2 0x305 PUSH2 0x18CE JUMP JUMPDEST STOP JUMPDEST PUSH2 0x321 PUSH1 0x4 DUP1 CALLDATASIZE SUB DUP2 ADD SWAP1 PUSH2 0x31C SWAP2 SWAP1 PUSH2 0x1F98 JUMP JUMPDEST PUSH2 0x1A08 JUMP JUMPDEST STOP JUMPDEST PUSH2 0x33D PUSH1 0x4 DUP1 CALLDATASIZE SUB DUP2 ADD SWAP1 PUSH2 0x338 SWAP2 SWAP1 PUSH2 0x1F98 JUMP JUMPDEST PUSH2 0x1A8B JUMP JUMPDEST STOP JUMPDEST PUSH1 0x0 PUSH2 0x349 PUSH2 0xDD1 JUMP JUMPDEST SWAP1 POP SWAP1 JUMP JUMPDEST PUSH2 0x356 PUSH2 0x1C92 JUMP JUMPDEST PUSH2 0x35E PUSH2 0x122E JUMP JUMPDEST PUSH2 0x39D JUMPI PUSH1 0x40 MLOAD PUSH32 0x8C379A000000000000000000000000000000000000000000000000000000000 DUP2 MSTORE PUSH1 0x4 ADD PUSH2 0x394 SWAP1 PUSH2 0x2328 JUMP JUMPDEST PUSH1 0x40 MLOAD DUP1 SWAP2 SUB SWAP1 REVERT JUMPDEST TIMESTAMP PUSH1 0x3 PUSH1 0x1 PUSH1 0x3 DUP1 SLOAD SWAP1 POP PUSH2 0x3B2 SWAP2 SWAP1 PUSH2 0x2377 JUMP JUMPDEST DUP2 SLOAD DUP2 LT PUSH2 0x3C3 JUMPI PUSH2 0x3C2 PUSH2 0x23AB JUMP JUMPDEST JUMPDEST SWAP1 PUSH1 0x0 MSTORE PUSH1 0x20 PUSH1 0x0 KECCAK256 SWAP1 PUSH1 0x2 MUL ADD PUSH1 0x1 ADD DUP2 SWAP1 SSTORE POP PUSH1 0x0 JUMPDEST PUSH1 0x1 DUP1 SLOAD SWAP1 POP DUP2 LT ISZERO PUSH2 0x5A5 JUMPI PUSH1 0x0 PUSH1 0x3 DUP2 GT ISZERO PUSH2 0x3FC JUMPI PUSH2 0x3FB PUSH2 0x1FE0 JUMP JUMPDEST JUMPDEST PUSH1 0x2 PUSH1 0x0 PUSH1 0x1 DUP5 DUP2 SLOAD DUP2 LT PUSH2 0x414 JUMPI PUSH2 0x413 PUSH2 0x23AB JUMP JUMPDEST JUMPDEST SWAP1 PUSH1 0x0 MSTORE PUSH1 0x20 PUSH1 0x0 KECCAK256 ADD PUSH1 0x0 SWAP1 SLOAD SWAP1 PUSH2 0x100 EXP SWAP1 DIV PUSH20 0xFFFFFFFFFFFFFFFFFFFFFFFFFFFFFFFFFFFFFFFF AND PUSH20 0xFFFFFFFFFFFFFFFFFFFFFFFFFFFFFFFFFFFFFFFF AND PUSH20 0xFFFFFFFFFFFFFFFFFFFFFFFFFFFFFFFFFFFFFFFF AND DUP2 MSTORE PUSH1 0x20 ADD SWAP1 DUP2 MSTORE PUSH1 0x20 ADD PUSH1 0x0 KECCAK256 PUSH1 0x0 ADD PUSH1 0x1 SWAP1 SLOAD SWAP1 PUSH2 0x100 EXP SWAP1 DIV PUSH1 0xFF AND PUSH1 0x3 DUP2 GT ISZERO PUSH2 0x49C JUMPI PUSH2 0x49B PUSH2 0x1FE0 JUMP JUMPDEST JUMPDEST SUB PUSH2 0x54B JUMPI PUSH1 0x3 PUSH1 0x2 PUSH1 0x0 PUSH1 0x1 DUP5 DUP2 SLOAD DUP2 LT PUSH2 0x4BB JUMPI PUSH2 0x4BA PUSH2 0x23AB JUMP JUMPDEST JUMPDEST SWAP1 PUSH1 0x0 MSTORE PUSH1 0x20 PUSH1 0x0 KECCAK256 ADD PUSH1 0x0 SWAP1 SLOAD SWAP1 PUSH2 0x100 EXP SWAP1 DIV PUSH20 0xFFFFFFFFFFFFFFFFFFFFFFFFFFFFFFFFFFFFFFFF AND PUSH20 0xFFFFFFFFFFFFFFFFFFFFFFFFFFFFFFFFFFFFFFFF AND PUSH20 0xFFFFFFFFFFFFFFFFFFFFFFFFFFFFFFFFFFFFFFFF AND DUP2 MSTORE PUSH1 0x20 ADD SWAP1 DUP2 MSTORE PUSH1 0x20 ADD PUSH1 0x0 KECCAK256 PUSH1 0x0 ADD PUSH1 0x1 PUSH2 0x100 EXP DUP2 SLOAD DUP2 PUSH1 0xFF MUL NOT AND SWAP1 DUP4 PUSH1 0x3 DUP2 GT ISZERO PUSH2 0x545 JUMPI PUSH2 0x544 PUSH2 0x1FE0 JUMP JUMPDEST JUMPDEST MUL OR SWAP1 SSTORE POP JUMPDEST PUSH2 0x592 PUSH1 0x1 DUP3 DUP2 SLOAD DUP2 LT PUSH2 0x562 JUMPI PUSH2 0x561 PUSH2 0x23AB JUMP JUMPDEST JUMPDEST SWAP1 PUSH1 0x0 MSTORE PUSH1 0x20 PUSH1 0x0 KECCAK256 ADD PUSH1 0x0 SWAP1 SLOAD SWAP1 PUSH2 0x100 EXP SWAP1 DIV PUSH20 0xFFFFFFFFFFFFFFFFFFFFFFFFFFFFFFFFFFFFFFFF AND PUSH2 0x1313 JUMP JUMPDEST DUP1 DUP1 PUSH2 0x59D SWAP1 PUSH2 0x23DA JUMP JUMPDEST SWAP2 POP POP PUSH2 0x3DB JUMP JUMPDEST POP JUMP JUMPDEST PUSH1 0x60 PUSH1 0x0 DUP1 JUMPDEST PUSH1 0x1 DUP1 SLOAD SWAP1 POP DUP2 LT ISZERO PUSH2 0x695 JUMPI PUSH1 0x3 DUP1 DUP2 GT ISZERO PUSH2 0x5CE JUMPI PUSH2 0x5CD PUSH2 0x1FE0 JUMP JUMPDEST JUMPDEST PUSH1 0x2 PUSH1 0x0 PUSH1 0x1 DUP5 DUP2 SLOAD DUP2 LT PUSH2 0x5E6 JUMPI PUSH2 0x5E5 PUSH2 0x23AB JUMP JUMPDEST JUMPDEST SWAP1 PUSH1 0x0 MSTORE PUSH1 0x20 PUSH1 0x0 KECCAK256 ADD PUSH1 0x0 SWAP1 SLOAD SWAP1 PUSH2 0x100 EXP SWAP1 DIV PUSH20 0xFFFFFFFFFFFFFFFFFFFFFFFFFFFFFFFFFFFFFFFF AND PUSH20 0xFFFFFFFFFFFFFFFFFFFFFFFFFFFFFFFFFFFFFFFF AND PUSH20 0xFFFFFFFFFFFFFFFFFFFFFFFFFFFFFFFFFFFFFFFF AND DUP2 MSTORE PUSH1 0x20 ADD SWAP1 DUP2 MSTORE PUSH1 0x20 ADD PUSH1 0x0 KECCAK256 PUSH1 0x0 ADD PUSH1 0x1 SWAP1 SLOAD SWAP1 PUSH2 0x100 EXP SWAP1 DIV PUSH1 0xFF AND PUSH1 0x3 DUP2 GT ISZERO PUSH2 0x66E JUMPI PUSH2 0x66D PUSH2 0x1FE0 JUMP JUMPDEST JUMPDEST SUB PUSH2 0x682 JUMPI DUP2 DUP1 PUSH2 0x67E SWAP1 PUSH2 0x23DA JUMP JUMPDEST SWAP3 POP POP JUMPDEST DUP1 DUP1 PUSH2 0x68D SWAP1 PUSH2 0x23DA JUMP JUMPDEST SWAP2 POP POP PUSH2 0x5AE JUMP JUMPDEST POP PUSH1 0x0 DUP2 PUSH8 0xFFFFFFFFFFFFFFFF DUP2 GT ISZERO PUSH2 0x6B2 JUMPI PUSH2 0x6B1 PUSH2 0x2422 JUMP JUMPDEST JUMPDEST PUSH1 0x40 MLOAD SWAP1 DUP1 DUP3 MSTORE DUP1 PUSH1 0x20 MUL PUSH1 0x20 ADD DUP3 ADD PUSH1 0x40 MSTORE DUP1 ISZERO PUSH2 0x6E0 JUMPI DUP2 PUSH1 0x20 ADD PUSH1 0x20 DUP3 MUL DUP1 CALLDATASIZE DUP4 CALLDATACOPY DUP1 DUP3 ADD SWAP2 POP POP SWAP1 POP JUMPDEST POP SWAP1 POP PUSH1 0x0 DUP1 JUMPDEST PUSH1 0x1 DUP1 SLOAD SWAP1 POP DUP2 LT ISZERO PUSH2 0x85A JUMPI PUSH1 0x3 DUP1 DUP2 GT ISZERO PUSH2 0x707 JUMPI PUSH2 0x706 PUSH2 0x1FE0 JUMP JUMPDEST JUMPDEST PUSH1 0x2 PUSH1 0x0 PUSH1 0x1 DUP5 DUP2 SLOAD DUP2 LT PUSH2 0x71F JUMPI PUSH2 0x71E PUSH2 0x23AB JUMP JUMPDEST JUMPDEST SWAP1 PUSH1 0x0 MSTORE PUSH1 0x20 PUSH1 0x0 KECCAK256 ADD PUSH1 0x0 SWAP1 SLOAD SWAP1 PUSH2 0x100 EXP SWAP1 DIV PUSH20 0xFFFFFFFFFFFFFFFFFFFFFFFFFFFFFFFFFFFFFFFF AND PUSH20 0xFFFFFFFFFFFFFFFFFFFFFFFFFFFFFFFFFFFFFFFF AND PUSH20 0xFFFFFFFFFFFFFFFFFFFFFFFFFFFFFFFFFFFFFFFF AND DUP2 MSTORE PUSH1 0x20 ADD SWAP1 DUP2 MSTORE PUSH1 0x20 ADD PUSH1 0x0 KECCAK256 PUSH1 0x0 ADD PUSH1 0x1 SWAP1 SLOAD SWAP1 PUSH2 0x100 EXP SWAP1 DIV PUSH1 0xFF AND PUSH1 0x3 DUP2 GT ISZERO PUSH2 0x7A7 JUMPI PUSH2 0x7A6 PUSH2 0x1FE0 JUMP JUMPDEST JUMPDEST SUB PUSH2 0x847 JUMPI PUSH1 0x1 DUP2 DUP2 SLOAD DUP2 LT PUSH2 0x7C0 JUMPI PUSH2 0x7BF PUSH2 0x23AB JUMP JUMPDEST JUMPDEST SWAP1 PUSH1 0x0 MSTORE PUSH1 0x20 PUSH1 0x0 KECCAK256 ADD PUSH1 0x0 SWAP1 SLOAD SWAP1 PUSH2 0x100 EXP SWAP1 DIV PUSH20 0xFFFFFFFFFFFFFFFFFFFFFFFFFFFFFFFFFFFFFFFF AND DUP4 DUP4 DUP2 MLOAD DUP2 LT PUSH2 0x7FE JUMPI PUSH2 0x7FD PUSH2 0x23AB JUMP JUMPDEST JUMPDEST PUSH1 0x20 MUL PUSH1 0x20 ADD ADD SWAP1 PUSH20 0xFFFFFFFFFFFFFFFFFFFFFFFFFFFFFFFFFFFFFFFF AND SWAP1 DUP2 PUSH20 0xFFFFFFFFFFFFFFFFFFFFFFFFFFFFFFFFFFFFFFFF AND DUP2 MSTORE POP POP DUP2 DUP1 PUSH2 0x843 SWAP1 PUSH2 0x23DA JUMP JUMPDEST SWAP3 POP POP JUMPDEST DUP1 DUP1 PUSH2 0x852 SWAP1 PUSH2 0x23DA JUMP JUMPDEST SWAP2 POP POP PUSH2 0x6E7 JUMP JUMPDEST POP DUP2 SWAP4 POP POP POP POP SWAP1 JUMP JUMPDEST PUSH2 0x86C PUSH2 0x1C92 JUMP JUMPDEST PUSH2 0x874 PUSH2 0x122E JUMP JUMPDEST ISZERO PUSH2 0x8B4 JUMPI PUSH1 0x40 MLOAD PUSH32 0x8C379A000000000000000000000000000000000000000000000000000000000 DUP2 MSTORE PUSH1 0x4 ADD PUSH2 0x8AB SWAP1 PUSH2 0x249D JUMP JUMPDEST PUSH1 0x40 MLOAD DUP1 SWAP2 SUB SWAP1 REVERT JUMPDEST PUSH1 0x4 PUSH1 0x0 SWAP1 SLOAD SWAP1 PUSH2 0x100 EXP SWAP1 DIV PUSH1 0xFF AND PUSH2 0x8CD JUMPI PUSH1 0x0 DUP1 REVERT JUMPDEST PUSH1 0x3 PUSH1 0x40 MLOAD DUP1 PUSH1 0x40 ADD PUSH1 0x40 MSTORE DUP1 TIMESTAMP DUP2 MSTORE PUSH1 0x20 ADD PUSH1 0x0 DUP2 MSTORE POP SWAP1 DUP1 PUSH1 0x1 DUP2 SLOAD ADD DUP1 DUP3 SSTORE DUP1 SWAP2 POP POP PUSH1 0x1 SWAP1 SUB SWAP1 PUSH1 0x0 MSTORE PUSH1 0x20 PUSH1 0x0 KECCAK256 SWAP1 PUSH1 0x2 MUL ADD PUSH1 0x0 SWAP1 SWAP2 SWAP1 SWAP2 SWAP1 SWAP2 POP PUSH1 0x0 DUP3 ADD MLOAD DUP2 PUSH1 0x0 ADD SSTORE PUSH1 0x20 DUP3 ADD MLOAD DUP2 PUSH1 0x1 ADD SSTORE POP POP PUSH2 0x92C PUSH2 0xDFA JUMP JUMPDEST PUSH1 0x0 PUSH1 0x4 PUSH1 0x0 PUSH2 0x100 EXP DUP2 SLOAD DUP2 PUSH1 0xFF MUL NOT AND SWAP1 DUP4 ISZERO ISZERO MUL OR SWAP1 SSTORE POP JUMP JUMPDEST PUSH1 0x60 PUSH1 0x0 DUP1 JUMPDEST PUSH1 0x1 DUP1 SLOAD SWAP1 POP DUP2 LT ISZERO PUSH2 0xA37 JUMPI PUSH1 0x2 PUSH1 0x3 DUP2 GT ISZERO PUSH2 0x970 JUMPI PUSH2 0x96F PUSH2 0x1FE0 JUMP JUMPDEST JUMPDEST PUSH1 0x2 PUSH1 0x0 PUSH1 0x1 DUP5 DUP2 SLOAD DUP2 LT PUSH2 0x988 JUMPI PUSH2 0x987 PUSH2 0x23AB JUMP JUMPDEST JUMPDEST SWAP1 PUSH1 0x0 MSTORE PUSH1 0x20 PUSH1 0x0 KECCAK256 ADD PUSH1 0x0 SWAP1 SLOAD SWAP1 PUSH2 0x100 EXP SWAP1 DIV PUSH20 0xFFFFFFFFFFFFFFFFFFFFFFFFFFFFFFFFFFFFFFFF AND PUSH20 0xFFFFFFFFFFFFFFFFFFFFFFFFFFFFFFFFFFFFFFFF AND PUSH20 0xFFFFFFFFFFFFFFFFFFFFFFFFFFFFFFFFFFFFFFFF AND DUP2 MSTORE PUSH1 0x20 ADD SWAP1 DUP2 MSTORE PUSH1 0x20 ADD PUSH1 0x0 KECCAK256 PUSH1 0x0 ADD PUSH1 0x1 SWAP1 SLOAD SWAP1 PUSH2 0x100 EXP SWAP1 DIV PUSH1 0xFF AND PUSH1 0x3 DUP2 GT ISZERO PUSH2 0xA10 JUMPI PUSH2 0xA0F PUSH2 0x1FE0 JUMP JUMPDEST JUMPDEST SUB PUSH2 0xA24 JUMPI DUP2 DUP1 PUSH2 0xA20 SWAP1 PUSH2 0x23DA JUMP JUMPDEST SWAP3 POP POP JUMPDEST DUP1 DUP1 PUSH2 0xA2F SWAP1 PUSH2 0x23DA JUMP JUMPDEST SWAP2 POP POP PUSH2 0x94F JUMP JUMPDEST POP PUSH1 0x0 DUP2 PUSH8 0xFFFFFFFFFFFFFFFF DUP2 GT ISZERO PUSH2 0xA54 JUMPI PUSH2 0xA53 PUSH2 0x2422 JUMP JUMPDEST JUMPDEST PUSH1 0x40 MLOAD SWAP1 DUP1 DUP3 MSTORE DUP1 PUSH1 0x20 MUL PUSH1 0x20 ADD DUP3 ADD PUSH1 0x40 MSTORE DUP1 ISZERO PUSH2 0xA82 JUMPI DUP2 PUSH1 0x20 ADD PUSH1 0x20 DUP3 MUL DUP1 CALLDATASIZE DUP4 CALLDATACOPY DUP1 DUP3 ADD SWAP2 POP POP SWAP1 POP JUMPDEST POP SWAP1 POP PUSH1 0x0 DUP1 JUMPDEST PUSH1 0x1 DUP1 SLOAD SWAP1 POP DUP2 LT ISZERO PUSH2 0xBFD JUMPI PUSH1 0x2 PUSH1 0x3 DUP2 GT ISZERO PUSH2 0xAAA JUMPI PUSH2 0xAA9 PUSH2 0x1FE0 JUMP JUMPDEST JUMPDEST PUSH1 0x2 PUSH1 0x0 PUSH1 0x1 DUP5 DUP2 SLOAD DUP2 LT PUSH2 0xAC2 JUMPI PUSH2 0xAC1 PUSH2 0x23AB JUMP JUMPDEST JUMPDEST SWAP1 PUSH1 0x0 MSTORE PUSH1 0x20 PUSH1 0x0 KECCAK256 ADD PUSH1 0x0 SWAP1 SLOAD SWAP1 PUSH2 0x100 EXP SWAP1 DIV PUSH20 0xFFFFFFFFFFFFFFFFFFFFFFFFFFFFFFFFFFFFFFFF AND PUSH20 0xFFFFFFFFFFFFFFFFFFFFFFFFFFFFFFFFFFFFFFFF AND PUSH20 0xFFFFFFFFFFFFFFFFFFFFFFFFFFFFFFFFFFFFFFFF AND DUP2 MSTORE PUSH1 0x20 ADD SWAP1 DUP2 MSTORE PUSH1 0x20 ADD PUSH1 0x0 KECCAK256 PUSH1 0x0 ADD PUSH1 0x1 SWAP1 SLOAD SWAP1 PUSH2 0x100 EXP SWAP1 DIV PUSH1 0xFF AND PUSH1 0x3 DUP2 GT ISZERO PUSH2 0xB4A JUMPI PUSH2 0xB49 PUSH2 0x1FE0 JUMP JUMPDEST JUMPDEST SUB PUSH2 0xBEA JUMPI PUSH1 0x1 DUP2 DUP2 SLOAD DUP2 LT PUSH2 0xB63 JUMPI PUSH2 0xB62 PUSH2 0x23AB JUMP JUMPDEST JUMPDEST SWAP1 PUSH1 0x0 MSTORE PUSH1 0x20 PUSH1 0x0 KECCAK256 ADD PUSH1 0x0 SWAP1 SLOAD SWAP1 PUSH2 0x100 EXP SWAP1 DIV PUSH20 0xFFFFFFFFFFFFFFFFFFFFFFFFFFFFFFFFFFFFFFFF AND DUP4 DUP4 DUP2 MLOAD DUP2 LT PUSH2 0xBA1 JUMPI PUSH2 0xBA0 PUSH2 0x23AB JUMP JUMPDEST JUMPDEST PUSH1 0x20 MUL PUSH1 0x20 ADD ADD SWAP1 PUSH20 0xFFFFFFFFFFFFFFFFFFFFFFFFFFFFFFFFFFFFFFFF AND SWAP1 DUP2 PUSH20 0xFFFFFFFFFFFFFFFFFFFFFFFFFFFFFFFFFFFFFFFF AND DUP2 MSTORE POP POP DUP2 DUP1 PUSH2 0xBE6 SWAP1 PUSH2 0x23DA JUMP JUMPDEST SWAP3 POP POP JUMPDEST DUP1 DUP1 PUSH2 0xBF5 SWAP1 PUSH2 0x23DA JUMP JUMPDEST SWAP2 POP POP PUSH2 0xA89 JUMP JUMPDEST POP DUP2 SWAP4 POP POP POP POP SWAP1 JUMP JUMPDEST PUSH2 0xC0F PUSH2 0x1DDC JUMP JUMPDEST PUSH1 0x2 PUSH1 0x0 DUP4 PUSH20 0xFFFFFFFFFFFFFFFFFFFFFFFFFFFFFFFFFFFFFFFF AND PUSH20 0xFFFFFFFFFFFFFFFFFFFFFFFFFFFFFFFFFFFFFFFF AND DUP2 MSTORE PUSH1 0x20 ADD SWAP1 DUP2 MSTORE PUSH1 0x20 ADD PUSH1 0x0 KECCAK256 PUSH1 0x40 MLOAD DUP1 PUSH1 0xA0 ADD PUSH1 0x40 MSTORE SWAP1 DUP2 PUSH1 0x0 DUP3 ADD PUSH1 0x0 SWAP1 SLOAD SWAP1 PUSH2 0x100 EXP SWAP1 DIV PUSH1 0xFF AND ISZERO ISZERO ISZERO ISZERO DUP2 MSTORE PUSH1 0x20 ADD PUSH1 0x0 DUP3 ADD PUSH1 0x1 SWAP1 SLOAD SWAP1 PUSH2 0x100 EXP SWAP1 DIV PUSH1 0xFF AND PUSH1 0x3 DUP2 GT ISZERO PUSH2 0xC99 JUMPI PUSH2 0xC98 PUSH2 0x1FE0 JUMP JUMPDEST JUMPDEST PUSH1 0x3 DUP2 GT ISZERO PUSH2 0xCAB JUMPI PUSH2 0xCAA PUSH2 0x1FE0 JUMP JUMPDEST JUMPDEST DUP2 MSTORE PUSH1 0x20 ADD PUSH1 0x0 DUP3 ADD PUSH1 0x2 SWAP1 SLOAD SWAP1 PUSH2 0x100 EXP SWAP1 DIV PUSH2 0xFFFF AND PUSH2 0xFFFF AND PUSH2 0xFFFF AND DUP2 MSTORE PUSH1 0x20 ADD PUSH1 0x0 DUP3 ADD PUSH1 0x4 SWAP1 SLOAD SWAP1 PUSH2 0x100 EXP SWAP1 DIV PUSH2 0xFFFF AND PUSH2 0xFFFF AND PUSH2 0xFFFF AND DUP2 MSTORE PUSH1 0x20 ADD PUSH1 0x0 DUP3 ADD PUSH1 0x6 SWAP1 SLOAD SWAP1 PUSH2 0x100 EXP SWAP1 DIV PUSH2 0xFFFF AND PUSH2 0xFFFF AND PUSH2 0xFFFF AND DUP2 MSTORE POP POP SWAP1 POP SWAP2 SWAP1 POP JUMP JUMPDEST PUSH1 0x60 PUSH1 0x3 DUP1 SLOAD DUP1 PUSH1 0x20 MUL PUSH1 0x20 ADD PUSH1 0x40 MLOAD SWAP1 DUP2 ADD PUSH1 0x40 MSTORE DUP1 SWAP3 SWAP2 SWAP1 DUP2 DUP2 MSTORE PUSH1 0x20 ADD PUSH1 0x0 SWAP1 JUMPDEST DUP3 DUP3 LT ISZERO PUSH2 0xD80 JUMPI DUP4 DUP3 SWAP1 PUSH1 0x0 MSTORE PUSH1 0x20 PUSH1 0x0 KECCAK256 SWAP1 PUSH1 0x2 MUL ADD PUSH1 0x40 MLOAD DUP1 PUSH1 0x40 ADD PUSH1 0x40 MSTORE SWAP1 DUP2 PUSH1 0x0 DUP3 ADD SLOAD DUP2 MSTORE PUSH1 0x20 ADD PUSH1 0x1 DUP3 ADD SLOAD DUP2 MSTORE POP POP DUP2 MSTORE PUSH1 0x20 ADD SWAP1 PUSH1 0x1 ADD SWAP1 PUSH2 0xD3A JUMP JUMPDEST POP POP POP POP SWAP1 POP SWAP1 JUMP JUMPDEST PUSH2 0xD91 PUSH2 0x1C92 JUMP JUMPDEST PUSH2 0xD9B PUSH1 0x0 PUSH2 0x1D10 JUMP JUMPDEST JUMP JUMPDEST PUSH1 0x3 DUP2 DUP2 SLOAD DUP2 LT PUSH2 0xDAD JUMPI PUSH1 0x0 DUP1 REVERT JUMPDEST SWAP1 PUSH1 0x0 MSTORE PUSH1 0x20 PUSH1 0x0 KECCAK256 SWAP1 PUSH1 0x2 MUL ADD PUSH1 0x0 SWAP2 POP SWAP1 POP DUP1 PUSH1 0x0 ADD SLOAD SWAP1 DUP1 PUSH1 0x1 ADD SLOAD SWAP1 POP DUP3 JUMP JUMPDEST PUSH1 0x0 DUP1 PUSH1 0x0 SWAP1 SLOAD SWAP1 PUSH2 0x100 EXP SWAP1 DIV PUSH20 0xFFFFFFFFFFFFFFFFFFFFFFFFFFFFFFFFFFFFFFFF AND SWAP1 POP SWAP1 JUMP JUMPDEST CALLER PUSH2 0xE04 DUP2 PUSH2 0x10FC JUMP JUMPDEST PUSH2 0xE0C PUSH2 0x122E JUMP JUMPDEST PUSH2 0xE4B JUMPI PUSH1 0x40 MLOAD PUSH32 0x8C379A000000000000000000000000000000000000000000000000000000000 DUP2 MSTORE PUSH1 0x4 ADD PUSH2 0xE42 SWAP1 PUSH2 0x2328 JUMP JUMPDEST PUSH1 0x40 MLOAD DUP1 SWAP2 SUB SWAP1 REVERT JUMPDEST PUSH1 0x2 PUSH1 0x0 CALLER PUSH20 0xFFFFFFFFFFFFFFFFFFFFFFFFFFFFFFFFFFFFFFFF AND PUSH20 0xFFFFFFFFFFFFFFFFFFFFFFFFFFFFFFFFFFFFFFFF AND DUP2 MSTORE PUSH1 0x20 ADD SWAP1 DUP2 MSTORE PUSH1 0x20 ADD PUSH1 0x0 KECCAK256 PUSH1 0x0 ADD PUSH1 0x0 SWAP1 SLOAD SWAP1 PUSH2 0x100 EXP SWAP1 DIV PUSH1 0xFF AND PUSH2 0xEDA JUMPI PUSH1 0x40 MLOAD PUSH32 0x8C379A000000000000000000000000000000000000000000000000000000000 DUP2 MSTORE PUSH1 0x4 ADD PUSH2 0xED1 SWAP1 PUSH2 0x2509 JUMP JUMPDEST PUSH1 0x40 MLOAD DUP1 SWAP2 SUB SWAP1 REVERT JUMPDEST PUSH1 0x0 PUSH1 0x3 DUP2 GT ISZERO PUSH2 0xEEE JUMPI PUSH2 0xEED PUSH2 0x1FE0 JUMP JUMPDEST JUMPDEST PUSH1 0x2 PUSH1 0x0 CALLER PUSH20 0xFFFFFFFFFFFFFFFFFFFFFFFFFFFFFFFFFFFFFFFF AND PUSH20 0xFFFFFFFFFFFFFFFFFFFFFFFFFFFFFFFFFFFFFFFF AND DUP2 MSTORE PUSH1 0x20 ADD SWAP1 DUP2 MSTORE PUSH1 0x20 ADD PUSH1 0x0 KECCAK256 PUSH1 0x0 ADD PUSH1 0x1 SWAP1 SLOAD SWAP1 PUSH2 0x100 EXP SWAP1 DIV PUSH1 0xFF AND PUSH1 0x3 DUP2 GT ISZERO PUSH2 0xF50 JUMPI PUSH2 0xF4F PUSH2 0x1FE0 JUMP JUMPDEST JUMPDEST EQ PUSH2 0xF90 JUMPI PUSH1 0x40 MLOAD PUSH32 0x8C379A000000000000000000000000000000000000000000000000000000000 DUP2 MSTORE PUSH1 0x4 ADD PUSH2 0xF87 SWAP1 PUSH2 0x2575 JUMP JUMPDEST PUSH1 0x40 MLOAD DUP1 SWAP2 SUB SWAP1 REVERT JUMPDEST PUSH2 0x12C PUSH1 0x3 PUSH1 0x1 PUSH1 0x3 DUP1 SLOAD SWAP1 POP PUSH2 0xFA7 SWAP2 SWAP1 PUSH2 0x2377 JUMP JUMPDEST DUP2 SLOAD DUP2 LT PUSH2 0xFB8 JUMPI PUSH2 0xFB7 PUSH2 0x23AB JUMP JUMPDEST JUMPDEST SWAP1 PUSH1 0x0 MSTORE PUSH1 0x20 PUSH1 0x0 KECCAK256 SWAP1 PUSH1 0x2 MUL ADD PUSH1 0x0 ADD SLOAD PUSH2 0xFD4 SWAP2 SWAP1 PUSH2 0x2595 JUMP JUMPDEST TIMESTAMP GT ISZERO PUSH2 0x104A JUMPI PUSH1 0x2 DUP1 PUSH1 0x0 CALLER PUSH20 0xFFFFFFFFFFFFFFFFFFFFFFFFFFFFFFFFFFFFFFFF AND PUSH20 0xFFFFFFFFFFFFFFFFFFFFFFFFFFFFFFFFFFFFFFFF AND DUP2 MSTORE PUSH1 0x20 ADD SWAP1 DUP2 MSTORE PUSH1 0x20 ADD PUSH1 0x0 KECCAK256 PUSH1 0x0 ADD PUSH1 0x1 PUSH2 0x100 EXP DUP2 SLOAD DUP2 PUSH1 0xFF MUL NOT AND SWAP1 DUP4 PUSH1 0x3 DUP2 GT ISZERO PUSH2 0x1040 JUMPI PUSH2 0x103F PUSH2 0x1FE0 JUMP JUMPDEST JUMPDEST MUL OR SWAP1 SSTORE POP PUSH2 0x10B6 JUMP JUMPDEST PUSH1 0x1 PUSH1 0x2 PUSH1 0x0 CALLER PUSH20 0xFFFFFFFFFFFFFFFFFFFFFFFFFFFFFFFFFFFFFFFF AND PUSH20 0xFFFFFFFFFFFFFFFFFFFFFFFFFFFFFFFFFFFFFFFF AND DUP2 MSTORE PUSH1 0x20 ADD SWAP1 DUP2 MSTORE PUSH1 0x20 ADD PUSH1 0x0 KECCAK256 PUSH1 0x0 ADD PUSH1 0x1 PUSH2 0x100 EXP DUP2 SLOAD DUP2 PUSH1 0xFF MUL NOT AND SWAP1 DUP4 PUSH1 0x3 DUP2 GT ISZERO PUSH2 0x10B0 JUMPI PUSH2 0x10AF PUSH2 0x1FE0 JUMP JUMPDEST JUMPDEST MUL OR SWAP1 SSTORE POP JUMPDEST CALLER PUSH20 0xFFFFFFFFFFFFFFFFFFFFFFFFFFFFFFFFFFFFFFFF AND PUSH32 0xCA65439C87D5A81E31812D288FCAB5F037079522670063C49E3617FBF4B929B4 PUSH1 0x40 MLOAD PUSH1 0x40 MLOAD DUP1 SWAP2 SUB SWAP1 LOG2 POP JUMP JUMPDEST PUSH1 0x0 DUP1 JUMPDEST PUSH1 0x1 DUP1 SLOAD SWAP1 POP DUP2 LT ISZERO PUSH2 0x1196 JUMPI DUP3 PUSH20 0xFFFFFFFFFFFFFFFFFFFFFFFFFFFFFFFFFFFFFFFF AND PUSH1 0x1 DUP3 DUP2 SLOAD DUP2 LT PUSH2 0x1138 JUMPI PUSH2 0x1137 PUSH2 0x23AB JUMP JUMPDEST JUMPDEST SWAP1 PUSH1 0x0 MSTORE PUSH1 0x20 PUSH1 0x0 KECCAK256 ADD PUSH1 0x0 SWAP1 SLOAD SWAP1 PUSH2 0x100 EXP SWAP1 DIV PUSH20 0xFFFFFFFFFFFFFFFFFFFFFFFFFFFFFFFFFFFFFFFF AND PUSH20 0xFFFFFFFFFFFFFFFFFFFFFFFFFFFFFFFFFFFFFFFF AND SUB PUSH2 0x1183 JUMPI PUSH1 0x1 SWAP2 POP JUMPDEST DUP1 DUP1 PUSH2 0x118E SWAP1 PUSH2 0x23DA JUMP JUMPDEST SWAP2 POP POP PUSH2 0x1100 JUMP JUMPDEST POP DUP1 PUSH2 0x11A1 JUMPI PUSH1 0x0 DUP1 REVERT JUMPDEST POP POP JUMP JUMPDEST PUSH2 0x11AD PUSH2 0x1C92 JUMP JUMPDEST DUP1 PUSH20 0xFFFFFFFFFFFFFFFFFFFFFFFFFFFFFFFFFFFFFFFF AND PUSH2 0x11CC PUSH2 0xDD1 JUMP JUMPDEST PUSH20 0xFFFFFFFFFFFFFFFFFFFFFFFFFFFFFFFFFFFFFFFF AND SUB PUSH2 0x1222 JUMPI PUSH1 0x40 MLOAD PUSH32 0x8C379A000000000000000000000000000000000000000000000000000000000 DUP2 MSTORE PUSH1 0x4 ADD PUSH2 0x1219 SWAP1 PUSH2 0x2615 JUMP JUMPDEST PUSH1 0x40 MLOAD DUP1 SWAP2 SUB SWAP1 REVERT JUMPDEST PUSH2 0x122B DUP2 PUSH2 0x1A08 JUMP JUMPDEST POP JUMP JUMPDEST PUSH1 0x0 DUP1 PUSH1 0x3 DUP1 SLOAD SWAP1 POP SUB PUSH2 0x1245 JUMPI PUSH1 0x0 SWAP1 POP PUSH2 0x1282 JUMP JUMPDEST PUSH1 0x0 PUSH1 0x3 PUSH1 0x1 PUSH1 0x3 DUP1 SLOAD SWAP1 POP PUSH2 0x125B SWAP2 SWAP1 PUSH2 0x2377 JUMP JUMPDEST DUP2 SLOAD DUP2 LT PUSH2 0x126C JUMPI PUSH2 0x126B PUSH2 0x23AB JUMP JUMPDEST JUMPDEST SWAP1 PUSH1 0x0 MSTORE PUSH1 0x20 PUSH1 0x0 KECCAK256 SWAP1 PUSH1 0x2 MUL ADD PUSH1 0x1 ADD SLOAD EQ SWAP1 POP JUMPDEST SWAP1 JUMP JUMPDEST PUSH1 0x60 PUSH1 0x1 DUP1 SLOAD DUP1 PUSH1 0x20 MUL PUSH1 0x20 ADD PUSH1 0x40 MLOAD SWAP1 DUP2 ADD PUSH1 0x40 MSTORE DUP1 SWAP3 SWAP2 SWAP1 DUP2 DUP2 MSTORE PUSH1 0x20 ADD DUP3 DUP1 SLOAD DUP1 ISZERO PUSH2 0x1309 JUMPI PUSH1 0x20 MUL DUP3 ADD SWAP2 SWAP1 PUSH1 0x0 MSTORE PUSH1 0x20 PUSH1 0x0 KECCAK256 SWAP1 JUMPDEST DUP2 PUSH1 0x0 SWAP1 SLOAD SWAP1 PUSH2 0x100 EXP SWAP1 DIV PUSH20 0xFFFFFFFFFFFFFFFFFFFFFFFFFFFFFFFFFFFFFFFF AND PUSH20 0xFFFFFFFFFFFFFFFFFFFFFFFFFFFFFFFFFFFFFFFF AND DUP2 MSTORE PUSH1 0x20 ADD SWAP1 PUSH1 0x1 ADD SWAP1 DUP1 DUP4 GT PUSH2 0x12BF JUMPI JUMPDEST POP POP POP POP POP SWAP1 POP SWAP1 JUMP JUMPDEST PUSH2 0x131B PUSH2 0x1C92 JUMP JUMPDEST PUSH1 0x0 PUSH1 0x3 DUP2 GT ISZERO PUSH2 0x132F JUMPI PUSH2 0x132E PUSH2 0x1FE0 JUMP JUMPDEST JUMPDEST PUSH1 0x2 PUSH1 0x0 DUP4 PUSH20 0xFFFFFFFFFFFFFFFFFFFFFFFFFFFFFFFFFFFFFFFF AND PUSH20 0xFFFFFFFFFFFFFFFFFFFFFFFFFFFFFFFFFFFFFFFF AND DUP2 MSTORE PUSH1 0x20 ADD SWAP1 DUP2 MSTORE PUSH1 0x20 ADD PUSH1 0x0 KECCAK256 PUSH1 0x0 ADD PUSH1 0x1 SWAP1 SLOAD SWAP1 PUSH2 0x100 EXP SWAP1 DIV PUSH1 0xFF AND PUSH1 0x3 DUP2 GT ISZERO PUSH2 0x1391 JUMPI PUSH2 0x1390 PUSH2 0x1FE0 JUMP JUMPDEST JUMPDEST SUB PUSH2 0x139B JUMPI PUSH1 0x0 DUP1 REVERT JUMPDEST PUSH1 0x2 PUSH1 0x3 DUP2 GT ISZERO PUSH2 0x13AF JUMPI PUSH2 0x13AE PUSH2 0x1FE0 JUMP JUMPDEST JUMPDEST PUSH1 0x2 PUSH1 0x0 DUP4 PUSH20 0xFFFFFFFFFFFFFFFFFFFFFFFFFFFFFFFFFFFFFFFF AND PUSH20 0xFFFFFFFFFFFFFFFFFFFFFFFFFFFFFFFFFFFFFFFF AND DUP2 MSTORE PUSH1 0x20 ADD SWAP1 DUP2 MSTORE PUSH1 0x20 ADD PUSH1 0x0 KECCAK256 PUSH1 0x0 ADD PUSH1 0x1 SWAP1 SLOAD SWAP1 PUSH2 0x100 EXP SWAP1 DIV PUSH1 0xFF AND PUSH1 0x3 DUP2 GT ISZERO PUSH2 0x1411 JUMPI PUSH2 0x1410 PUSH2 0x1FE0 JUMP JUMPDEST JUMPDEST SUB PUSH2 0x1496 JUMPI PUSH1 0x2 PUSH1 0x0 DUP3 PUSH20 0xFFFFFFFFFFFFFFFFFFFFFFFFFFFFFFFFFFFFFFFF AND PUSH20 0xFFFFFFFFFFFFFFFFFFFFFFFFFFFFFFFFFFFFFFFF AND DUP2 MSTORE PUSH1 0x20 ADD SWAP1 DUP2 MSTORE PUSH1 0x20 ADD PUSH1 0x0 KECCAK256 PUSH1 0x0 ADD PUSH1 0x4 DUP2 DUP2 SWAP1 SLOAD SWAP1 PUSH2 0x100 EXP SWAP1 DIV PUSH2 0xFFFF AND DUP1 SWAP3 SWAP2 SWAP1 PUSH2 0x1476 SWAP1 PUSH2 0x2635 JUMP JUMPDEST SWAP2 SWAP1 PUSH2 0x100 EXP DUP2 SLOAD DUP2 PUSH2 0xFFFF MUL NOT AND SWAP1 DUP4 PUSH2 0xFFFF AND MUL OR SWAP1 SSTORE POP POP PUSH2 0x160D JUMP JUMPDEST PUSH1 0x3 DUP1 DUP2 GT ISZERO PUSH2 0x14A9 JUMPI PUSH2 0x14A8 PUSH2 0x1FE0 JUMP JUMPDEST JUMPDEST PUSH1 0x2 PUSH1 0x0 DUP4 PUSH20 0xFFFFFFFFFFFFFFFFFFFFFFFFFFFFFFFFFFFFFFFF AND PUSH20 0xFFFFFFFFFFFFFFFFFFFFFFFFFFFFFFFFFFFFFFFF AND DUP2 MSTORE PUSH1 0x20 ADD SWAP1 DUP2 MSTORE PUSH1 0x20 ADD PUSH1 0x0 KECCAK256 PUSH1 0x0 ADD PUSH1 0x1 SWAP1 SLOAD SWAP1 PUSH2 0x100 EXP SWAP1 DIV PUSH1 0xFF AND PUSH1 0x3 DUP2 GT ISZERO PUSH2 0x150B JUMPI PUSH2 0x150A PUSH2 0x1FE0 JUMP JUMPDEST JUMPDEST SUB PUSH2 0x1590 JUMPI PUSH1 0x2 PUSH1 0x0 DUP3 PUSH20 0xFFFFFFFFFFFFFFFFFFFFFFFFFFFFFFFFFFFFFFFF AND PUSH20 0xFFFFFFFFFFFFFFFFFFFFFFFFFFFFFFFFFFFFFFFF AND DUP2 MSTORE PUSH1 0x20 ADD SWAP1 DUP2 MSTORE PUSH1 0x20 ADD PUSH1 0x0 KECCAK256 PUSH1 0x0 ADD PUSH1 0x6 DUP2 DUP2 SWAP1 SLOAD SWAP1 PUSH2 0x100 EXP SWAP1 DIV PUSH2 0xFFFF AND DUP1 SWAP3 SWAP2 SWAP1 PUSH2 0x1570 SWAP1 PUSH2 0x2635 JUMP JUMPDEST SWAP2 SWAP1 PUSH2 0x100 EXP DUP2 SLOAD DUP2 PUSH2 0xFFFF MUL NOT AND SWAP1 DUP4 PUSH2 0xFFFF AND MUL OR SWAP1 SSTORE POP POP PUSH2 0x160C JUMP JUMPDEST PUSH1 0x2 PUSH1 0x0 DUP3 PUSH20 0xFFFFFFFFFFFFFFFFFFFFFFFFFFFFFFFFFFFFFFFF AND PUSH20 0xFFFFFFFFFFFFFFFFFFFFFFFFFFFFFFFFFFFFFFFF AND DUP2 MSTORE PUSH1 0x20 ADD SWAP1 DUP2 MSTORE PUSH1 0x20 ADD PUSH1 0x0 KECCAK256 PUSH1 0x0 ADD PUSH1 0x2 DUP2 DUP2 SWAP1 SLOAD SWAP1 PUSH2 0x100 EXP SWAP1 DIV PUSH2 0xFFFF AND DUP1 SWAP3 SWAP2 SWAP1 PUSH2 0x15F0 SWAP1 PUSH2 0x2635 JUMP JUMPDEST SWAP2 SWAP1 PUSH2 0x100 EXP DUP2 SLOAD DUP2 PUSH2 0xFFFF MUL NOT AND SWAP1 DUP4 PUSH2 0xFFFF AND MUL OR SWAP1 SSTORE POP POP JUMPDEST JUMPDEST POP JUMP JUMPDEST PUSH1 0x60 PUSH1 0x0 DUP1 JUMPDEST PUSH1 0x1 DUP1 SLOAD SWAP1 POP DUP2 LT ISZERO PUSH2 0x16FE JUMPI PUSH1 0x1 PUSH1 0x3 DUP2 GT ISZERO PUSH2 0x1637 JUMPI PUSH2 0x1636 PUSH2 0x1FE0 JUMP JUMPDEST JUMPDEST PUSH1 0x2 PUSH1 0x0 PUSH1 0x1 DUP5 DUP2 SLOAD DUP2 LT PUSH2 0x164F JUMPI PUSH2 0x164E PUSH2 0x23AB JUMP JUMPDEST JUMPDEST SWAP1 PUSH1 0x0 MSTORE PUSH1 0x20 PUSH1 0x0 KECCAK256 ADD PUSH1 0x0 SWAP1 SLOAD SWAP1 PUSH2 0x100 EXP SWAP1 DIV PUSH20 0xFFFFFFFFFFFFFFFFFFFFFFFFFFFFFFFFFFFFFFFF AND PUSH20 0xFFFFFFFFFFFFFFFFFFFFFFFFFFFFFFFFFFFFFFFF AND PUSH20 0xFFFFFFFFFFFFFFFFFFFFFFFFFFFFFFFFFFFFFFFF AND DUP2 MSTORE PUSH1 0x20 ADD SWAP1 DUP2 MSTORE PUSH1 0x20 ADD PUSH1 0x0 KECCAK256 PUSH1 0x0 ADD PUSH1 0x1 SWAP1 SLOAD SWAP1 PUSH2 0x100 EXP SWAP1 DIV PUSH1 0xFF AND PUSH1 0x3 DUP2 GT ISZERO PUSH2 0x16D7 JUMPI PUSH2 0x16D6 PUSH2 0x1FE0 JUMP JUMPDEST JUMPDEST SUB PUSH2 0x16EB JUMPI DUP2 DUP1 PUSH2 0x16E7 SWAP1 PUSH2 0x23DA JUMP JUMPDEST SWAP3 POP POP JUMPDEST DUP1 DUP1 PUSH2 0x16F6 SWAP1 PUSH2 0x23DA JUMP JUMPDEST SWAP2 POP POP PUSH2 0x1616 JUMP JUMPDEST POP PUSH1 0x0 DUP2 PUSH8 0xFFFFFFFFFFFFFFFF DUP2 GT ISZERO PUSH2 0x171B JUMPI PUSH2 0x171A PUSH2 0x2422 JUMP JUMPDEST JUMPDEST PUSH1 0x40 MLOAD SWAP1 DUP1 DUP3 MSTORE DUP1 PUSH1 0x20 MUL PUSH1 0x20 ADD DUP3 ADD PUSH1 0x40 MSTORE DUP1 ISZERO PUSH2 0x1749 JUMPI DUP2 PUSH1 0x20 ADD PUSH1 0x20 DUP3 MUL DUP1 CALLDATASIZE DUP4 CALLDATACOPY DUP1 DUP3 ADD SWAP2 POP POP SWAP1 POP JUMPDEST POP SWAP1 POP PUSH1 0x0 DUP1 JUMPDEST PUSH1 0x1 DUP1 SLOAD SWAP1 POP DUP2 LT ISZERO PUSH2 0x18C4 JUMPI PUSH1 0x1 PUSH1 0x3 DUP2 GT ISZERO PUSH2 0x1771 JUMPI PUSH2 0x1770 PUSH2 0x1FE0 JUMP JUMPDEST JUMPDEST PUSH1 0x2 PUSH1 0x0 PUSH1 0x1 DUP5 DUP2 SLOAD DUP2 LT PUSH2 0x1789 JUMPI PUSH2 0x1788 PUSH2 0x23AB JUMP JUMPDEST JUMPDEST SWAP1 PUSH1 0x0 MSTORE PUSH1 0x20 PUSH1 0x0 KECCAK256 ADD PUSH1 0x0 SWAP1 SLOAD SWAP1 PUSH2 0x100 EXP SWAP1 DIV PUSH20 0xFFFFFFFFFFFFFFFFFFFFFFFFFFFFFFFFFFFFFFFF AND PUSH20 0xFFFFFFFFFFFFFFFFFFFFFFFFFFFFFFFFFFFFFFFF AND PUSH20 0xFFFFFFFFFFFFFFFFFFFFFFFFFFFFFFFFFFFFFFFF AND DUP2 MSTORE PUSH1 0x20 ADD SWAP1 DUP2 MSTORE PUSH1 0x20 ADD PUSH1 0x0 KECCAK256 PUSH1 0x0 ADD PUSH1 0x1 SWAP1 SLOAD SWAP1 PUSH2 0x100 EXP SWAP1 DIV PUSH1 0xFF AND PUSH1 0x3 DUP2 GT ISZERO PUSH2 0x1811 JUMPI PUSH2 0x1810 PUSH2 0x1FE0 JUMP JUMPDEST JUMPDEST SUB PUSH2 0x18B1 JUMPI PUSH1 0x1 DUP2 DUP2 SLOAD DUP2 LT PUSH2 0x182A JUMPI PUSH2 0x1829 PUSH2 0x23AB JUMP JUMPDEST JUMPDEST SWAP1 PUSH1 0x0 MSTORE PUSH1 0x20 PUSH1 0x0 KECCAK256 ADD PUSH1 0x0 SWAP1 SLOAD SWAP1 PUSH2 0x100 EXP SWAP1 DIV PUSH20 0xFFFFFFFFFFFFFFFFFFFFFFFFFFFFFFFFFFFFFFFF AND DUP4 DUP4 DUP2 MLOAD DUP2 LT PUSH2 0x1868 JUMPI PUSH2 0x1867 PUSH2 0x23AB JUMP JUMPDEST JUMPDEST PUSH1 0x20 MUL PUSH1 0x20 ADD ADD SWAP1 PUSH20 0xFFFFFFFFFFFFFFFFFFFFFFFFFFFFFFFFFFFFFFFF AND SWAP1 DUP2 PUSH20 0xFFFFFFFFFFFFFFFFFFFFFFFFFFFFFFFFFFFFFFFF AND DUP2 MSTORE POP POP DUP2 DUP1 PUSH2 0x18AD SWAP1 PUSH2 0x23DA JUMP JUMPDEST SWAP3 POP POP JUMPDEST DUP1 DUP1 PUSH2 0x18BC SWAP1 PUSH2 0x23DA JUMP JUMPDEST SWAP2 POP POP PUSH2 0x1750 JUMP JUMPDEST POP DUP2 SWAP4 POP POP POP POP SWAP1 JUMP JUMPDEST PUSH2 0x18D6 PUSH2 0x1C92 JUMP JUMPDEST PUSH2 0x18DE PUSH2 0x122E JUMP JUMPDEST ISZERO PUSH2 0x191E JUMPI PUSH1 0x40 MLOAD PUSH32 0x8C379A000000000000000000000000000000000000000000000000000000000 DUP2 MSTORE PUSH1 0x4 ADD PUSH2 0x1915 SWAP1 PUSH2 0x249D JUMP JUMPDEST PUSH1 0x40 MLOAD DUP1 SWAP2 SUB SWAP1 REVERT JUMPDEST PUSH1 0x0 JUMPDEST PUSH1 0x1 DUP1 SLOAD SWAP1 POP DUP2 LT ISZERO PUSH2 0x19EA JUMPI PUSH1 0x0 PUSH1 0x2 PUSH1 0x0 PUSH1 0x1 DUP5 DUP2 SLOAD DUP2 LT PUSH2 0x1948 JUMPI PUSH2 0x1947 PUSH2 0x23AB JUMP JUMPDEST JUMPDEST SWAP1 PUSH1 0x0 MSTORE PUSH1 0x20 PUSH1 0x0 KECCAK256 ADD PUSH1 0x0 SWAP1 SLOAD SWAP1 PUSH2 0x100 EXP SWAP1 DIV PUSH20 0xFFFFFFFFFFFFFFFFFFFFFFFFFFFFFFFFFFFFFFFF AND PUSH20 0xFFFFFFFFFFFFFFFFFFFFFFFFFFFFFFFFFFFFFFFF AND PUSH20 0xFFFFFFFFFFFFFFFFFFFFFFFFFFFFFFFFFFFFFFFF AND DUP2 MSTORE PUSH1 0x20 ADD SWAP1 DUP2 MSTORE PUSH1 0x20 ADD PUSH1 0x0 KECCAK256 PUSH1 0x0 ADD PUSH1 0x1 PUSH2 0x100 EXP DUP2 SLOAD DUP2 PUSH1 0xFF MUL NOT AND SWAP1 DUP4 PUSH1 0x3 DUP2 GT ISZERO PUSH2 0x19D2 JUMPI PUSH2 0x19D1 PUSH2 0x1FE0 JUMP JUMPDEST JUMPDEST MUL OR SWAP1 SSTORE POP DUP1 DUP1 PUSH2 0x19E2 SWAP1 PUSH2 0x23DA JUMP JUMPDEST SWAP2 POP POP PUSH2 0x1921 JUMP JUMPDEST POP PUSH1 0x1 PUSH1 0x4 PUSH1 0x0 PUSH2 0x100 EXP DUP2 SLOAD DUP2 PUSH1 0xFF MUL NOT AND SWAP1 DUP4 ISZERO ISZERO MUL OR SWAP1 SSTORE POP JUMP JUMPDEST PUSH2 0x1A10 PUSH2 0x1C92 JUMP JUMPDEST PUSH1 0x0 PUSH20 0xFFFFFFFFFFFFFFFFFFFFFFFFFFFFFFFFFFFFFFFF AND DUP2 PUSH20 0xFFFFFFFFFFFFFFFFFFFFFFFFFFFFFFFFFFFFFFFF AND SUB PUSH2 0x1A7F JUMPI PUSH1 0x40 MLOAD PUSH32 0x8C379A000000000000000000000000000000000000000000000000000000000 DUP2 MSTORE PUSH1 0x4 ADD PUSH2 0x1A76 SWAP1 PUSH2 0x26D1 JUMP JUMPDEST PUSH1 0x40 MLOAD DUP1 SWAP2 SUB SWAP1 REVERT JUMPDEST PUSH2 0x1A88 DUP2 PUSH2 0x1D10 JUMP JUMPDEST POP JUMP JUMPDEST PUSH2 0x1A93 PUSH2 0x1C92 JUMP JUMPDEST PUSH1 0x2 PUSH1 0x0 DUP3 PUSH20 0xFFFFFFFFFFFFFFFFFFFFFFFFFFFFFFFFFFFFFFFF AND PUSH20 0xFFFFFFFFFFFFFFFFFFFFFFFFFFFFFFFFFFFFFFFF AND DUP2 MSTORE PUSH1 0x20 ADD SWAP1 DUP2 MSTORE PUSH1 0x20 ADD PUSH1 0x0 KECCAK256 PUSH1 0x0 ADD PUSH1 0x0 SWAP1 SLOAD SWAP1 PUSH2 0x100 EXP SWAP1 DIV PUSH1 0xFF AND ISZERO PUSH2 0x1B23 JUMPI PUSH1 0x40 MLOAD PUSH32 0x8C379A000000000000000000000000000000000000000000000000000000000 DUP2 MSTORE PUSH1 0x4 ADD PUSH2 0x1B1A SWAP1 PUSH2 0x273D JUMP JUMPDEST PUSH1 0x40 MLOAD DUP1 SWAP2 SUB SWAP1 REVERT JUMPDEST PUSH1 0x1 PUSH1 0x2 PUSH1 0x0 DUP4 PUSH20 0xFFFFFFFFFFFFFFFFFFFFFFFFFFFFFFFFFFFFFFFF AND PUSH20 0xFFFFFFFFFFFFFFFFFFFFFFFFFFFFFFFFFFFFFFFF AND DUP2 MSTORE PUSH1 0x20 ADD SWAP1 DUP2 MSTORE PUSH1 0x20 ADD PUSH1 0x0 KECCAK256 PUSH1 0x0 ADD PUSH1 0x0 PUSH2 0x100 EXP DUP2 SLOAD DUP2 PUSH1 0xFF MUL NOT AND SWAP1 DUP4 ISZERO ISZERO MUL OR SWAP1 SSTORE POP PUSH1 0x0 PUSH1 0x2 PUSH1 0x0 DUP4 PUSH20 0xFFFFFFFFFFFFFFFFFFFFFFFFFFFFFFFFFFFFFFFF AND PUSH20 0xFFFFFFFFFFFFFFFFFFFFFFFFFFFFFFFFFFFFFFFF AND DUP2 MSTORE PUSH1 0x20 ADD SWAP1 DUP2 MSTORE PUSH1 0x20 ADD PUSH1 0x0 KECCAK256 PUSH1 0x0 ADD PUSH1 0x1 PUSH2 0x100 EXP DUP2 SLOAD DUP2 PUSH1 0xFF MUL NOT AND SWAP1 DUP4 PUSH1 0x3 DUP2 GT ISZERO PUSH2 0x1BE4 JUMPI PUSH2 0x1BE3 PUSH2 0x1FE0 JUMP JUMPDEST JUMPDEST MUL OR SWAP1 SSTORE POP PUSH1 0x1 DUP2 SWAP1 DUP1 PUSH1 0x1 DUP2 SLOAD ADD DUP1 DUP3 SSTORE DUP1 SWAP2 POP POP PUSH1 0x1 SWAP1 SUB SWAP1 PUSH1 0x0 MSTORE PUSH1 0x20 PUSH1 0x0 KECCAK256 ADD PUSH1 0x0 SWAP1 SWAP2 SWAP1 SWAP2 SWAP1 SWAP2 PUSH2 0x100 EXP DUP2 SLOAD DUP2 PUSH20 0xFFFFFFFFFFFFFFFFFFFFFFFFFFFFFFFFFFFFFFFF MUL NOT AND SWAP1 DUP4 PUSH20 0xFFFFFFFFFFFFFFFFFFFFFFFFFFFFFFFFFFFFFFFF AND MUL OR SWAP1 SSTORE POP DUP1 PUSH20 0xFFFFFFFFFFFFFFFFFFFFFFFFFFFFFFFFFFFFFFFF AND PUSH32 0x92FABFA210DF88D92C2F5A07DDD43A985B208D8B19B7A78BA1284AA4B287D862 PUSH1 0x40 MLOAD PUSH1 0x40 MLOAD DUP1 SWAP2 SUB SWAP1 LOG2 POP JUMP JUMPDEST PUSH2 0x1C9A PUSH2 0x1DD4 JUMP JUMPDEST PUSH20 0xFFFFFFFFFFFFFFFFFFFFFFFFFFFFFFFFFFFFFFFF AND PUSH2 0x1CB8 PUSH2 0xDD1 JUMP JUMPDEST PUSH20 0xFFFFFFFFFFFFFFFFFFFFFFFFFFFFFFFFFFFFFFFF AND EQ PUSH2 0x1D0E JUMPI PUSH1 0x40 MLOAD PUSH32 0x8C379A000000000000000000000000000000000000000000000000000000000 DUP2 MSTORE PUSH1 0x4 ADD PUSH2 0x1D05 SWAP1 PUSH2 0x27A9 JUMP JUMPDEST PUSH1 0x40 MLOAD DUP1 SWAP2 SUB SWAP1 REVERT JUMPDEST JUMP JUMPDEST PUSH1 0x0 DUP1 PUSH1 0x0 SWAP1 SLOAD SWAP1 PUSH2 0x100 EXP SWAP1 DIV PUSH20 0xFFFFFFFFFFFFFFFFFFFFFFFFFFFFFFFFFFFFFFFF AND SWAP1 POP DUP2 PUSH1 0x0 DUP1 PUSH2 0x100 EXP DUP2 SLOAD DUP2 PUSH20 0xFFFFFFFFFFFFFFFFFFFFFFFFFFFFFFFFFFFFFFFF MUL NOT AND SWAP1 DUP4 PUSH20 0xFFFFFFFFFFFFFFFFFFFFFFFFFFFFFFFFFFFFFFFF AND MUL OR SWAP1 SSTORE POP DUP2 PUSH20 0xFFFFFFFFFFFFFFFFFFFFFFFFFFFFFFFFFFFFFFFF AND DUP2 PUSH20 0xFFFFFFFFFFFFFFFFFFFFFFFFFFFFFFFFFFFFFFFF AND PUSH32 0x8BE0079C531659141344CD1FD0A4F28419497F9722A3DAAFE3B4186F6B6457E0 PUSH1 0x40 MLOAD PUSH1 0x40 MLOAD DUP1 SWAP2 SUB SWAP1 LOG3 POP POP JUMP JUMPDEST PUSH1 0x0 CALLER SWAP1 POP SWAP1 JUMP JUMPDEST PUSH1 0x40 MLOAD DUP1 PUSH1 0xA0 ADD PUSH1 0x40 MSTORE DUP1 PUSH1 0x0 ISZERO ISZERO DUP2 MSTORE PUSH1 0x20 ADD PUSH1 0x0 PUSH1 0x3 DUP2 GT ISZERO PUSH2 0x1E04 JUMPI PUSH2 0x1E03 PUSH2 0x1FE0 JUMP JUMPDEST JUMPDEST DUP2 MSTORE PUSH1 0x20 ADD PUSH1 0x0 PUSH2 0xFFFF AND DUP2 MSTORE PUSH1 0x20 ADD PUSH1 0x0 PUSH2 0xFFFF AND DUP2 MSTORE PUSH1 0x20 ADD PUSH1 0x0 PUSH2 0xFFFF AND DUP2 MSTORE POP SWAP1 JUMP JUMPDEST PUSH1 0x0 PUSH20 0xFFFFFFFFFFFFFFFFFFFFFFFFFFFFFFFFFFFFFFFF DUP3 AND SWAP1 POP SWAP2 SWAP1 POP JUMP JUMPDEST PUSH1 0x0 PUSH2 0x1E56 DUP3 PUSH2 0x1E2B JUMP JUMPDEST SWAP1 POP SWAP2 SWAP1 POP JUMP JUMPDEST PUSH2 0x1E66 DUP2 PUSH2 0x1E4B JUMP JUMPDEST DUP3 MSTORE POP POP JUMP JUMPDEST PUSH1 0x0 PUSH1 0x20 DUP3 ADD SWAP1 POP PUSH2 0x1E81 PUSH1 0x0 DUP4 ADD DUP5 PUSH2 0x1E5D JUMP JUMPDEST SWAP3 SWAP2 POP POP JUMP JUMPDEST PUSH1 0x0 DUP2 MLOAD SWAP1 POP SWAP2 SWAP1 POP JUMP JUMPDEST PUSH1 0x0 DUP3 DUP3 MSTORE PUSH1 0x20 DUP3 ADD SWAP1 POP SWAP3 SWAP2 POP POP JUMP JUMPDEST PUSH1 0x0 DUP2 SWAP1 POP PUSH1 0x20 DUP3 ADD SWAP1 POP SWAP2 SWAP1 POP JUMP JUMPDEST PUSH2 0x1EBC DUP2 PUSH2 0x1E4B JUMP JUMPDEST DUP3 MSTORE POP POP JUMP JUMPDEST PUSH1 0x0 PUSH2 0x1ECE DUP4 DUP4 PUSH2 0x1EB3 JUMP JUMPDEST PUSH1 0x20 DUP4 ADD SWAP1 POP SWAP3 SWAP2 POP POP JUMP JUMPDEST PUSH1 0x0 PUSH1 0x20 DUP3 ADD SWAP1 POP SWAP2 SWAP1 POP JUMP JUMPDEST PUSH1 0x0 PUSH2 0x1EF2 DUP3 PUSH2 0x1E87 JUMP JUMPDEST PUSH2 0x1EFC DUP2 DUP6 PUSH2 0x1E92 JUMP JUMPDEST SWAP4 POP PUSH2 0x1F07 DUP4 PUSH2 0x1EA3 JUMP JUMPDEST DUP1 PUSH1 0x0 JUMPDEST DUP4 DUP2 LT ISZERO PUSH2 0x1F38 JUMPI DUP2 MLOAD PUSH2 0x1F1F DUP9 DUP3 PUSH2 0x1EC2 JUMP JUMPDEST SWAP8 POP PUSH2 0x1F2A DUP4 PUSH2 0x1EDA JUMP JUMPDEST SWAP3 POP POP PUSH1 0x1 DUP2 ADD SWAP1 POP PUSH2 0x1F0B JUMP JUMPDEST POP DUP6 SWAP4 POP POP POP POP SWAP3 SWAP2 POP POP JUMP JUMPDEST PUSH1 0x0 PUSH1 0x20 DUP3 ADD SWAP1 POP DUP2 DUP2 SUB PUSH1 0x0 DUP4 ADD MSTORE PUSH2 0x1F5F DUP2 DUP5 PUSH2 0x1EE7 JUMP JUMPDEST SWAP1 POP SWAP3 SWAP2 POP POP JUMP JUMPDEST PUSH1 0x0 DUP1 REVERT JUMPDEST PUSH2 0x1F75 DUP2 PUSH2 0x1E4B JUMP JUMPDEST DUP2 EQ PUSH2 0x1F80 JUMPI PUSH1 0x0 DUP1 REVERT JUMPDEST POP JUMP JUMPDEST PUSH1 0x0 DUP2 CALLDATALOAD SWAP1 POP PUSH2 0x1F92 DUP2 PUSH2 0x1F6C JUMP JUMPDEST SWAP3 SWAP2 POP POP JUMP JUMPDEST PUSH1 0x0 PUSH1 0x20 DUP3 DUP5 SUB SLT ISZERO PUSH2 0x1FAE JUMPI PUSH2 0x1FAD PUSH2 0x1F67 JUMP JUMPDEST JUMPDEST PUSH1 0x0 PUSH2 0x1FBC DUP5 DUP3 DUP6 ADD PUSH2 0x1F83 JUMP JUMPDEST SWAP2 POP POP SWAP3 SWAP2 POP POP JUMP JUMPDEST PUSH1 0x0 DUP2 ISZERO ISZERO SWAP1 POP SWAP2 SWAP1 POP JUMP JUMPDEST PUSH2 0x1FDA DUP2 PUSH2 0x1FC5 JUMP JUMPDEST DUP3 MSTORE POP POP JUMP JUMPDEST PUSH32 0x4E487B7100000000000000000000000000000000000000000000000000000000 PUSH1 0x0 MSTORE PUSH1 0x21 PUSH1 0x4 MSTORE PUSH1 0x24 PUSH1 0x0 REVERT JUMPDEST PUSH1 0x4 DUP2 LT PUSH2 0x2020 JUMPI PUSH2 0x201F PUSH2 0x1FE0 JUMP JUMPDEST JUMPDEST POP JUMP JUMPDEST PUSH1 0x0 DUP2 SWAP1 POP PUSH2 0x2031 DUP3 PUSH2 0x200F JUMP JUMPDEST SWAP2 SWAP1 POP JUMP JUMPDEST PUSH1 0x0 PUSH2 0x2041 DUP3 PUSH2 0x2023 JUMP JUMPDEST SWAP1 POP SWAP2 SWAP1 POP JUMP JUMPDEST PUSH2 0x2051 DUP2 PUSH2 0x2036 JUMP JUMPDEST DUP3 MSTORE POP POP JUMP JUMPDEST PUSH1 0x0 PUSH2 0xFFFF DUP3 AND SWAP1 POP SWAP2 SWAP1 POP JUMP JUMPDEST PUSH2 0x206E DUP2 PUSH2 0x2057 JUMP JUMPDEST DUP3 MSTORE POP POP JUMP JUMPDEST PUSH1 0xA0 DUP3 ADD PUSH1 0x0 DUP3 ADD MLOAD PUSH2 0x208A PUSH1 0x0 DUP6 ADD DUP3 PUSH2 0x1FD1 JUMP JUMPDEST POP PUSH1 0x20 DUP3 ADD MLOAD PUSH2 0x209D PUSH1 0x20 DUP6 ADD DUP3 PUSH2 0x2048 JUMP JUMPDEST POP PUSH1 0x40 DUP3 ADD MLOAD PUSH2 0x20B0 PUSH1 0x40 DUP6 ADD DUP3 PUSH2 0x2065 JUMP JUMPDEST POP PUSH1 0x60 DUP3 ADD MLOAD PUSH2 0x20C3 PUSH1 0x60 DUP6 ADD DUP3 PUSH2 0x2065 JUMP JUMPDEST POP PUSH1 0x80 DUP3 ADD MLOAD PUSH2 0x20D6 PUSH1 0x80 DUP6 ADD DUP3 PUSH2 0x2065 JUMP JUMPDEST POP POP POP POP JUMP JUMPDEST PUSH1 0x0 PUSH1 0xA0 DUP3 ADD SWAP1 POP PUSH2 0x20F1 PUSH1 0x0 DUP4 ADD DUP5 PUSH2 0x2074 JUMP JUMPDEST SWAP3 SWAP2 POP POP JUMP JUMPDEST PUSH1 0x0 DUP2 MLOAD SWAP1 POP SWAP2 SWAP1 POP JUMP JUMPDEST PUSH1 0x0 DUP3 DUP3 MSTORE PUSH1 0x20 DUP3 ADD SWAP1 POP SWAP3 SWAP2 POP POP JUMP JUMPDEST PUSH1 0x0 DUP2 SWAP1 POP PUSH1 0x20 DUP3 ADD SWAP1 POP SWAP2 SWAP1 POP JUMP JUMPDEST PUSH1 0x0 DUP2 SWAP1 POP SWAP2 SWAP1 POP JUMP JUMPDEST PUSH2 0x2136 DUP2 PUSH2 0x2123 JUMP JUMPDEST DUP3 MSTORE POP POP JUMP JUMPDEST PUSH1 0x40 DUP3 ADD PUSH1 0x0 DUP3 ADD MLOAD PUSH2 0x2152 PUSH1 0x0 DUP6 ADD DUP3 PUSH2 0x212D JUMP JUMPDEST POP PUSH1 0x20 DUP3 ADD MLOAD PUSH2 0x2165 PUSH1 0x20 DUP6 ADD DUP3 PUSH2 0x212D JUMP JUMPDEST POP POP POP POP JUMP JUMPDEST PUSH1 0x0 PUSH2 0x2177 DUP4 DUP4 PUSH2 0x213C JUMP JUMPDEST PUSH1 0x40 DUP4 ADD SWAP1 POP SWAP3 SWAP2 POP POP JUMP JUMPDEST PUSH1 0x0 PUSH1 0x20 DUP3 ADD SWAP1 POP SWAP2 SWAP1 POP JUMP JUMPDEST PUSH1 0x0 PUSH2 0x219B DUP3 PUSH2 0x20F7 JUMP JUMPDEST PUSH2 0x21A5 DUP2 DUP6 PUSH2 0x2102 JUMP JUMPDEST SWAP4 POP PUSH2 0x21B0 DUP4 PUSH2 0x2113 JUMP JUMPDEST DUP1 PUSH1 0x0 JUMPDEST DUP4 DUP2 LT ISZERO PUSH2 0x21E1 JUMPI DUP2 MLOAD PUSH2 0x21C8 DUP9 DUP3 PUSH2 0x216B JUMP JUMPDEST SWAP8 POP PUSH2 0x21D3 DUP4 PUSH2 0x2183 JUMP JUMPDEST SWAP3 POP POP PUSH1 0x1 DUP2 ADD SWAP1 POP PUSH2 0x21B4 JUMP JUMPDEST POP DUP6 SWAP4 POP POP POP POP SWAP3 SWAP2 POP POP JUMP JUMPDEST PUSH1 0x0 PUSH1 0x20 DUP3 ADD SWAP1 POP DUP2 DUP2 SUB PUSH1 0x0 DUP4 ADD MSTORE PUSH2 0x2208 DUP2 DUP5 PUSH2 0x2190 JUMP JUMPDEST SWAP1 POP SWAP3 SWAP2 POP POP JUMP JUMPDEST PUSH2 0x2219 DUP2 PUSH2 0x2123 JUMP JUMPDEST DUP2 EQ PUSH2 0x2224 JUMPI PUSH1 0x0 DUP1 REVERT JUMPDEST POP JUMP JUMPDEST PUSH1 0x0 DUP2 CALLDATALOAD SWAP1 POP PUSH2 0x2236 DUP2 PUSH2 0x2210 JUMP JUMPDEST SWAP3 SWAP2 POP POP JUMP JUMPDEST PUSH1 0x0 PUSH1 0x20 DUP3 DUP5 SUB SLT ISZERO PUSH2 0x2252 JUMPI PUSH2 0x2251 PUSH2 0x1F67 JUMP JUMPDEST JUMPDEST PUSH1 0x0 PUSH2 0x2260 DUP5 DUP3 DUP6 ADD PUSH2 0x2227 JUMP JUMPDEST SWAP2 POP POP SWAP3 SWAP2 POP POP JUMP JUMPDEST PUSH2 0x2272 DUP2 PUSH2 0x2123 JUMP JUMPDEST DUP3 MSTORE POP POP JUMP JUMPDEST PUSH1 0x0 PUSH1 0x40 DUP3 ADD SWAP1 POP PUSH2 0x228D PUSH1 0x0 DUP4 ADD DUP6 PUSH2 0x2269 JUMP JUMPDEST PUSH2 0x229A PUSH1 0x20 DUP4 ADD DUP5 PUSH2 0x2269 JUMP JUMPDEST SWAP4 SWAP3 POP POP POP JUMP JUMPDEST PUSH2 0x22AA DUP2 PUSH2 0x1FC5 JUMP JUMPDEST DUP3 MSTORE POP POP JUMP JUMPDEST PUSH1 0x0 PUSH1 0x20 DUP3 ADD SWAP1 POP PUSH2 0x22C5 PUSH1 0x0 DUP4 ADD DUP5 PUSH2 0x22A1 JUMP JUMPDEST SWAP3 SWAP2 POP POP JUMP JUMPDEST PUSH1 0x0 DUP3 DUP3 MSTORE PUSH1 0x20 DUP3 ADD SWAP1 POP SWAP3 SWAP2 POP POP JUMP JUMPDEST PUSH32 0x4E6F2073657373696F6E2069732072756E6E696E670000000000000000000000 PUSH1 0x0 DUP3 ADD MSTORE POP JUMP JUMPDEST PUSH1 0x0 PUSH2 0x2312 PUSH1 0x15 DUP4 PUSH2 0x22CB JUMP JUMPDEST SWAP2 POP PUSH2 0x231D DUP3 PUSH2 0x22DC JUMP JUMPDEST PUSH1 0x20 DUP3 ADD SWAP1 POP SWAP2 SWAP1 POP JUMP JUMPDEST PUSH1 0x0 PUSH1 0x20 DUP3 ADD SWAP1 POP DUP2 DUP2 SUB PUSH1 0x0 DUP4 ADD MSTORE PUSH2 0x2341 DUP2 PUSH2 0x2305 JUMP JUMPDEST SWAP1 POP SWAP2 SWAP1 POP JUMP JUMPDEST PUSH32 0x4E487B7100000000000000000000000000000000000000000000000000000000 PUSH1 0x0 MSTORE PUSH1 0x11 PUSH1 0x4 MSTORE PUSH1 0x24 PUSH1 0x0 REVERT JUMPDEST PUSH1 0x0 PUSH2 0x2382 DUP3 PUSH2 0x2123 JUMP JUMPDEST SWAP2 POP PUSH2 0x238D DUP4 PUSH2 0x2123 JUMP JUMPDEST SWAP3 POP DUP3 DUP3 SUB SWAP1 POP DUP2 DUP2 GT ISZERO PUSH2 0x23A5 JUMPI PUSH2 0x23A4 PUSH2 0x2348 JUMP JUMPDEST JUMPDEST SWAP3 SWAP2 POP POP JUMP JUMPDEST PUSH32 0x4E487B7100000000000000000000000000000000000000000000000000000000 PUSH1 0x0 MSTORE PUSH1 0x32 PUSH1 0x4 MSTORE PUSH1 0x24 PUSH1 0x0 REVERT JUMPDEST PUSH1 0x0 PUSH2 0x23E5 DUP3 PUSH2 0x2123 JUMP JUMPDEST SWAP2 POP PUSH32 0xFFFFFFFFFFFFFFFFFFFFFFFFFFFFFFFFFFFFFFFFFFFFFFFFFFFFFFFFFFFFFFFF DUP3 SUB PUSH2 0x2417 JUMPI PUSH2 0x2416 PUSH2 0x2348 JUMP JUMPDEST JUMPDEST PUSH1 0x1 DUP3 ADD SWAP1 POP SWAP2 SWAP1 POP JUMP JUMPDEST PUSH32 0x4E487B7100000000000000000000000000000000000000000000000000000000 PUSH1 0x0 MSTORE PUSH1 0x41 PUSH1 0x4 MSTORE PUSH1 0x24 PUSH1 0x0 REVERT JUMPDEST PUSH32 0x53657373696F6E206973206E6F772072756E6E696E6700000000000000000000 PUSH1 0x0 DUP3 ADD MSTORE POP JUMP JUMPDEST PUSH1 0x0 PUSH2 0x2487 PUSH1 0x16 DUP4 PUSH2 0x22CB JUMP JUMPDEST SWAP2 POP PUSH2 0x2492 DUP3 PUSH2 0x2451 JUMP JUMPDEST PUSH1 0x20 DUP3 ADD SWAP1 POP SWAP2 SWAP1 POP JUMP JUMPDEST PUSH1 0x0 PUSH1 0x20 DUP3 ADD SWAP1 POP DUP2 DUP2 SUB PUSH1 0x0 DUP4 ADD MSTORE PUSH2 0x24B6 DUP2 PUSH2 0x247A JUMP JUMPDEST SWAP1 POP SWAP2 SWAP1 POP JUMP JUMPDEST PUSH32 0x4D656D626572206973206E6F7420726567697374657265640000000000000000 PUSH1 0x0 DUP3 ADD MSTORE POP JUMP JUMPDEST PUSH1 0x0 PUSH2 0x24F3 PUSH1 0x18 DUP4 PUSH2 0x22CB JUMP JUMPDEST SWAP2 POP PUSH2 0x24FE DUP3 PUSH2 0x24BD JUMP JUMPDEST PUSH1 0x20 DUP3 ADD SWAP1 POP SWAP2 SWAP1 POP JUMP JUMPDEST PUSH1 0x0 PUSH1 0x20 DUP3 ADD SWAP1 POP DUP2 DUP2 SUB PUSH1 0x0 DUP4 ADD MSTORE PUSH2 0x2522 DUP2 PUSH2 0x24E6 JUMP JUMPDEST SWAP1 POP SWAP2 SWAP1 POP JUMP JUMPDEST PUSH32 0x4D656D6265722068617320616C726561647920636865636B656420696E000000 PUSH1 0x0 DUP3 ADD MSTORE POP JUMP JUMPDEST PUSH1 0x0 PUSH2 0x255F PUSH1 0x1D DUP4 PUSH2 0x22CB JUMP JUMPDEST SWAP2 POP PUSH2 0x256A DUP3 PUSH2 0x2529 JUMP JUMPDEST PUSH1 0x20 DUP3 ADD SWAP1 POP SWAP2 SWAP1 POP JUMP JUMPDEST PUSH1 0x0 PUSH1 0x20 DUP3 ADD SWAP1 POP DUP2 DUP2 SUB PUSH1 0x0 DUP4 ADD MSTORE PUSH2 0x258E DUP2 PUSH2 0x2552 JUMP JUMPDEST SWAP1 POP SWAP2 SWAP1 POP JUMP JUMPDEST PUSH1 0x0 PUSH2 0x25A0 DUP3 PUSH2 0x2123 JUMP JUMPDEST SWAP2 POP PUSH2 0x25AB DUP4 PUSH2 0x2123 JUMP JUMPDEST SWAP3 POP DUP3 DUP3 ADD SWAP1 POP DUP1 DUP3 GT ISZERO PUSH2 0x25C3 JUMPI PUSH2 0x25C2 PUSH2 0x2348 JUMP JUMPDEST JUMPDEST SWAP3 SWAP2 POP POP JUMP JUMPDEST PUSH32 0x416C726561647920697320707265736964656E74000000000000000000000000 PUSH1 0x0 DUP3 ADD MSTORE POP JUMP JUMPDEST PUSH1 0x0 PUSH2 0x25FF PUSH1 0x14 DUP4 PUSH2 0x22CB JUMP JUMPDEST SWAP2 POP PUSH2 0x260A DUP3 PUSH2 0x25C9 JUMP JUMPDEST PUSH1 0x20 DUP3 ADD SWAP1 POP SWAP2 SWAP1 POP JUMP JUMPDEST PUSH1 0x0 PUSH1 0x20 DUP3 ADD SWAP1 POP DUP2 DUP2 SUB PUSH1 0x0 DUP4 ADD MSTORE PUSH2 0x262E DUP2 PUSH2 0x25F2 JUMP JUMPDEST SWAP1 POP SWAP2 SWAP1 POP JUMP JUMPDEST PUSH1 0x0 PUSH2 0x2640 DUP3 PUSH2 0x2057 JUMP JUMPDEST SWAP2 POP PUSH2 0xFFFF DUP3 SUB PUSH2 0x2654 JUMPI PUSH2 0x2653 PUSH2 0x2348 JUMP JUMPDEST JUMPDEST PUSH1 0x1 DUP3 ADD SWAP1 POP SWAP2 SWAP1 POP JUMP JUMPDEST PUSH32 0x4F776E61626C653A206E6577206F776E657220697320746865207A65726F2061 PUSH1 0x0 DUP3 ADD MSTORE PUSH32 0x6464726573730000000000000000000000000000000000000000000000000000 PUSH1 0x20 DUP3 ADD MSTORE POP JUMP JUMPDEST PUSH1 0x0 PUSH2 0x26BB PUSH1 0x26 DUP4 PUSH2 0x22CB JUMP JUMPDEST SWAP2 POP PUSH2 0x26C6 DUP3 PUSH2 0x265F JUMP JUMPDEST PUSH1 0x40 DUP3 ADD SWAP1 POP SWAP2 SWAP1 POP JUMP JUMPDEST PUSH1 0x0 PUSH1 0x20 DUP3 ADD SWAP1 POP DUP2 DUP2 SUB PUSH1 0x0 DUP4 ADD MSTORE PUSH2 0x26EA DUP2 PUSH2 0x26AE JUMP JUMPDEST SWAP1 POP SWAP2 SWAP1 POP JUMP JUMPDEST PUSH32 0x4D656D62657220697320616C7265616479207265676973746572656400000000 PUSH1 0x0 DUP3 ADD MSTORE POP JUMP JUMPDEST PUSH1 0x0 PUSH2 0x2727 PUSH1 0x1C DUP4 PUSH2 0x22CB JUMP JUMPDEST SWAP2 POP PUSH2 0x2732 DUP3 PUSH2 0x26F1 JUMP JUMPDEST PUSH1 0x20 DUP3 ADD SWAP1 POP SWAP2 SWAP1 POP JUMP JUMPDEST PUSH1 0x0 PUSH1 0x20 DUP3 ADD SWAP1 POP DUP2 DUP2 SUB PUSH1 0x0 DUP4 ADD MSTORE PUSH2 0x2756 DUP2 PUSH2 0x271A JUMP JUMPDEST SWAP1 POP SWAP2 SWAP1 POP JUMP JUMPDEST PUSH32 0x4F776E61626C653A2063616C6C6572206973206E6F7420746865206F776E6572 PUSH1 0x0 DUP3 ADD MSTORE POP JUMP JUMPDEST PUSH1 0x0 PUSH2 0x2793 PUSH1 0x20 DUP4 PUSH2 0x22CB JUMP JUMPDEST SWAP2 POP PUSH2 0x279E DUP3 PUSH2 0x275D JUMP JUMPDEST PUSH1 0x20 DUP3 ADD SWAP1 POP SWAP2 SWAP1 POP JUMP JUMPDEST PUSH1 0x0 PUSH1 0x20 DUP3 ADD SWAP1 POP DUP2 DUP2 SUB PUSH1 0x0 DUP4 ADD MSTORE PUSH2 0x27C2 DUP2 PUSH2 0x2786 JUMP JUMPDEST SWAP1 POP SWAP2 SWAP1 POP JUMP INVALID LOG2 PUSH5 0x6970667358 0x22 SLT KECCAK256 PUSH12 0x5B04802FA2DD7E1629D65F00 MOD 0xDA ADD PUSH24 0xE8F2B35178AC5B5A179F02D0D328C664736F6C6343000812 STOP CALLER "
				},
				"gasEstimates": {
					"creation": {
						"codeDepositCost": "2047800",
						"executionCost": "infinite",
						"totalCost": "infinite"
					},
					"external": {
						"changePresident(address)": "infinite",
						"checkMember(address)": "infinite",
						"closeSession()": "infinite",
						"createSession()": "infinite",
						"getAbsentMembers()": "infinite",
						"getLateMembers()": "infinite",
						"getMember(address)": "infinite",
						"getPresentMembers()": "infinite",
						"getPresident()": "2581",
						"getSessionList()": "infinite",
						"getmemberAddressList()": "infinite",
						"initAttendance()": "infinite",
						"joinSession()": "infinite",
						"owner()": "2633",
						"registerMember(address)": "103617",
						"renounceOwnership()": "30465",
						"sessionIsRunning()": "infinite",
						"sessionList(uint256)": "infinite",
						"transferOwnership(address)": "30832",
						"updateAttendanceCount(address)": "36575"
					}
				},
				"methodIdentifiers": {
					"changePresident(address)": "ae521e86",
					"checkMember(address)": "aaf2e5d8",
					"closeSession()": "06f4bcbf",
					"createSession()": "1cbf1b02",
					"getAbsentMembers()": "16d84caa",
					"getLateMembers()": "290d22ae",
					"getMember(address)": "2ada2596",
					"getPresentMembers()": "e526e564",
					"getPresident()": "00738d22",
					"getSessionList()": "4f796a6f",
					"getmemberAddressList()": "b9936911",
					"initAttendance()": "f1ed0331",
					"joinSession()": "97049795",
					"owner()": "8da5cb5b",
					"registerMember(address)": "fcb4888e",
					"renounceOwnership()": "715018a6",
					"sessionIsRunning()": "b1d7b82d",
					"sessionList(uint256)": "81d0061e",
					"transferOwnership(address)": "f2fde38b",
					"updateAttendanceCount(address)": "da7f6032"
				}
			},
			"storageLayout": {
				"storage": [
					{
						"astId": 7,
						"contract": "contracts/BAY.sol:BAY",
						"label": "_owner",
						"offset": 0,
						"slot": "0",
						"type": "t_address"
					},
					{
						"astId": 164,
						"contract": "contracts/BAY.sol:BAY",
						"label": "memberAddressList",
						"offset": 0,
						"slot": "1",
						"type": "t_array(t_address)dyn_storage"
					},
					{
						"astId": 169,
						"contract": "contracts/BAY.sol:BAY",
						"label": "members",
						"offset": 0,
						"slot": "2",
						"type": "t_mapping(t_address,t_struct(Member)161_storage)"
					},
					{
						"astId": 173,
						"contract": "contracts/BAY.sol:BAY",
						"label": "sessionList",
						"offset": 0,
						"slot": "3",
						"type": "t_array(t_struct(Session)144_storage)dyn_storage"
					},
					{
						"astId": 176,
						"contract": "contracts/BAY.sol:BAY",
						"label": "attendanceInitialized",
						"offset": 0,
						"slot": "4",
						"type": "t_bool"
					}
				],
				"types": {
					"t_address": {
						"encoding": "inplace",
						"label": "address",
						"numberOfBytes": "20"
					},
					"t_array(t_address)dyn_storage": {
						"base": "t_address",
						"encoding": "dynamic_array",
						"label": "address[]",
						"numberOfBytes": "32"
					},
					"t_array(t_struct(Session)144_storage)dyn_storage": {
						"base": "t_struct(Session)144_storage",
						"encoding": "dynamic_array",
						"label": "struct BAY.Session[]",
						"numberOfBytes": "32"
					},
					"t_bool": {
						"encoding": "inplace",
						"label": "bool",
						"numberOfBytes": "1"
					},
					"t_enum(AttendanceStatus)149": {
						"encoding": "inplace",
						"label": "enum BAY.AttendanceStatus",
						"numberOfBytes": "1"
					},
					"t_mapping(t_address,t_struct(Member)161_storage)": {
						"encoding": "mapping",
						"key": "t_address",
						"label": "mapping(address => struct BAY.Member)",
						"numberOfBytes": "32",
						"value": "t_struct(Member)161_storage"
					},
					"t_struct(Member)161_storage": {
						"encoding": "inplace",
						"label": "struct BAY.Member",
						"members": [
							{
								"astId": 151,
								"contract": "contracts/BAY.sol:BAY",
								"label": "isRegistered",
								"offset": 0,
								"slot": "0",
								"type": "t_bool"
							},
							{
								"astId": 154,
								"contract": "contracts/BAY.sol:BAY",
								"label": "attendance",
								"offset": 1,
								"slot": "0",
								"type": "t_enum(AttendanceStatus)149"
							},
							{
								"astId": 156,
								"contract": "contracts/BAY.sol:BAY",
								"label": "presentCount",
								"offset": 2,
								"slot": "0",
								"type": "t_uint16"
							},
							{
								"astId": 158,
								"contract": "contracts/BAY.sol:BAY",
								"label": "lateCount",
								"offset": 4,
								"slot": "0",
								"type": "t_uint16"
							},
							{
								"astId": 160,
								"contract": "contracts/BAY.sol:BAY",
								"label": "absentCount",
								"offset": 6,
								"slot": "0",
								"type": "t_uint16"
							}
						],
						"numberOfBytes": "32"
					},
					"t_struct(Session)144_storage": {
						"encoding": "inplace",
						"label": "struct BAY.Session",
						"members": [
							{
								"astId": 141,
								"contract": "contracts/BAY.sol:BAY",
								"label": "startTime",
								"offset": 0,
								"slot": "0",
								"type": "t_uint256"
							},
							{
								"astId": 143,
								"contract": "contracts/BAY.sol:BAY",
								"label": "closedTime",
								"offset": 0,
								"slot": "1",
								"type": "t_uint256"
							}
						],
						"numberOfBytes": "64"
					},
					"t_uint16": {
						"encoding": "inplace",
						"label": "uint16",
						"numberOfBytes": "2"
					},
					"t_uint256": {
						"encoding": "inplace",
						"label": "uint256",
						"numberOfBytes": "32"
					}
				}
			},
			"userdoc": {
				"kind": "user",
				"methods": {},
				"version": 1
			}
		}
	}
}